:020000040000FA
:1000000002006000000080FB120090B900030200B3
:100010004AE4900F00782179018002F0A3D8FCD93E
:10002000FA900F20AA82AB83900093782379018005
:1000300015E493A3AC82AD838A828B83F0A3AA825A
:10004000AB838C828D83D8E9D9E77582E47583030D
:1000500074001200727582037583007400120072BE
:1000600075D0007581BF75100075110F759F000266
:100070000008C09FF59FE473D09F22D083D082C038
:100080009FE493C0E0740193C0E0740293F59F2253
:1000900079012248656C6C6F20576F726C64210A7D
:1000A0000000000000000000000000000000000050
:1000B000000000000F12007B52040012007B1E049F
:1000C0000012007B2F040012007BE0010012007B75
:1000D0001C020012007B52030012007BA4030012DA
:1000E000007BBA0300600C08C6C313C618C613C64B
:1000F000D5E0F422251010AF08F51040021511804C
:1001000008F51040021511D2AF22C0D0251010AF53
:1001100008F510500205118008F51050020511D2A3
:10012000AFD0D0222510F582E43511F583222510B9
:10013000C582C0E0E51134FFC583C0E0E510C3957A
:100140008224F810AF08858311858210800885838A
:1001500011858210D2AFCEF0A3E520F0A37808E697
:1001600008F0A3DEFAEFF0A3E58124FAF8E608F040
:10017000A3E608F0A3E608F0A30808E608F0A3E663
:1001800008F0A315811581D0E0FED0E0F8158115A7
:10019000811581E8C0E0EEC0E022851183851082E0
:1001A000E0A3FEE0A3F5207808E0A3F608DFFAE07C
:1001B000A3FFE0A3C0E0E0A3C0E0E0A3C0E0E0A3B1
:1001C000C0E0E0A3C0E010AF0885821085831180F5
:1001D00008858210858311D2AFD083D08202007847
:1001E00074F612012E8A088B09740978081200E54A
:1001F000A808A909C2AF906270E0A2E740F8E5083C
:10020000C333906272F0906270E0D2E0F09062705E
:10021000E0A2E740F8D2AF7F0202019A74F2120125
:100220002E74F81200F4EAFEEBFF8C0A8D0B89089D
:10023000AA0AAB0B1200C7850A0C850B0D740A784D
:100240000C1200E5E50C906272F07402780A12005C
:10025000E5E50A906271F0EEF8EFF9E4E9F885104F
:1002600082851183F0EEC0E07401120124D0E0F029
:1002700074021201247462F074031201247473F086
:100280007404120124E0541FF07404120124E05499
:10029000E0F0A8087405120124E0F9E508740512DD
:1002A0000124E508F07406120124E0C2E7F07406A8
:1002B000120124E0549FF07406120124E054E0443B
:1002C00012C0E07406120124D0E0F0740712012479
:1002D000E0543F4440C0E07407120124D0E0F074C1
:1002E00007120124E054CFF07407120124E0C2E3A6
:1002F000F07407120124E0C2E2F07407120124E056
:1003000054FC4402C0E07407120124D0E0F08510D0
:1003100082851183E4E583F582E582F5D585108237
:10032000851183E582F5D475D60175D10075D701A5
:10033000906270E0D2E1F0E5D1A2E050FA75D10010
:10034000906270E0A2E740F8740812010A7F06028A
:10035000019A74F512012EE9FEE5C7F50A53C7F8B4
:100360007F0080338F08750900EC2508F8ED35090A
:10037000F9E4E9F8906272F0EC2F906271F090620B
:1003800073E0C0E08F08750900EA2508F582EB35B7
:1003900009F583D0E0F00FEFC39E40C8850AC77F00
:1003A0000302019A53F1FE43F30C4386C075C5085E
:1003B00075C23BD2AAD2AF020078C082C083801738
:1003C0008A828B83E0F5C18A828B83A3AA82AB8366
:1003D000A2E950FCC2E919E9C3940150E3D083D0EB
:1003E000820200781200B51200D97920900F40E007
:1003F000FCA3E0FD7A207B0F1200CD7AE87B03128C
:1004000000C17920900F40E0FCA3E0FD7A007B0F53
:100410001200D379207A007B0F1200DF80FE800863
:10042000EA24FFFAEB34FFFBEA4B70F40200788019
:1004300014E824FFF8E934FFF9E84970F4EA24FFEE
:10044000FAEB34FFFBEA4B6006784B790280EA0254
:100450000078C082C08353BEFBE59DA2E650FA7AC5
:100460003F7B001200BB53C6F853C6BFE59EA2E611
:0904700040FAD083D0820200782A
:040000050000006097
:00000001FF
