:020000040000FA
:1000000002006000000080FB120090B900030200B3
:100010004AE4900F00782179018002F0A3D8FCD93E
:10002000FA900F20AA82AB83900093782379018005
:1000300015E493A3AC82AD838A828B83F0A3AA825A
:10004000AB838C828D83D8E9D9E77582E77583030A
:1000500074001200727582037583007400120072BE
:1000600075D0007581BF75100075110F759F000266
:100070000008C09FF59FE473D09F22D083D082C038
:100080009FE493C0E0740193C0E0740293F59F2253
:1000900079012248656C6C6F20576F726C64210A7D
:1000A0000000000000000000000000000000000050
:1000B000000000001012007B11040012007B3804C5
:1000C0000012007BDA010012007B16020012007B96
:1000D0004C030012007BA7030012007BBD030060ED
:1000E0000C08C6C313C618C613C6D5E0F4222510E3
:1000F00010AF08F510400215118008F510400215E8
:1001000011D2AF22C0D0251010AF08F51050020553
:10011000118008F51050020511D2AFD0D022251061
:10012000F582E43511F583222510C582C0E0E51182
:1001300034FFC583C0E0E510C3958224F810AF08F2
:100140008583118582108008858311858210D2AF46
:10015000CEF0A3E520F0A37808E608F0A3DEFAEFDE
:10016000F0A3E58124FAF8E608F0A3E608F0A3E698
:1001700008F0A30808E608F0A3E608F0A315811527
:1001800081D0E0FED0E0F8158115811581E8C0E04E
:10019000EEC0E022851183851082E0A3FEE0A3F586
:1001A000207808E0A3F608DFFAE0A3FFE0A3C0E0B0
:1001B000E0A3C0E0E0A3C0E0E0A3C0E0E0A3C0E0B3
:1001C00010AF088582108583118008858210858391
:1001D00011D2AFD083D08202007874F61201288A3F
:1001E000088B09740978081200DFA808A909C2AFB2
:1001F000906270E0A2E740F8E508C333906272F0C5
:10020000906270E0D2E0F0906270E0A2E740F8D235
:10021000AF7F0202019474F212012874F81200EE0A
:10022000EAFEEBFF8C0A8D0B8908AA0AAB0B1200C1
:10023000C1850A0C850B0D740A780C1200DFE50CE1
:10024000906272F07402780A1200DFE50A9062711F
:10025000F0EEF8EFF9E4E9F8851082851183F0EE0D
:10026000C0E0740112011ED0E0F0740212011E748D
:1002700062F0740312011E7473F0740412011EE024
:10028000541FF0740412011EE054E0F0A808740535
:1002900012011EE0F9E508740512011EE508F0746C
:1002A0000612011EE0C2E7F0740612011EE0549F20
:1002B000F0740612011EE054E04412C0E07406120D
:1002C000011ED0E0F0740712011EE0543F4440C00C
:1002D000E0740712011ED0E0F0740712011EE05412
:1002E000CFF0740712011EE0C2E3F0740712011E82
:1002F000E0C2E2F0740712011EE054FC4402C0E0C8
:10030000740712011ED0E0F0851082851183E4E5A8
:1003100083F582E582F5D5851082851183E582F526
:10032000D475D60175D10075D701906270E0D2E125
:10033000F0E5D1A2E050FA75D100906270E0A2E73A
:1003400040F874081201047F0602019474F512014A
:1003500028E9FEE5C7FF53C7F8750A008037850A0C
:1003600008750900EC2508F8ED3509F9E4E9F8907D
:100370006272F0EC250A906271F0906273E0C0E066
:10038000850A08750900EA2508F582EB3509F58329
:10039000D0E0F0050AE50AC39E40C3EEF91200D989
:1003A0008FC77F0302019453F1FE43F30C4386C0D1
:1003B00075C50875C23BD2AAD2AF020078C082C010
:1003C0008380178A828B83E0F5C18A828B83A3AAFC
:1003D00082AB83A2E950FCC2E919E9C3940150E35E
:1003E000D083D0820200781200B51200D379209019
:1003F0000F40E0FCA3E0FD7A207B0F1200C77920BC
:10040000900F40E0FCA3E0FD7A007B0F1200CD804E
:10041000FEC082C08353BEFBE59DA2E650FA7A3F40
:100420007B001200BB53C6F853C6BFE59EA2E64050
:10043000FAD083D0820200788008EA24FFFAEB34F5
:09044000FFFBEA4B70F4020078A6
:040000050000006097
:00000001FF
