:020000040000FA
:1000000002002700000080FB120051B9000302002B
:10001000117582897583007400120033758203752F
:100020008300740012003375D0007581BF759F0086
:10003000020008C09FF59FE473D09F22D083D08236
:10004000C09FE493C0E0740193C0E0740293F59FF5
:100050002279012212003C66000012003C9A000046
:1000600012003CA600008014E824FFF8E934FFF9F0
:10007000E84970F4EA24FFFAEB34FFFBEA4B600630
:10008000784B790280EA02003912005A1200607A35
:10009000DC7B05120054D29080F553F4F843FE0740
:0C00A00075900002003943C908020039C5
:0400000500000027D0
:00000001FF
