:020000040000FA
:1000000002002700000080FB120051B9000302002B
:100010001175826075830074001200337582037558
:100020008300740012003375D0007581BF759F0086
:10003000020008C09FF59FE473D09F22D083D08236
:10004000C09FE493C0E0740193C0E0740293F59FF5
:100050002279012212003C79000012003C85000048
:1000600012005412005AA2C150FC75C000D2F0A276
:100070009030F001B3929080ED53F4F843FE077591
:0E008000900002003943E40D43AF2102003925
:0400000500000027D0
:00000001FF
