:020000040000FA
:030000000200A259
:10006B000201A400000080FB1200D2B900030200C1
:10007B008CE4900F00780279018002F0A3D8FCD9B0
:10008B00FA75823175830274001200B475826E7535
:10009B00830074001200B475D0007581BF75100019
:1000AB0075110F759F00020073C09FF59FE473D00D
:1000BB009F22D083D082C09FE493C0E0740193C091
:1000CB00E0740293F59F227901221200BD390200E0
:1000DB001200BDE001001200BDEC01001200BD0ECC
:1000EB000200C0D02510C582C0E0E51134FFC583E6
:1000FB00C0E0E510C3958224F310AF08858311850A
:10010B0082108008858311858210D2AFC8F0A3E9D5
:10011B00F0A3EAF0A3EBF0A37908E709F0A3D8FA70
:10012B00ECF0A3EDF0A3EEF0A3EFF0A3D0E0F0A37F
:10013B00D0E0F0A3D0E0F0A3E520F0A3E5F0F0A32E
:10014B0022851183851082E0C0E0A3E0F9A3E0FAD9
:10015B00A3E0FBA37808E0F608A3DFFAE0FCA3E03A
:10016B00FDA3E0FEA3E0FFA3E0C0E0A3E0C0E0A39B
:10017B00E0F5D0A3E0F520A3E0A3F5F010AF0885E0
:10018B0083118582108008858311858210D2AFD0B0
:10019B0082D083D0E0F8D0E032C0E074F21200EDF0
:1001AB00E589A2E050257A0A7B001200E7A2805075
:1001BB00FC7A0A7B001200E7900F00E0F4900F002E
:1001CB00F0900F00E0FA79011200E1758900C2C5C9
:1001DB007F0102014C53F4F843FE077590000200B7
:1001EB00BAE914600814600C1460108013EAA2E0E2
:1001FB009290800CEAA2E092918005EAA2E09292A2
:10020B000200BA8014E824FFF8E934FFF9E84970DA
:10021B00F4EA24FFFAEB34FFFBEA4B6006784B79E8
:10022B000280EA0200BA1200DB1200D580FE53F303
:10023B00EC43FDEC438FEC43F7DFD2AFD2BD43ABC6
:07024B0001438C010200BA1F
:04000005000000A255
:00000001FF
