:020000040000FA
:030000000200D12A
:10006B0002036D75827F75830574001200E3120124
:10007B0001B900030200BBE4900F007817790180EF
:10008B0002F0A3D8FCD9FA900F16AA82AB83900189
:10009B0004780479018015E493A3AC82AD838A8242
:1000AB008B83F0A3AA82AB838C828D83D8E9D9E7AB
:1000BB0075820D75830474001200E37582E97583F4
:1000CB000574001200E375D0007581BF75100075C3
:1000DB00110F759F00020079C09FF59FE473D09FAD
:1000EB0022D083D082C09FE493C0E0740193C0E020
:1000FB00740293F59F227901220D0A001200ECA9DC
:10010B0005001200EC1D05001200EC2E050012007C
:10011B00ECD005001200EC5105001200EC5D05005F
:10012B001200EC8F04001200ECB704001200ECDD9F
:10013B0004001200ECF304001200EC6E000012003D
:10014B00ECF70500B90010BB0008E88AF084F8AAA8
:10015B00F022E4FBC8FA22EB70227B10C833C8C92B
:10016B0033C9335007C39AC3DBF280069A50012A76
:10017B00DBEAC833F4C8C933F4C9FA2275F008E4D2
:10018B00C833C8C933C933C99AC99B5004C92AC9D2
:10019B003BD5F0ECFBC833F4C8E4C9FA22251010A8
:1001AB00AF08F510400215118008F510400215112B
:1001BB00D2AF222510C582C0E0E51134FFC583C044
:1001CB00E0E510C3958224F810AF08858311858272
:1001DB00108008858311858210D2AFCEF0A3E52065
:1001EB00F0A37808E608F0A3DEFAEFF0A3E581248C
:1001FB00FAF8E608F0A3E608F0A3E608F0A308086F
:10020B00E608F0A3E608F0A315811581D0E0FED037
:10021B00E0F8158115811581E8C0E0EEC0E022857C
:10022B001183851082E0A3FEE0A3F5207808E0A3FC
:10023B00F608DFFAE0A3FFE0A3C0E0E0A3C0E0E034
:10024B00A3C0E0E0A3C0E0E0A3C0E010AF0885824C
:10025B00108583118008858210858311D2AFD083DE
:10026B00D0820200E9C0D02510C582C0E0E5113470
:10027B00FFC583C0E0E510C3958224F310AF08855A
:10028B0083118582108008858311858210D2AFC8B7
:10029B00F0A3E9F0A3EAF0A3EBF0A37908E709F0E8
:1002AB00A3D8FAECF0A3EDF0A3EEF0A3EFF0A3D0FC
:1002BB00E0F0A3D0E0F0A3D0E0F0A3E520F0A3E5BD
:1002CB00F0F0A322851183851082E0C0E0A3E0F952
:1002DB00A3E0FAA3E0FBA37808E0F608A3DFFAE0BB
:1002EB00FCA3E0FDA3E0FEA3E0FFA3E0C0E0A3E0DE
:1002FB00C0E0A3E0F5D0A3E0F520A3E0A3F5F01058
:10030B00AF08858311858210800885831185821043
:10031B00D2AFD082D083D0E0F8D0E032D083D0827D
:10032B00E9C0E0E493A3C386F0C5F095F0F908E4C7
:10033B0093A386F0C5F095F0700BE493A3C399409B
:10034B0005E9048002A3E475F002A42582F582E599
:10035B00F03583F583D0E0F9E493A3C0E0E493C0D8
:10036B00E022C0E074F2120270E589A2E0400302C1
:10037B0004037E007A0A7B00120113120131900FE5
:10038B0014EAF0A3EBF07E01A28050FC7A0A7B000A
:10039B00120113EE6062900F14E0F8A3E0F97A0AF1
:1003AB007B0012014FEA2430900F02F0900F14E003
:1003BB00F8A3E0F97A0A7B0012014F7A0A7B00124C
:1003CB00014FEA2430900F01F0900F14E0F8A3E0F6
:1003DB00F97A647B0012014F7A0A7B0012014FEA13
:1003EB002430900F00F079037A007B0F12013D79D6
:1003FB00027A167B0F12013D758900C2C57F01027F
:10040B0002CF12010712013712012B12011912012F
:10041B001F80157A0179011201257A0079021201E8
:10042B00257A007903120125900F14E0F8A3E0F967
:10043B007A0A7B0012014FEAF8EBF97A037B001280
:10044B00014F8A088B097808120327000002330436
:10045B001E04610478047A0079011201257A01796E
:10046B00021201257A00790312012580BB7A0079EB
:10047B00011201257A0079021201257A0179031202
:10048B00012580A4C082C0839061A77404F09061A1
:10049B00A7E0A2E440F875E1E253B4F39061B7E052
:1004AB00F5BD43B404D083D0820200E974F6120187
:1004BB00BE43B404A8BD8882758300AA82AB83E4D3
:1004CB00CAFBE5BC7509004AFAE5094BFB7F020242
:1004DB00022A53F1FE43F30C4386C075C50875C25F
:1004EB003BD2AAD2AF0200E9C082C08380178A82B6
:1004FB008B83E0F5C18A828B83A3AA82AB83A2E9AB
:10050B0050FCC2E919E9C3940150E3D083D08202B5
:10051B0000E98008EA24FFFAEB34FFFBEA4B70F4A6
:10052B000200E98014E824FFF8E934FFF9E8497088
:10053B00F4EA24FFFAEB34FFFBEA4B6006784B79C5
:10054B000280EA0200E953F4F843FE0775900002BB
:10055B0000E9E914600814600C1460108013EAA21F
:10056B00E09290800CEAA2E092918005EAA2E092E0
:10057B00920200E974F71201BE74FE1201A8EAFEA2
:10058B00EBFF851082851183EEF0A3EFF0851082CF
:10059B00851183AA82AB83790112014980E4C08261
:1005AB00C08353BEFBE59DA2E650FA7A3F7B001257
:1005BB00010D53C6F853C6BFE59EA2E640FAD083A1
:1005CB00D0820200E953F3EC43FDEC438FEC43F78D
:1005DB00DFD2AFD2BD43AB01438C010200E9C08235
:0F05EB00C083120143D083D0820200E90200E9ED
:04000005000000D126
:00000001FF
