:020000040000FA
:030000000200CB30
:10006B0002034500000080FB1200FBB900030200F5
:10007B00B5E4900F00781779018002F0A3D8FCD972
:10008B00FA900F16AA82AB839000FE780479018058
:10009B0015E493A3AC82AD838A828B83F0A3AA82EF
:1000AB00AB838C828D83D8E9D9E77582E5758303A1
:1000BB0074001200DD75826E75830074001200DD12
:1000CB0075D0007581BF75100075110F759F0002FB
:1000DB000073C09FF59FE473D09F22D083D082C062
:1000EB009FE493C0E0740193C0E0740293F59F22E8
:1000FB007901220D0A001200E65705001200E6F501
:10010B0004001200E60605001200E67E0500120050
:10011B00E62905001200E63505001200E66704002B
:10012B001200E68F04001200E6B504001200E6CBC5
:10013B000400B90010BB0008E88AF084F8AAF0228A
:10014B00E4FBC8FA22EB70227B10C833C8C933C951
:10015B00335007C39AC3DBF280069A50012ADBEABD
:10016B00C833F4C8C933F4C9FA2275F008E4C833AC
:10017B00C8C933C933C99AC99B5004C92AC93BD5CD
:10018B00F0ECFBC833F4C8E4C9FA222510C582C0D1
:10019B00E0E51134FFC583C0E0E510C3958224F878
:1001AB0010AF0885831185821080088583118582A5
:1001BB0010D2AFCEF0A3E520F0A37808E608F0A3A9
:1001CB00DEFAEFF0A3E58124FAF8E608F0A3E608DF
:1001DB00F0A3E608F0A30808E608F0A3E608F0A3EE
:1001EB0015811581D0E0FED0E0F8158115811581C0
:1001FB00E8C0E0EEC0E022851183851082E0A3FE0B
:10020B00E0A3F5207808E0A3F608DFFAE0A3FFE00F
:10021B00A3C0E0E0A3C0E0E0A3C0E0E0A3C0E0E047
:10022B00A3C0E010AF0885821085831180088582FA
:10023B0010858311D2AFD083D0820200E3C0D025CA
:10024B0010C582C0E0E51134FFC583C0E0E510C3E3
:10025B00958224F310AF0885831185821080088561
:10026B008311858210D2AFC8F0A3E9F0A3EAF0A303
:10027B00EBF0A37908E709F0A3D8FAECF0A3EDF0C3
:10028B00A3EEF0A3EFF0A3D0E0F0A3D0E0F0A3D067
:10029B00E0F0A3E520F0A3E5F0F0A3228511838520
:1002AB001082E0C0E0A3E0F9A3E0FAA3E0FBA3789F
:1002BB0008E0F608A3DFFAE0FCA3E0FDA3E0FEA351
:1002CB00E0FFA3E0C0E0A3E0C0E0A3E0F5D0A3E033
:1002DB00F520A3E0A3F5F010AF08858311858210FC
:1002EB008008858311858210D2AFD082D083D0E075
:1002FB00F8D0E032D083D082E9C0E0E493A3C38688
:10030B00F0C5F095F0F908E493A386F0C5F095F0ED
:10031B00700BE493A3C3994005E9048002A3E47531
:10032B00F002A42582F582E5F03583F583D0E0F960
:10033B00E493A3C0E0E493C0E022C0E074F21202A5
:10034B0048E589A2E040030203DB7E007A0A7B00CA
:10035B0012010D12012B900F14EAF0A3EBF07E01AA
:10036B00A28050FC7A0A7B0012010DEE6062900FA6
:10037B0014E0F8A3E0F97A0A7B0012013DEA24307D
:10038B00900F02F0900F14E0F8A3E0F97A0A7B00CB
:10039B0012013D7A0A7B0012013DEA2430900F01D5
:1003AB00F0900F14E0F8A3E0F97A647B0012013DA2
:1003BB007A0A7B0012013DEA2430900F00F079039A
:1003CB007A007B0F12013779027A167B0F120137F5
:1003DB00758900C2C57F010202A71201011201310A
:1003EB0012012512011312011980157A01790112DC
:1003FB00011F7A00790212011F7A00790312011F83
:10040B00900F14E0F8A3E0F97A0A7B0012013DEAA1
:10041B00F8EBF97A037B0012013D8A088B09780807
:10042B001202FF0000020B04F603390450047A0099
:10043B00790112011F7A01790212011F7A007903E7
:10044B0012011F80BB7A00790112011F7A00790219
:10045B0012011F7A01790312011F80A4C082C0838D
:10046B009061A77404F09061A7E0A2E440F875E1F5
:10047B00E253B4F39061B7E0F5BD43B404D083D03D
:10048B00820200E374F612019643B404A8BD88827D
:10049B00758300AA82AB83E4CAFBE5BC7509004AED
:1004AB00FAE5094BFB7F0202020253F1FE43F30C08
:1004BB004386C075C50875C23BD2AAD2AF0200E312
:1004CB00C082C08380178A828B83E0F5C18A828BBE
:1004DB0083A3AA82AB83A2E950FCC2E919E9C394B6
:1004EB000150E3D083D0820200E38008EA24FFFAB4
:1004FB00EB34FFFBEA4B70F40200E38014E824FFBB
:10050B00F8E934FFF9E84970F4EA24FFFAEB34FF19
:10051B00FBEA4B6006784B790280EA0200E353F466
:10052B00F843FE077590000200E3E91460081460BD
:10053B000C1460108013EAA2E09290800CEAA2E007
:10054B0092918005EAA2E092920200E3C082C083FE
:10055B0053BEFBE59DA2E650FA7A3F7B00120107E2
:10056B0053C6F853C6BFE59EA2E640FAD083D082AD
:10057B000200E353F3EC43FDEC438FEC43F7DFD284
:0C058B00AFD2BD43AB01438C010200E382
:04000005000000CB2C
:00000001FF
