:020000040000FA
:1000000002005675826A758302740012006812003D
:1000100086B90003020040900F00AA82AB839000D3
:1000200089780979018015E493A3AC82AD838A8233
:100030008B83F0A3AA82AB838C828D83D8E9D9E726
:100040007582D475830174001200687582A375836C
:1000500002740012006875D0007581BF75100075BC
:10006000110F759F0002000EC09FF59FE473D09F93
:1000700022D083D082C09FE493C0E0740193C0E09B
:10008000740293F59F22790122FFFFFFFF0A00000F
:10009000001200719402001200713C020012007103
:1000A0004802001200719C0100120071030000124E
:1000B0000071B10200E026F608A3E036F608A3E0DE
:1000C00036F608A3E036F622E0FAA3E0FBA3E0FC54
:1000D000A3E0FD22251010AF08F510400215118095
:1000E00008F51040021511D2AF222510C582C0E0DC
:1000F000E51134FFC583C0E0E510C3958224F810F4
:10010000AF08858311858210800885831185821050
:10011000D2AFCEF0A3E520F0A37808E608F0A3DE86
:10012000FAEFF0A3E58124FAF8E608F0A3E608F078
:10013000A3E608F0A30808E608F0A3E608F0A31574
:10014000811581D0E0FED0E0F8158115811581E898
:10015000C0E0EEC0E022851183851082E0A3FEE0BE
:10016000A3F5207808E0A3F608DFFAE0A3FFE0A3F8
:10017000C0E0E0A3C0E0E0A3C0E0E0A3C0E0E0A3F3
:10018000C0E010AF08858210858311800885821039
:10019000858311D2AFD083D08202006E74F4120036
:1001A000EA8A088B098C0A8D0B8014E824FFF8E991
:1001B00034FFF9E84970F4900F0078081200B5E5B3
:1001C000084509450A450B6006784B790280E47FB3
:1001D00004020156120097120091802B900F041216
:1001E00000C81200A3A28050FC900F041200C81295
:1001F00000A37A01790112009D7A01790212009D13
:100200007A01790312009DA28050D1A28140F8901A
:100210000F041200C81200A3A28150FC900F041218
:1002200000C81200A37A00790112009D7A007902B9
:1002300012009D7A00790312009D80CB53F4F8439D
:10024000FE0775900002006EE914600814600C143B
:1002500060108013EAA2E09290800CEAA2E09291F2
:100260008005EAA2E0929202006E74F71200EA742E
:10027000FE1200D4EAFEEBFF851082851183EEF0BA
:10028000A3EFF0851082851183AA82AB83790112D6
:1002900000AF80E453F3EC43FDEC438FEC43F7DF16
:1002A00002006EC082C0831200A9D083D0820200F7
:0402B0006E02006E6C
:0400000500000056A1
:00000001FF
