:020000040000FA
:0300000002007982
:10001300020E217582BB75832F740012008B1200B0
:10002300A9B90003020063E4900F007815790180F9
:1000330002F0A3D8FCD9FA900F14AA82AB839000E4
:10004300AC785879018015E493A3AC82AD838A829E
:100053008B83F0A3AA82AB838C828D83D8E9D9E703
:100063007582F075832E740012008B758260758320
:1000730030740012008B75D0007581BF7510007548
:10008300110F759F00020021C09FF59FE473D09F5D
:1000930022D083D082C09FE493C0E0740193C0E078
:1000A300740293F59F2279012248656C6C6F205787
:1000B3006F726C64210A00000080FF0000807F687B
:1000C3006A6C747A4C006E616E004E414E00696E2C
:1000D3006600494E46003000FFFF000000000000AC
:1000E30000002041010000001C0000009775000083
:1000F300A08601000000803F0A00000020BCBE4C27
:10010300120094E52F001200944F30001200946EF9
:100113003000120094722E00120094882E001200F8
:10012300941600001200947A3000120094FB2D0004
:100133001200942A2F00120094B22E001200949001
:100143002F00120094642D001200940C3000120052
:10015300943130001200946E2C001200942E0E0085
:10016300120094E516001200946B1700120094D449
:100173001700120094151B001200949C1B00120020
:1001830094B62400120094432B001200949F2B007A
:10019300120094EC2B00120094612F00C3E7960821
:1001A30009E7960809E7960809E796A2D265D033CE
:1001B30022C3E09608A3E09608A3E09608A3E0967E
:1001C300A2D265D03322C008C3E096F50808A3E0A5
:1001D30096420808A3E096420808A3E0964208A2C4
:1001E300D265D033E5087001D3D00822080808E6A9
:1001F30030E711120B06120207080808C64480C62E
:1002030018181822181818E9799EC608CAC608CB08
:10021300C608CCC6C370207996CACBCC7019798E28
:10022300CBCC70137986CC700EF9802ACA33CACB33
:1002330033CBCC33CC331930E7F2CCCBCA335014A5
:100243007004EA30E00DE4CA3ACACB3BCBCC3CCCD9
:10025300500209C3E913C6CC182313C6CB18C6CA68
:1002630018C6F9228A088B098C0A8D0B78081202AA
:10027300C630F04312030B803E8A088B098C0A8D2B
:100283000B78081202C620F01430E72B74FFFCFB36
:10029300FA747F8022E4FCFBFA7480801AB480082D
:1002A300BC00F2BB00EF800F50EBF9E4C39AFAE411
:1002B3009BFBE49CFCE499C6CC18C6CB18C6CA18B1
:1002C300C6F922E4C9C608CAC608CBC6D333030895
:1002D300CCC63392F0C3947F402E94184019C9B909
:1002E3000704CACBCC225025C309CA33CACB33CBAC
:1002F300CC33CC33D9F422F4600DC9CCC313CB1364
:10030300CBCA13CAD9F6CC22E4FCFBFA2214FCFBB9
:10031300FA22E6C33318461846184622E7C33319B0
:10032300471947194722181818E6084608700AE6BD
:1003330008C3337005E633F4220822191919E709B3
:100343004709700AE709C3337005E733F42209222A
:10035300E6084608C3134608336002E633F422E78F
:10036300094709C3134709336002E733F422120331
:1003730053601C1203626017120315700712031FE8
:100383007001D322C0D012031F7006D0D0B322C392
:100393002233D0D0501430E0F6C3E7960809E7962D
:1003A3000809E7960809E796B32220E0D5E69708FF
:1003B30009E6970809E6970809E697B3221203535B
:1003C300601B1203626016120315700712031F608D
:1003D3000CB322C0D012031F7005D0D022C3223326
:1003E300D0D0501330E0EBC3E7960809E79608092D
:1003F300E7960809E7962220E0E4E6970809E697DE
:100403000809E6970809E6972200120353604F1282
:1004130003626012E7548066F61203297011120317
:100423001F703B090909F4F618F618F618F622129C
:10043300033E701512031508080860EAE6447FF6C8
:1004430018768018E4F618F62212031560161203C4
:100453001F7012E4F608F608F608E65480F6090958
:100463000918181822EAC0E0EBC0E0ECC0E0EDC0C8
:10047300E0E687F0A4FBACF008E687F0A42CFCE4EC
:1004830035F0FA1809E687F0A42C4B60027401CA10
:1004930035F0FCE433FB09E687F0D2F7A42CCB3527
:1004A300F0FC1908E687F0A42BCC35F0FBE433FD10
:1004B3000819E687F0D2E7A42C4ACB35F0CD3400F7
:1004C300FC09E687F0D2E7A42DCC35F0FDE433FA3E
:1004D3000918E687F0D2F7A42CCD35F0CA3400FC16
:1004E30008E687F0D2E7D2F7A42ACC35F07A7E204B
:1004F300E70B0ACB33CBCD33CDCC33CC33CB33501B
:10050300147004ED30E00ED2F1E4CD3DCDCC3CCC03
:100513003B5005DA05C2F1EB547FC63308E633924C
:10052300F0FBE73309E733C39A502D2B70190C0DF9
:100533004C4D70151806E608C333700D20F10AA25E
:10054300F013F6E418800B4024E4F630F0027680D2
:1005530018F618F618F68024D33B14501074FFA233
:10056300F013F6187680E418F618F6800FA2F0134D
:10057300F618E63303F618ECF618EDF6D0E0FDD0E6
:10058300E0FCD0E0FBD0E0FA2212036260461203E3
:1005930053603DE9687008F618F618F618F62274E9
:1005A3008067F71205C0090909748067F7221203EF
:1005B30053601D1203627005191919801A12032959
:1005C300701F12033EC37003E667331919194007FE
:1005D3001818182208080874FFF618F618F618F603
:1005E3002212033E601712031F702192F0120315AB
:1005F3007019501720F014080808090909E7F618BC
:1006030019E7F61819E7F61819E7F6221203156029
:10061300E6E869701F0808E62480F608E436F61851
:10062300547FB47F0CE654806007F6E418F618F69E
:1006330022181822E9C6CC08C6CD08C6CE08C6CFF4
:10064300C0E0E8C0E0EAC0E0EBC0E009E9F809E790
:10065300FA09E7FBE6F918E6F8C3EC98ED99EE9A88
:10066300EBC2E7F5F0EFC2E795F0500E600CEBCF6D
:10067300FBEACEFAE9CDF9E8CCF8EAA2E7D2E7FA49
:10068300EB33FB13F5F0EEA2E7D2E7FEEF33FFC542
:10069300F013A2E730E601B313C5F0C3C0E0C0F026
:1006A3007F00C39BFB605B9418600C401AD0E0236F
:1006B300F9D0E0F802078F8AF0E9486003D2F0E44A
:1006C300AFF0FAF9F8803BEB30E40D89F0EA600310
:1006D300D2F0E4AFF0F9CAF8EB30E30D88F0EF6045
:1006E30002D2F0AFF0E4CAC9F8EB54076014FBC3BD
:1006F300EA13FAE913F9E813F8EF135002D2E0FF13
:10070300DBEDD0E0C0E030E739C3E49FFFF5F0EC68
:1007130098FC42F0ED99FD42F0EE9AFE42F0D0E0F3
:10072300F9D0E0F8E5F0607AE923F9EE20E742D862
:10073300028067C3EF33FFEC33FCED33FDEE33FE92
:1007430080EAEC28FCED39FDEE3AFED0E023F9D047
:10075300E0F84002801BC3EE13FEED13FDEC13FC27
:10076300EF135002D2E0FF08B800067F7F74FF80CA
:100773002EEF3350178CF020F00260100CBC000CED
:100783000DBD00080EBE000408E860DFE933E8137E
:10079300FFEE2313FE4F4D4C8008E95480FFE4FE27
:1007A300FDFCEE33EF33F47004FCFD7E80D0E0FB00
:1007B300D0E0FAD0E0F8D0E0CFC618CEC618CDC648
:1007C30018CCC6F922120353700418181822120306
:1007D30062700D74FFF61819F61819F61819F62237
:1007E300E7548066F6120315700F12031F70F0149E
:1007F300F608F608F608F680D112031F700CF60807
:10080300F608768008E6447F80EC120341700C12F0
:10081300032C60BFE65480F6E480BB12032C700502
:1008230019191980A5E869700C763F18768018F6B7
:1008330018F6E8F922E6CDC0E018ECC0E0E633CDC7
:1008430033CDD313F6E719FCE7191933CC33C3942B
:100853007F400ECD9D502408E65480F6E418F680C0
:100863000FF4043D14501408E6447FF6187680E430
:1008730018F618F6D0E0FCD0E0FD22CCD313CCFD63
:1008830018E4C6CBC0E018E4C6CAC0E00808ED0807
:10089300C633E613F618E433C675F003C3CA97CA22
:1008A30009CB97CB199C40047D08802EBD00030221
:1008B300097116B6FF050606081618C3CA33CACB54
:1008C30033CB33CA27CA09CB37CB193CC37D088046
:1008D3003E187D0820E75CC633C6CA33CACB33CB88
:1008E30033DDF1D5F0EB30E77BCA97CA09CB974AE2
:1008F300CB199C406F4B7025E620E0218066187D64
:1009030008C3CA97CA09CB97CB199CD3C633C6CAA7
:1009130033CACB33CB3350C9DDE7D5F0E1D3E4C6DB
:1009230036C608C636C608C636C608C636C618183A
:10093300188031C3CA97CA09CB97CB199CB3409788
:10094300C633C6CA33CACB33CB33DD34D5F02EC658
:10095300A2E0C640C8CA27CA09CB37194A70BECB22
:100963003CB480B90808E63308E633601F1818184A
:10097300D0E0FAD0E0FBD0E0FCD0E0FD22187D0807
:10098300CA27CA09CB37CB193CD3808013F618E4A6
:10099300B67F11F618B6FF0EF618C60470D2080813
:1009A300768080CAF618F618F680C5080808EAC0EB
:1009B300E0EBC0E086F0E7A4FA180986F0E7A42A82
:1009C300FA180986F0E7A42AFA180986F0E7A42A98
:1009D300FA1986F0E7A4FBE5F02AFA190886F0E78E
:1009E300A42BFBE5F03AFA190886F0E7A42BFBE504
:1009F300F03AFA18180986F0E7A4C5F02BFBE43A9D
:100A0300FA1908E7C5F0C6A426F6E5F03BFBE43A7D
:100A1300FA1886F0E7A4F6E5F00826F6E43B08F6B4
:100A2300E43A08F6D0E0FBD0E0FA22E4CFC0E0E4F9
:100A3300CEC0E0E4CDC0E0E4CCC0E075F020C3E676
:100A430033F608E633F608E633F608E633F6181805
:100A530018EC33FCED33FDEE33FEEF33FFC3EC97BD
:100A630009ED9709EE9709EF97191919400FFFEC54
:100A730097FC09ED97FD09EE97FE191906D5F0BE0F
:100A8300ECF709EDF709EEF709EFF7191919D0E0BB
:100A9300FCD0E0FDD0E0FED0E0FF22120B091818D5
:100AA30018120A2E120AF519191922120AF5191920
:100AB30019080808E618181820E7E0120A2E120B86
:100AC3000918181822090909E719191920E7DC0878
:100AD3000808E618181820E703020A2E120B091853
:100AE3001818120A2E120B09181818120AF51919D8
:100AF3001922E4C397F709E497F709E497F709E4A0
:100B030097F722181818E4C396F608E496F608E453
:100B130096F608E496F6226017080808C6A2E713BB
:100B2300C618C613C618C613C618C613C6D5E0E939
:100B330022E056F008A3E056F008A3E056F008A31D
:100B4300E056F022E0F608A3E0F608A3E0F608A3D7
:100B5300E0F622E6F008A3E6F008A3E6F008A3E631
:100B6300F022E0FAA3E0FBA3E0FCA3E0FD22EAF01D
:100B7300A3EBF0A3ECF0A3EDF022CAC0E0E6F0A3F0
:100B830008DAFAD0E0FA22CAC0E0E0A3C582CCC5F5
:100B930082C583CDC583F0A3C582CCC582C583CD71
:100BA300C583DAE6D0E0CA22C3E498F8E499F912DF
:100BB3000BEC8026C3E49AFAE49BFBE920E7E912F5
:100BC3000BECE498F8E499F922C3E498F8E499F972
:100BD300120BECE498F8E499F9C3E49AFAE49BFB6A
:100BE30022EB20E7CFE920E7E0B90010BB0008E8DB
:100BF3008AF084F8AAF022E4FBC8FA22EB70227B85
:100C030010C833C8C933C9335007C39AC3DBF28052
:100C1300069A50012ADBEAC833F4C8C933F4C9FA87
:100C23002275F008E4C833C8C933C933C99AC99BCC
:100C33005004C92AC93BD5F0ECFBC833F4C8E4C956
:100C4300FA22600D08C6A2E713C618C613C6D5E07C
:100C5300F322600C08C6C313C618C613C6D5E0F446
:100C630022700422600D18C6C333C608C633C6D526
:100C7300E0F41822251010AF08F51040021511807A
:100C830008F51040021511D2AF22C0D0251010AFC5
:100C930008F510500205118008F51050020511D215
:100CA300AFD0D0222510F58210AF08F51040021501
:100CB300118008F51040021511D2AF85118322254A
:100CC30010F582E43511F58322E4732510C582C043
:100CD300E0E51134FFC583C0E0E510C3958224F835
:100CE30010AF088583118582108008858311858262
:100CF30010D2AFCEF0A3E520F0A37808E608F0A366
:100D0300DEFAEFF0A3E58124FAF8E608F0A3E6089B
:100D1300F0A3E608F0A30808E608F0A3E608F0A3AA
:100D230015811581D0E0FED0E0F81581158115817C
:100D3300E8C0E0EEC0E022851183851082E0A3FEC7
:100D4300E0A3F5207808E0A3F608DFFAE0A3FFE0CC
:100D5300A3C0E0E0A3C0E0E0A3C0E0E0A3C0E0E004
:100D6300A3C0E010AF0885821085831180088582B7
:100D730010858311D2AFD083D08202009174028098
:100D830000C0E0F404120CA7D0E0120B7D2274041F
:100D9300800474028000CCC0E0EDC0E0E510C39C89
:100DA300CCAD1150011D10AF068C108D1180068C37
:100DB300108D11D2AF120B8AD0E0FDD0E0FC22D00F
:100DC30083D082CCC0E0E493A36006120DEC1470D0
:100DD300FAE493A36006120E0B1470FAD0E0FCE45D
:100DE30093A3C0E0E493C0E022C0E0E493A3D39CC8
:100DF3005010E493A3C39C400AD0E0D0E0D0E002BB
:100E03000DDFA3A3A3D0E022C0E0E493A36C700999
:100E1300D0E0D0E0D0E0020DDFA3A3D0E022C0D029
:100E2300C28BA2E950FCC2E9D0D03274F1120CCECD
:100E330074A3120C77746C120CC2E0F50CA3E0F5EA
:100E43000D746E120CC2122A237404120CC2121BEC
:100E5300967406120CC2ECF0A3EDF07418120CC2D7
:100E6300E4F0A3F0800D850C82850D83A385820CAD
:100E730085830D850C82850D83E0F9701274181239
:100E83000CC2122421745D120C8D7F07020D3A747B
:100E930025697038740C120CC2E4F0A3F0740E12BE
:100EA3000CC2E4F0A3F07410120CC2E4F0A3F074CB
:100EB30012120CC2E4F0A3F07414120CC2E4F0A3F7
:100EC300F07416120CC2E4F0A3F0801D8510828525
:100ED3001183AA82AB83120187C3EB1223E85086E6
:100EE3007AFF7BFF809F740148F8850C82850D8310
:100EF300A385820C85830DE0FA24E060E924FD607C
:100F03001624F8600A24FE600A24FD600E80107423
:100F13000280D5740480D1740880CD741080C974A4
:100F23002A6A703B12164F741C120CC21216677495
:100F33001C120CC2121AFDC31223E85013C3E49C03
:100F4300FAE49DFB741C120CC2121B96740448F83D
:100F5300850C82850D83A385820C85830D80377470
:100F63001C120CC2E4F0A3F08027741C120CC212F2
:100F730016217003747F6B600B1215F5741C120C31
:100F8300C2121B96850C82850D83A385820C8583F3
:100F93000D12162840D4850C82850D83E0642E60E3
:100FA3000C741A120CC274FFF0A3F0805DA3858247
:100FB3000C85830DE0642A701A12164F741A120CF2
:100FC300C2121667850C82850D83A385820C8583E7
:100FD3000D8037741A120CC2E4F0A3F08027741A40
:100FE300120CC21216217003747F6B600B1215F57D
:100FF300741A120CC2121B96850C82850D83A3856D
:10100300820C85830D12162840D4741E120CC2E87C
:10101300121AD3850C82850D83E0FC7D007A2A7B2E
:101023000F12014B8B09EA45096011850C82850D6E
:1010330083E0F8A385820C85830D800278007420F9
:10104300120CC2E8F0FA850C82850D83A3A882A94D
:101053008374686A7014850C82850D83E0646870FC
:10106300257420120CC274628017746C6A70178521
:101073000C82850D83E0646C700C7420120CC274B6
:1010830071F0880C890D7421120CC2A882A9837493
:101093000A120CC21223F6850C82850D83E0F50E2D
:1010A300120DC20245470212656702120D25D910BF
:1010B3004102125896126102126318146484136970
:1010C30084136EA3116F9612705C1173EA107596F8
:1010D300127896123A14740C120CC21216DF120C08
:1010E300C21215EF0214638E828F83121AEC7408F6
:1010F300120CC2E8F0A3E91216607408120CC212B3
:101103002421741A120CC2E0F508A3E0F509C312F6
:1011130023E8500D1201518A088B09A808A90980F8
:101123002C7808120D807C007D00120133740212AA
:101133000C8DEA4B600D7408120CC2121614F8EBF6
:10114300998009741A120CC2E0F8A3E0F9740E1224
:101153000CC2E8F0A3E902146C8E828F83122A7CFE
:10116300121B96A3E4F0A3121660900F43780812A3
:101173000B478510828511837808120B3474211272
:101183000CC2A882A9837408120CC21223F67978C0
:10119300851082851183AA82AB8312016F02146DBD
:1011A3007420120CC2E0249E603F24FA601024FED7
:1011B300602324FE601F24FB602524F7600D741850
:1011C300120CC212169612163980877418120CC2AA
:1011D30012169680F17418120CC21216A880E774C6
:1011E30018120CC21216A880DD7418120CC2E0C0CB
:1011F300E08E828F83122A3B12245BD0E080C77477
:1012030020120CC2E0644C121656120B478E828FCA
:1012130083E02404F8121687120B567402120CC2D0
:10122300A3E054806010740C120CC21216DF120C6F
:10123300C21215E9802E741E120CC2E0F85402602B
:1012430010740C120CC21216DF120CC21215E380BA
:1012530013E8A2E05017740C120CC21216DF120C22
:10126300C21215DDF0740C120CC2122B9B740C12FB
:101273000CC21216DF120CC21215CC120CC21223AE
:10128300F6A90E851082851183AA82AB8312017B96
:1012930002146D7420120CC2E0F8746C6860277439
:1012A30071686022746A68601D8E828F83122A3B84
:1012B300F508A3E0F509E4F50AF50B8E828F83E0C8
:1012C30024020808800E121656120B478E828F8353
:1012D300E02404F8121687120B56851082851183B9
:1012E3007808120B47750A00750B007420120CC2A4
:1012F300E0F8746868602B746268701C85108285DE
:1013030011837808120B47851082851183E5081233
:101313001AD3A3F0A3F080157474686005747A6817
:10132300700B8510828511837808120B56741E1278
:101333000CC2E0540870030213FF851082851183E9
:101343007808120B47121ACA70030213FF74204560
:101353000E647860030213FF740C120CC21216DFC2
:10136300120CC21215BD7430F0740C120CC2122B85
:101373009B740C120CC21216DF120CC21215D7800A
:1013830072EEFAEFFB7420120CC2E0F912016385CE
:101393001082851183120B71851082851183C0829F
:1013A300C083900F477808120B47D083D082780808
:1013B3001201B45010740C120CC21216DF120CC2BC
:1013C3001215E9802E741E120CC2E0F8540260104C
:1013D300740C120CC21216DF120CC21215E3801326
:1013E300E8A2E05017740C120CC21216DF120CC2E2
:1013F3001215DDF0740C120CC2122B9B740C120C20
:10140300C21216DF120CC21215CC120CC21223F632
:10141300A90E0211938E828F83122A3BC0E0740CB3
:10142300120CC21216DF120CC21215BDD0E0121636
:1014330039E8F0A3E98029740C120CC21216DF12EA
:101443000CC21215EFF0740C120CC2122B9BE50E9A
:101453006018740C120CC21216DF120CC21215D7CC
:10146300F0740C120CC2122406F0850C82850D83D5
:10147300A385820C85830D741C120CC2C082C083A9
:10148300740C120CC2122417D083D082E0C398FAD2
:10149300A3E099FB7412120CC21216A0740E120C64
:1014A300C21216A07414120CC21216A07410120CDD
:1014B300C21216A07416120CC2121614F508EB9978
:1014C300F509741E120CC2E05404700E7920AC08A6
:1014D300AD091216CC7003020EE3740C120CC21287
:1014E3000D957423120CC2AC82AD837402120CC22C
:1014F3001215B3120C8D8B0BEA450B6003020EE33E
:1015030079307412120CC21216C37003020EE37404
:101513000E120CC2120D95740A120CC2121AFD742B
:1015230002120CC21215B3120C8D8B0BEA450B6021
:1015330003020EE379307414120CC21216C3700343
:10154300020EE37410120CC2120D957410120CC229
:10155300122417740A120CC2E028FCA3E039FD74AC
:1015630002120CC21215B3120C8D8B0BEA450B60E1
:1015730003020EE379307416120CC21216C3700301
:10158300020EE3741E120CC2E054047003020E76C2
:101593007920AC08AD09851082851183AA82AB83BB
:1015A3001201698B09EA45096003020E76020EE314
:1015B300AA82AB8312018D7402221215C122E58225
:1015C30028F582E58339F58322E58228F8E5833916
:1015D300F97408221215C1E50E221215C1742022D6
:1015E3001215C1742B221215C1742D221215C17448
:1015F3002522EA75F00AA4FAACF075F00AEBA42CE4
:10160300FBE5082AFAE43BFBEA24D0FAEB34FFFBC0
:101613002212161822E0F8A3E0F9EAC39822122A4C
:101623004B74FF6A22850C82850D83E0F50874D024
:101633002508C3940A2212163D2212167EF81216AA
:101643004522A3E03400F98E828F8322122B3212BB
:101653002A4B228E828F83122A5178082212163D3A
:10166300122B0622EAF0A3EB12167EFAA3E0340053
:10167300FB8E828F83EAF0A3EBF022F08E828F83BE
:10168300E0240222121645122B068510828511834F
:1016930078082212241B122B32122A2D221216181A
:1016A300FAEB99FB22122A4B3395E0FC8E828F834F
:1016B300122A3F122A56EAF0A3EBF0A3ECF0A3227E
:1016C300E0FCA3E0FD1216CC22851082851183AACB
:1016D30082AB831201698B0BEA450B2212241B7424
:1016E300212274F6120CCEE9249E603C24FA604158
:1016F30024FE601224FE600E24FB600A24FD603188
:1017030024FA6010802B122413E8240412174412C5
:101713000B658028122413E82402121744E0F5080D
:10172300A3E0AA08FBE4801212175B3395E0FB8069
:101733000912175BA3E0FB3395E0FCFD7F02020D6A
:101743003A12174822FCE93400FD8A828B83ECF0BD
:10175300A3EDF088828983228A828B8312241BE87B
:101763002402121748E0FA2274F2120CCE74FF120C
:101773000C77E9851082851183F08A0A8B0B8C081C
:101783008D097E007F008008EE24010EEF3400FFF8
:10179300C3EE9508EF1229D75029750C01750D007A
:1017A300780C120D807402120CC2AC82AD83AA0AAB
:1017B300AB0B1215B7120C8D8B0DEA450D60C97A70
:1017C3000080027A017B007401120C8D7F06020DEA
:1017D3003A74F0120CCE74ED120C777403120CC22F
:1017E300121B96E9851082851183F07403120CC2D3
:1017F30012245AA3A3A3A3A3A3A3A3A3A3122417AB
:101803007409120CC21223F6851082851183E064D9
:101813006F70097405120CC274088017E0442064C9
:101823007860097405120CC2740A80077405120CDF
:10183300C27410121AD304120CC2743C121AD37459
:1018430003120CC212165A120B47740B120CC278F5
:1018530008120B56851082851183E064646005E0ED
:1018630064697023900F4778081201C94019740BFB
:10187300120CC27808120B477808120B09740B126A
:101883000CC27808120B567403120CC212245F7434
:1018930011120CC2122A03120CC21224357407123D
:1018A3000CC2122A03120CC2E0241A122438740F39
:1018B300120CC21223F6740B120CC27808120B47D7
:1018C300121ACA703E740F120CC2121AECE8497055
:1018D300327405120CC2E0640860030219D5740760
:1018E300120CC2122B2170030219D57401120CC2FF
:1018F300743B121AD37409120CC2E0243B12244520
:101903000219D27401120CC2E024FFFAA3E034FFDF
:10191300FB7401120CC2121B96740B120CC2780CCE
:10192300120B477405120CC2121B03120A2EE50890
:101933002430F8C3943A400B851082851183E02448
:10194300AF28F87409120CC2E02AFAA3E03BFBE8C3
:101953008A828B83F0740B120CC2780C120B4774BF
:1019630005120CC2121B03120A2E740B120CC2783E
:101973000C120B56740B120CC27808120B47121A76
:10198300CA60177411120CC212245AEAF8EBF9C395
:10199300E098A3E09950030219067405120CC2E003
:1019A3006408702E7407120CC2122B2160248A82E1
:1019B3008B83E06430601B7401120CC212247C74AC
:1019C30001120CC21224177409120CC2122471746E
:1019D30030F07401120CC2122417743CC398F8E45B
:1019E30099F97403120CC2E0240E122A091223F689
:1019F3007401120CC21224217409120CC2E02AFAD7
:101A0300A3E03BFB7411120CC2121AE3121B96746F
:101A13000F120CC2122A14121AFD7403120CC2E024
:101A23002412FAA3E03400FBC3E89CE99DA2D2652B
:101A3300D033501AECC398F8ED99F98A828B83124C
:101A430023F67407120CC2122A3B54EF8073C3EDC2
:101A53001223E8506D7407120CC2121AE3E05414F7
:101A63006410705E7403120CC2E0241C121AD8C0F6
:101A730082C0837403120CC2E0240C121AD8121A07
:101A8300FDD083D082E0C39CFEA3E09DFF8A828BBE
:101A930083121AFDEEC39CFCEF9DFDECC398F8ED99
:101AA30099F97401120CC21223F67401120CC212BA
:101AB3001B0B400E7401120CC2E08A828B83F0A3CD
:101AC300E9F074130223BAE5084509450A450B22D8
:101AD300F0A3E4F022FCA3E03400FD8C828D83228A
:101AE300E0FCA3E0F5838C8222121AF022121AF48E
:101AF30022122A55E0F8A3E0F922E0FCA3E0FD223C
:101B03001223C2780C790822C3E09401A3E01224C3
:101B13009C2274F0120CCE74FC120C778510828513
:101B23001183121B96A3ECF0A3EDF07414120CC2F4
:101B3300122421900F4B780C120B478044EAA2E049
:101B4300501D8510828511837808120B4778087918
:101B53000C12040C8510828511837808120B568AA7
:101B6300088B0974017808120C45AA08AB09850C87
:101B730008850D09850E0A850F0B780C7908120468
:101B83000CEA4B70B8851082851183120B657404BF
:101B93000223BAEAF0A3EBF02274F0120CCE74BE67
:101BA300120C77740E120CC2121B967407120CC21D
:101BB300E9F0741A120CC21223EC740E120CC21246
:101BC300245A120B657408120CC2120B71740E1294
:101BD3000CC2E0241A122438740C120CC21223F61D
:101BE3007407120CC2E04420C0E07404120CC2D08B
:101BF300E0F064616031740C120CC2122494500C36
:101C0300740C120CC212245A74068018E849701717
:101C13007404120CC2E06467700D740C120CC212CF
:101C2300245A7401121AD3740E120CC2121AFD74C0
:101C330005120CC2AA82AB831201938A088B09AEE8
:101C430008AF09EEFCEFFD740E120CC212245FE81C
:101C5300FAE9FB7407120CC2E0249FF508740E1214
:101C63000CC2E0240E12244574026E7001EF70273B
:101C73001223FA50067C317D0F80047C357D0F756D
:101C830008037509007808120D808A828B83122A53
:101C930073120C8D0223B8C3EC9401ED1223E840B8
:101CA300111223FA50067C397D0F80D37C3D7D0FC2
:101CB30080CD7404120CC2E0646170488A828B8305
:101CC30012245A7430F08A828B8312248A88828980
:101CD30083A3AE82AF838A828B83EEF0A3EFF0748B
:101CE30007120CC2E064617004747880027458882F
:101CF300828983F0740E120CC21224692402F0A3A9
:101D0300E03400F0EC4D70147402120CC2E4F0A342
:101D1300F07405120CC2E4F0A3022388741B120CA6
:101D2300C2A882A9837418120CC21223F674041277
:101D33000CC2E06461600302206D740C120CC212C9
:101D43002494500C7402120CC27421F0A3E4801189
:101D5300E8240108E93400F97402120CC2E8F0A384
:101D6300E9F07402120CC212248A7410120CC2120B
:101D730023F6740E120CC212245A120B657412123B
:101D83000CC2120B717408120CC27808120B479024
:101D93000F47780C120B477808790C1203C07412A2
:101DA300501A120CC27808120B47E50BB2E7F50B79
:101DB3007408120CC27808120B56800E120CC21251
:101DC3000B657408120CC2120B717405120CC2E07D
:101DD30024FC122483741A120CC2E4F0741B120C38
:101DE300C2A882A983800524071224381223F07421
:101DF30010120CC2121B0B5003021F0E7408120C9C
:101E0300C27808120B47900F4F780C120B477808D3
:101E1300790C1203714003021F0E900F53120D91A0
:101E2300740C120CC2AA82AB831201577404120CF5
:101E33008D7408120CC2120B6512027C7412120C00
:101E4300C27808120B567410120CC2E024F9122443
:101E5300837410120CC2121B0B402A7408120CC29A
:101E63007808120B477412120CC2780C120B4778C5
:101E73000C1201EF7808790C12058C7408120CC24D
:101E83007808120B56851082851183E02407122AE5
:101E9300F67A077B0080341224A47412120CC278E1
:101EA30008120B47E508540FC0E0122454D0E0F0A9
:101EB3007412120CC27808120B4774047808120BC0
:101EC3001A7412120CC27808120B567412120CC236
:101ED300C082C083900F4F7808120B47D083D08203
:101EE30078081201B440081223D11223E850A81233
:101EF30023D11223E8851082851183E05003021D4C
:101F0300EA1224AB122454E4F080E4851082851194
:101F130083C082C0837418120CC2122417D083D0DA
:101F230082E0C398F8A3E099F97410120CC212234B
:101F3300F6741B120CC21223EC7410120CC2C08272
:101F4300C0837402120CC2122417D083D0821224CD
:101F53002550107410120CC21224177402120CC2F2
:101F63001223F67402120CC2C3121B0F5003022079
:101F7300437402120CC2C082C0837410120CC212CA
:101F83002417D083D08212242550197402120CC254
:101F9300122417741A120CC21223DBC394084004D0
:101FA3007A0F80027A007402120CC212241780087E
:101FB3007402120CC212247CE824FF18E934FFF9DE
:101FC300741A120CC21223DB6A60E5740F6A700381
:101FD300E004F0C3E91223E85024741A120CC2A8D7
:101FE30082A9838510828511831229EC120CC212F7
:101FF300243F120CC2E02404F0A3E03400F0740286
:10200300120CC2122417802A851082851183E028BE
:10201300FAA3E039FB8A828B83E02430FCC3943A31
:10202300400A7407120CC2E024C62CFCEC8A828B93
:1020330083F0E824FF18E934FFF9C31223E850C8FA
:10204300740C120CC212245AC3121B0F4003022336
:10205300897402120CC2E024FFF8A3E034FFF97480
:102063000C120CC2122A290223887408120CC2789B
:1020730008120B47900F47780C120B477808790C1E
:102083001203C0501A7408120CC27808120B47E5E9
:102093000BB2E7F50B7408120CC27808120B5674D6
:1020A30005120CC21223C2900F57780C120B4778FB
:1020B30008790C1209AE900F5B780C120B47780865
:1020C300790C120AC87405120CC2E508F0A3E509DD
:1020D300F07405120CC21224177407C398F508E4B0
:1020E30099F5091223E1401F7808120D80740A1232
:1020F3000CC2120B651201757402120C8D74081256
:102103000CC2120B7180417408120CC2780C120BB2
:1021130047C3E49508F50AE49509F50B780A120D0F
:1021230080900F5F120B651201757402120C8D8A79
:10213300088B098C0A8D0B780C79081207C8740870
:10214300120CC2780C120B567404120CC2E06466B3
:10215300700D7405120CC2E0240A1224388004782E
:10216300067900740C120CC2122A6DFEA3E039FF2B
:10217300C3EE940BEF1223E840047E0A7F00741A27
:10218300120CC27430F0741B120CC21223ECC3EE97
:102193009401EF1223E850030222747408120CC254
:1021A300120B651202677412120CC27808120B56D6
:1021B300122AED7417120CC27408F07412120CC2B6
:1021C300780C120B47900F637808120B47780C7941
:1021D30008120A2E7416120CC2E508F07412120CBF
:1021E300C2780C120B47900F637808120B47780CD8
:1021F3007908120A2E7412120CC2780C120B5612A2
:1022030024A47416120CC2E02430C0E0122454D06B
:10221300E0F07417120CC2E014F0709F122AEDEE76
:1022230024F8FEEF34FFFFC3EE9401EF1223E850CE
:10223300030221917408120CC2780C120B47740824
:10224300120CC2120B65120267780812020A780C8C
:10225300790812058C900F677808120B47780C7970
:102263000812040C7408120CC2780C120B560221CB
:102273009E851082851183C082C0837418120CC29C
:10228300122417D083D082E0C398FEA3E099FF7491
:102293001B120CC2A882A9838019EE24FF1EEF34FF
:1022A300FFFF7405120CC212247C851082851183F2
:1022B30012248A1223F0122A35643060DD7404126A
:1022C3000CC2E06466700A7405120CC212248A8080
:1022D3000DE0646570047801800278007900740C65
:1022E300120CC2122B277402120CC21229EC120C0C
:1022F300C2E0F8C3EE98EF12242E5005EEF0A3EFE0
:10230300F07402120CC2C3121B0F407A7402120C37
:10231300C2C3E09EA3E09FA2D265D03350167402DD
:10232300120CC2E0122A18122471E0C3943540043F
:102333007C3980027C307402120CC2122421800882
:102343007402120CC212247CEA24FF1AEB34FFFB42
:10235300851082851183E02AF8A3E03BF9888289FE
:1023630083E06C60DB74396C7003E004F0C3EB1240
:1023730023E850121224A47402120CC212243F1236
:102383000CC2122406F07405120CC2120D957404CB
:10239300120CC2120D957404120CC2121AFD740BA6
:1023A300120CC2E0F97412120CC212242112018120
:1023B3007404120C8D7442120C8D7F08020D3AE0E6
:1023C300F508A3E0F5093395E0F50AF50B22EA24B5
:1023D300FF1AEB34FFFBC3221215C1A3E022C3E5AE
:1023E300089401E50912249C22A882A983851082FE
:1023F300851183122B06227403F0A3E4F0E508C3CE
:10240300941A2212240A22E02401F0A3E0340022C9
:102413008A828B8312241B22E0F8A3E0F922122A7A
:102423004B22C3E098A3E012242E2299A2D265D0B6
:102433003322E0241EF8A3E03400F922122AE874C0
:10244300052212244922F8A3E03400F98882898303
:1024530022851082851183E0122A5622E02408F88F
:10246300A3E03400F922E0240C122449E022E028FE
:10247300FAA3E0398A82F58322E024FF122483221F
:10248300F0A3E034FFF022E02401F8A3E03400F9E4
:1024930022121AF0C312249C229400A2D265D033D4
:1024A30022851082851183E024FFF8A3E034FF1214
:1024B3002AFF2274F0120CCE74E1120C777403120B
:1024C3000CC2121B967402120CC2E9F08C0A8D0B1B
:1024D300742F120CC2E0F50CA3E0F50D7431120C4D
:1024E300C2122A237403120CC2E0241A12246CF5BC
:1024F30008A3E0F509C3E50C9401E50D1223E850A8
:102503000C750C01750D00750A41750B0F740312E0
:102513000CC2E02416122438740F120CC2122A03C0
:10252300120CC2E02410122438740B120CC2122AAB
:1025330003120CC2E024141224387409120CC212C0
:102543002A03120CC2E0240E122AF67403120CC2E0
:1025530012245F7407120CC2122A03120CC2122433
:10256300357405120CC21229EC120CC2E04420F897
:1025730074666860267467686003022794C3EE94E8
:10258300FCEF94FFA2D265D033500302279DC3EE24
:102593009508EF1229D7400302279DEE24010EEF81
:1025A3003400FF746668602C7405120CC2122B2170
:1025B300700B1229D05006850C08850D09C3E50858
:1025C3009EF508E5099FF509C31223E8500675082F
:1025D300007509007407120CC2122A7C122A63F8D0
:1025E300EB39F9740D120CC21223F6C3EE9401EF0A
:1025F3001223E84003022693740D120CC212245ACC
:102603007430122B0C500A7405120CC2122B216069
:1026130010851082851183122A63F582EB39122A01
:10262300D6C3E49EF8E49FF9C3E50898E5091224AC
:102633002E5009C3E49508FEE49509FFC3E49EFC0C
:10264300E49FFD7409120CC212245AECF0A3EDF0BE
:10265300E5082EF508E5093FF5091229B45006856A
:10266300080C85090D740B120CC212245AE50CF0E8
:10267300A3E50DF0780C120D80AC0AAD0B740212B9
:102683000CC2122A96120C8D122ACA740F02294503
:10269300C3E50C9EE50D9FA2D265D0335062780C42
:1026A300120D80AC0AAD0B740F120CC2122A7312F6
:1026B3000C8D122A35122AC1EEC3950CF8EF950D35
:1026C300F97409120CC2122A5E1223E1500A74052E
:1026D300120CC2122B216017122AA3120CC2122A47
:1026E30014122471742EF0740B120CC2122AE174AA
:1026F3000F120CC212245AE508F0A3E50902294B74
:102703008E0E8F0F780E120D80AC0AAD0B740F1264
:102713000CC2122A73120C8D122A352EF0A3E03F3D
:10272300F0C3E50C9EF50CE50D9FF50D1223E1506A
:102733000A7405120CC2122B21601B8510828511AD
:1027430083122A447407120CC2122A3B2AF8A3E00C
:102753003B8882122AD61229B4500685080C8509B3
:102763000D780C120D80E50A2EFCE50B3FFD74027B
:10277300120CC2121AEC7409120CC2122A6DFAA3BB
:10278300E039FB1201397402120C8D122AAF0229AF
:1027930045E06461703A7470803D1229D050107422
:1027A30005120CC2122B217006850C08850D091227
:1027B30029C3C31223E85006750800750900740283
:1027C300120CC2E0646770047465800B7445800763
:1027D300E0644170037450F07407120CC2122A446F
:1027E300850A82850B83E0C0E0122A86D0E0F0855B
:1027F3000A82850B83A385820A85830B122B0D50D6
:102803000A7405120CC2122B21603E122A86742E02
:10281300122B0C4034E50C24FFF50CE50D34FFF5C9
:102823000D1229B4500685080C85090D780C120D7C
:1028330080AC0AAD0B7402120CC2122A96120C8DD4
:10284300122AAF120CC2122A5E122AA3120CC2124F
:102853002A6DF50AA3E039F50B7402120CC2E08568
:102863000A82850B831229FAA3A882A983C3EF12D4
:1028730023E8850A82850B834009742BF0880A8933
:102883000B8012742DF0880A890BC3E49EF8E49F31
:10289300F9E8FEE9FF750800750900804774111215
:1028A3000CC285820C85830D780C120D807C0A7D09
:1028B30000EEFAEFFB12012D7402120C8D74131249
:1028C3000CC2E0C0E07415120CC21229DFD0E0F094
:1028D3007411120CC2122A23E5082401F508E50934
:1028E3003400F509C3EE9401EF1223E850AFC3E5BA
:1028F3000894021223E6500F7402120CC2E0442023
:10290300646570031229F2E5084509701C1229F267
:10291300801C1229C37415120CC21229DFE0243063
:10292300850A82850B831229FA1223E150E4122AC5
:10293300A3120CC2122B27E50AC398F8E50B99F9E9
:10294300740B120CC2122A29F07405120CC2122A3B
:102953003B5414641070557403120CC21224691290
:102963002A18122B277409120CC2122B27740B126C
:102973000CC2122B27740F120CC2122B27740312D2
:102983000CC2E0241C122A09122421C3E89AE99BF1
:10299300A2D265D0335015EAC398FAEB99FB7403BE
:1029A300120CC2E02412122445121B96741F022338
:1029B300BAC3E508950CE509950DA2D265D033227B
:1029C300E50824FFF508E50934FFF50922C3E50C02
:1029D3009508E50D9509A2D265D03322E582250835
:1029E300F582E5833509F58322122B0674022285CD
:1029F3000A82850B837430F0A385820A85830B22B8
:102A0300122B06740322FAA3E03400FB8A828B8321
:102A130022122B3622F8A3E0F98510828511832236
:102A2300E0FEA3E0FF22122A2D22122B3AE8F0A3A4
:102A3300E922851082851183122A3F22122A51E04E
:102A430022122A4822122A51E0FAA3E0FB22122A78
:102A53005522E0F8A3E0F583888222122A2DF02282
:102A6300122A6722121AF4EA2822122B36E02822AD
:102A7300122A4B120139740222122A4885108285C8
:102A8300118322851082851183122A67F582EB391F
:102A9300F58322122A67FAEB39FB120139740222F9
:102AA300851082851183121AF0740722851082859E
:102AB3001183122A3F122AC1122ACA740922250C31
:102AC300F0A3E0350DF022E508C3950CF8E5099570
:102AD3000DF922F583742EF0851082851183122A55
:102AE300E522122A5112240AF022851082851183CD
:102AF300E02408F8A3E03400122AFF22F9851082AB
:102B0300851183E8F0A3E9F022F085108285118313
:102B1300122AE5C3E5089401E50912249C22122A2E
:102B23003F540822122B36E028F8A3E039F9228E0D
:102B3300828F83122B3A22E0FAA3E0F5838A822262
:102B430074F2120CCEEAFEEBFFEE2406F508EF3426
:102B530000F509850882F5831224218E828F83A3D1
:102B6300A3A3A312245A120CCC8A0C8B0DA80CA974
:102B73000D8508828509831223F6E8496013EE2444
:102B830018F582EF3400F583122B9B7A007B0080CB
:102B9300047AFF7BFF0217CF122AE82274F2120C89
:102BA300CE8A0A8B0B8C088D09740E120CC2122A62
:102BB300237A007B008015850882850983A385829B
:102BC30008858309EE24FF1EEF34FFFFEE4F6016E6
:102BD300850882850983E0F9AA0AAB0B120187C332
:102BE300EB1223E850D10217CF74F6120CCEEC246B
:102BF30002ED34000C0CFD8C828D83E0F508A3E01C
:102C0300F50974077808120C55E508F8F4701B8A67
:102C1300828B83E4F0A3F08C828D83E0547F600683
:102C23007A027B0080407A0180F8E8602F8C828DE5
:102C330083E0547FFEA3E05480443FFF8C828D8366
:102C4300EEF0A3EFF0E82482F8E434FFF98A828BF4
:102C530083E8F0A3E9F07AFF7BFF800A8A828B8303
:102C6300E4F0A3F0FAFB7F02020D3A74F0120CCEEB
:102C7300EAFEEBFF7410120CC27808120B47EE2425
:102C830002FCEF3400FD8C828D83E0F50CA3E0F5AC
:102C93000D7407780C120C55E50CFAF470148C8241
:102CA3008D83E0547F60047A0280027A017B000204
:102CB3002D5FEA70047A0080F4900F4F78081201B8
:102CC300C9503A74FFC39AF50C95E0F50DE4F50E7F
:102CD300F50F780C790812019F40228C828D83A313
:102CE300E054806005900F228003900F267808122D
:102CF3000B478E828F837808120B5680AEC3E49AFB
:102D0300F50C95E0F50D95E0F50EF50F7808790CC7
:102D130012019F8C828D835032E0547FFEA3E054D6
:102D230080FFE5082AF508E5093400F509740778FA
:102D330008120C64EE4508F8EF4509F98C828D837F
:102D4300E8F0A3E9F07AFF7BFF8011E4F0A3E054FD
:102D530080F08E828F83E4F0A3F0FAFB7F08020DEC
:102D63003A74F6120CCE74FC120C77EAFEEBFF7485
:102D73000E120CC2A882A9837402120CC2E8F0A33B
:102D8300E9F0851082851183EEF0A3EFF07402124F
:102D93000CC28582088583097808120D808C088D02
:102DA300097808120D807404120CC2AC82AD837AC8
:102DB300997B0112015D7404120C8D8A08851082BF
:102DC300851183E0FAA3E0F5838A82E4F0C3EB94F0
:102DD30000A2D265D0335004AA08801285108285E0
:102DE3001183E0F8A3E0F9E8C39EFAE99FFB7404BA
:102DF300120C8D7F02020D3A74F4120CCE74FC1285
:102E03000C77EAFEEBFF7410120CC2E0F508A3E0A6
:102E1300F509EEF8EFF9ECFAEDFB120BE4851082FD
:102E2300851183122E66E0F50AEC850AF0A4CCA87E
:102E3300F089F0A428F8850AF0EDA428FDEEC39CE0
:102E4300F8EF9DF97402120CC2122E66AC08AD099C
:102E5300ECFAEDFB7404120B8A7404120C8D7F04DC
:102E6300020D3AE8F0A3E9F085108285118322531D
:102E7300F1FE43F30C4386C075C50875C23BD2AA65
:102E8300D2AF020091C082C08380178A828B83E015
:102E9300F5C18A828B83A3AA82AB83A2E950FCC2C9
:102EA300E919E9C3940150E3D083D08202009174FD
:102EB300F7120CCE7409120CC2E0FEA3E0FFEAF88D
:102EC300EBF980208C828D83E088828983F0A3A82C
:102ED30082A9838C828D83A3AC82AD83EE24FF1EF3
:102EE300EF34FFFFEE4F70DC7F01020D3A12010F4A
:102EF3001201031201157508147509007808120DE3
:102F0300807C007D007A007B0F12013F7402120C5B
:102F13008D7C147D0F7A007B0F12014579147A00A2
:102F23007B0F12011B80FEC082C083851082851136
:102F330083E0F8A3E0F98A828B838009A3E824FF66
:102F430018E934FFF9E849600AE06C70EFAA82AB34
:102F53008380047A007B00D083D082020091C082F8
:102F6300C0838A828B83E0F8A3E0F5838882E9F04B
:102F73008A828B83E02401FCA3E03400FD8A828BE8
:102F830083ECF0A3EDF0D083D082020091C082C025
:102F930083851082851183E0F8A3E0F98A828B830D
:102FA300800BECF0A3E824FF18E934FFF9E849703B
:102FB300F1D083D08202009174F7120CCE74FE120A
:102FC3000C77EAFEEBFF851082851183EEF0A3EF09
:102FD300F0851082851183AA82AB837901120127C0
:102FE30080E4C082C08353BEFBE59DA2E650FA7A1B
:102FF3003F7B0012010953C6F853C6BFE59EA2E604
:1030030040FAD083D082020091C082C083ECF88062
:1030130005A3AA82AB838A828B83E0F9E869600700
:10302300E970EE7A007B00D083D082020091C082E7
:10303300C0838A828B838001A3E070FCE582C39AFC
:10304300FAE5839BFBD083D0820200918008EA24B7
:10305300FFFAEB34FFFBEA4B70F4020091C082C02D
:1030630083120121D083D08202009153F4F843FEEE
:0A3073000775900002009102009121
:04000005000000797E
:00000001FF
