:020000040000FA
:0300000002007388
:10001300020BFD00000080FB1200A3B900030200E5
:100023005DE4900F00781579018002F0A3D8FCD924
:10003300FA900F14AA82AB839000A6785F790180AF
:1000430015E493A3AC82AD838A828B83F0A3AA8247
:10005300AB838C828D83D8E9D9E775823975831D8B
:100063007400120085758216758300740012008572
:1000730075D0007581BF75100075110F759F000253
:10008300001BC09FF59FE473D09F22D083D082C012
:100093009FE493C0E0740193C0E0740293F59F2240
:1000A30079012248656C6C6F20576F726C64210A6A
:1000B30000303132333435363738394142434445E1
:1000C3004600286E756C6C20706F696E74657229BA
:1000D300003F3F3F000000807F0000803F000000A2
:1000E30000F9021550B743BA510000204100E7DB85
:1000F3002E0000A04010000000080000000A0000CD
:100103000012008EA01D0012008EC71D0012008E6B
:10011300D81D0012008EF91C0012008E0F1D001254
:10012300008E731D0012008E591C0012008E831C5A
:100133000012008E0A0C0012008E281100C008C3A2
:10014300E096F50808A3E096420808A3E096420863
:1001530008A3E0964208A2D265D033E5087001D324
:10016300D00822080808E630E7111209A212017E1E
:10017300080808C64480C618181822181818E97900
:100183009EC608CAC608CBC608CCC6C370207996DB
:10019300CACBCC7019798ECBCC70137986CC700E08
:1001A300F9802ACA33CACB33CBCC33CC331930E7EB
:1001B300F2CCCBCA3350147004EA30E00DE4CA3AEF
:1001C300CACB3BCBCC3CCC500209C3E913C6CC18F9
:1001D3002313C6CB18C6CA18C6F92212021E20F072
:1001E3001430E72B74FFFCFBFA747F8022E4FCFBE2
:1001F300FA7480801AB48008BC00F2BB00EF800F51
:1002030050EBF9E4C39AFAE49BFBE49CFCE499C643
:10021300CC18C6CB18C6CA18C6F922E4C9C608CA80
:10022300C608CBC6D3330308CCC63392F0C3947F3E
:10023300402E94184019C9B90704CACBCC225025C3
:10024300C309CA33CACB33CBCC33CC33D9F422F46E
:10025300600DC9CCC313CB13CBCA13CAD9F6CC22B6
:10026300E4FCFBFA2214FCFBFA22E6C3331846181B
:1002730046184622E7C33319471947194722181866
:1002830018E6084608700AE608C3337005E633F437
:10029300220822191919E7094709700AE709C33324
:1002A3007005E733F4220922E6084608C31346081B
:1002B300336002E633F422E7094709C313470933DE
:1002C3006002E733F4221202AB60251202BA602007
:1002D30012026D7003020277080808E766701018AF
:1002E30019E766700A1819E76670041819E7662299
:1002F300F4221202AB601C1202BA601712026D7074
:10030300071202777001D322C0D01202777006D091
:10031300D0B322C32233D0D0501430E0F6C3E796D3
:100323000809E7960809E7960809E796B32220E04B
:10033300D5E6970809E6970809E6970809E697B30B
:10034300221202AB601B1202BA601612026D700712
:10035300120277600CB322C0D01202777005D0D09E
:1003630022C32233D0D0501330E0EBC3E796080901
:10037300E7960809E7960809E7962220E0E4E6975E
:100383000809E6970809E6970809E697220012028A
:10039300AB604F1202BA6012E7548066F612028114
:1003A3007011120277703B090909F4F618F618F672
:1003B30018F622120296701512026D08080860EAF8
:1003C300E6447FF618768018E4F618F62212026DDA
:1003D30060161202777012E4F608F608F608E6547F
:1003E30080F609090918181822EAC0E0EBC0E0EC0E
:1003F300C0E0EDC0E0E687F0A4FBACF008E687F0D0
:10040300A42CFCE435F0FA1809E687F0A42C4B6021
:10041300027401CA35F0FCE433FB09E687F0D2F736
:10042300A42CCB35F0FC1908E687F0A42BCC35F0CF
:10043300FBE433FD0819E687F0D2E7A42C4ACB3559
:10044300F0CD3400FC09E687F0D2E7A42DCC35F0DB
:10045300FDE433FA0918E687F0D2F7A42CCD35F082
:10046300CA3400FC08E687F0D2E7D2F7A42ACC35D9
:10047300F07A7E20E70B0ACB33CBCD33CDCC33CC14
:1004830033CB3350147004ED30E00ED2F1E4CD3DA4
:10049300CDCC3CCC3B5005DA05C2F1EB547FC633DF
:1004A30008E63392F0FBE73309E733C39A502D2B69
:1004B30070190C0D4C4D70151806E608C333700DFA
:1004C30020F10AA2F013F6E418800B4024E4F6307E
:1004D300F002768018F618F618F68024D33B1450F1
:1004E3001074FFA2F013F6187680E418F618F6805D
:1004F3000FA2F013F618E63303F618ECF618EDF630
:10050300D0E0FDD0E0FCD0E0FBD0E0FA221202BA4A
:1005130060461202AB603DE9687008F618F618F6FB
:1005230018F622748067F712054409090974806775
:10053300F7221202AB601D1202BA70051919198055
:100543001A120281701F120296C37003E6673319F1
:10055300191940071818182208080874FFF618F626
:1005630018F618F62212029660171202777021927B
:10057300F012026D7019501720F0140808080909C9
:1005830009E7F61819E7F61819E7F61819E7F62236
:1005930012026D60E6E869701F0808E62480F60819
:1005A300E436F618547FB47F0CE654806007F6E413
:1005B30018F618F622181822E9C6CC08C6CD08C6C4
:1005C300CE08C6CFC0E0E8C0E0EAC0E0EBC0E00977
:1005D300E9F809E7FA09E7FBE6F918E6F8C3EC9846
:1005E300ED99EE9AEBC2E7F5F0EFC2E795F0500E06
:1005F300600CEBCFFBEACEFAE9CDF9E8CCF8EAA23E
:10060300E7D2E7FAEB33FB13F5F0EEA2E7D2E7FE0E
:10061300EF33FFC5F013A2E730E601B313C5F0C310
:10062300C0E0C0F07F00C39BFB605B9418600C408C
:100633001AD0E023F9D0E0F80207138AF0E9486002
:1006430003D2F0E4AFF0FAF9F8803BEB30E40D8924
:10065300F0EA6003D2F0E4AFF0F9CAF8EB30E30D4F
:1006630088F0EF6002D2F0AFF0E4CAC9F8EB5407A8
:100673006014FBC3EA13FAE913F9E813F8EF135014
:1006830002D2E0FFDBEDD0E0C0E030E739C3E49F06
:10069300FFF5F0EC98FC42F0ED99FD42F0EE9AFE86
:1006A30042F0D0E0F9D0E0F8E5F0607AE923F9EE22
:1006B30020E742D8028067C3EF33FFEC33FCED330E
:1006C300FDEE33FE80EAEC28FCED39FDEE3AFED078
:1006D300E023F9D0E0F84002801BC3EE13FEED13D4
:1006E300FDEC13FCEF135002D2E0FF08B800067FC5
:1006F3007F74FF802EEF3350178CF020F0026010D0
:100703000CBC000C0DBD00080EBE000408E860DF41
:10071300E933E813FFEE2313FE4F4D4C8008E954F1
:1007230080FFE4FEFDFCEE33EF33F47004FCFD7E4A
:1007330080D0E0FBD0E0FAD0E0F8D0E0CFC618CE0E
:10074300C618CDC618CCC6F9221202AB700418180D
:1007530018221202BA700D74FFF61819F61819F65A
:100763001819F622E7548066F612026D700F120212
:100773007770F014F608F608F608F680D1120277BF
:10078300700CF608F608768008E6447F80EC1202C7
:1007930099700C12028460BFE65480F6E480BB12A9
:1007A3000284700519191980A5E869700C763F1841
:1007B300768018F618F6E8F922E6CDC0E018ECC00A
:1007C300E0E633CD33CDD313F6E719FCE71919333C
:1007D300CC33C3947F400ECD9D502408E65480F65D
:1007E300E418F6800FF4043D14501408E6447FF631
:1007F300187680E418F618F6D0E0FCD0E0FD22CCA1
:10080300D313CCFD18E4C6CBC0E018E4C6CAC0E0DD
:100813000808ED08C633E613F618E433C675F0038B
:10082300C3CA97CA09CB97CB199C40047D08802E75
:10083300BD00030208F516B6FF050606081618C321
:10084300CA33CACB33CB33CA27CA09CB37CB193CFC
:10085300C37D08803E187D0820E75CC633C6CA33D3
:10086300CACB33CB33DDF1D5F0EB30E77BCA97CA84
:1008730009CB974ACB199C406F4B7025E620E021AA
:100883008066187D08C3CA97CA09CB97CB199CD336
:10089300C633C6CA33CACB33CB3350C9DDE7D5F031
:1008A300E1D3E4C636C608C636C608C636C608C689
:1008B30036C61818188031C3CA97CA09CB97CB1903
:1008C3009CB34097C633C6CA33CACB33CB33DD346C
:1008D300D5F02EC6A2E0C640C8CA27CA09CB37192D
:1008E3004A70BECB3CB480B90808E63308E63360EF
:1008F3001F181818D0E0FAD0E0FBD0E0FCD0E0FDE0
:1009030022187D08CA27CA09CB37CB193CD380806C
:1009130013F618E4B67F11F618B6FF0EF618C604E0
:1009230070D20808768080CAF618F618F680C5E4F7
:10093300CFC0E0E4CEC0E0E4CDC0E0E4CCC0E075DD
:10094300F020C3E633F608E633F608E633F608E6A6
:1009530033F6181818EC33FCED33FDEE33FEEF33AA
:10096300FFC3EC9709ED9709EE9709EF971919194A
:10097300400FFFEC97FC09ED97FD09EE97FE19195F
:1009830006D5F0BEECF709EDF709EEF709EFF71915
:100993001919D0E0FCD0E0FDD0E0FED0E0FF221832
:1009A3001818E4C396F608E496F608E496F608E405
:1009B30096F622E0F608A3E0F608A3E0F608A3E023
:1009C300F622E6F008A3E6F008A3E6F008A3E6F0B3
:1009D30022E0FAA3E0FBA3E0FCA3E0FD22EAF0A3FC
:1009E300EBF0A3ECF0A3EDF022CAC0E0E6F0A3081D
:1009F300DAFAD0E0FA22CAC0E0E0A3C582CCC5820D
:100A0300C583CDC583F0A3C582CCC582C583CDC5BF
:100A130083DAE6D0E0CA22C3E498F8E499F9120A2B
:100A23005B8026C3E49AFAE49BFBE920E7E9120A18
:100A33005BE498F8E499F922C3E498F8E499F9128D
:100A43000A5BE498F8E499F9C3E49AFAE49BFB227D
:100A5300EB20E7CFE920E7E0B90010BB0008E88A04
:100A6300F084F8AAF022E4FBC8FA22EB70227B1090
:100A7300C833C8C933C9335007C39AC3DBF28006EE
:100A83009A50012ADBEAC833F4C8C933F4C9FA22FD
:100A930075F008E4C833C8C933C933C99AC99B5030
:100AA30004C92AC93BD5F0ECFBC833F4C8E4C9FA3E
:100AB30022251010AF08F510400215118008F5101B
:100AC30040021511D2AF22C0D0251010AF08F51087
:100AD300500205118008F51050020511D2AFD0D095
:100AE300222510F58210AF08F51040021511800879
:100AF300F51040021511D2AF851183222510F5821E
:100B0300E43511F58322E4732510C582C0E0E511B5
:100B130034FFC583C0E0E510C3958224F810AF0805
:100B23008583118582108008858311858210D2AF59
:100B3300CEF0A3E520F0A37808E608F0A3DEFAEFF1
:100B4300F0A3E58124FAF8E608F0A3E608F0A3E6AB
:100B530008F0A30808E608F0A3E608F0A31581153A
:100B630081D0E0FED0E0F8158115811581E8C0E061
:100B7300EEC0E022851183851082E0A3FEE0A3F599
:100B8300207808E0A3F608DFFAE0A3FFE0A3C0E0C3
:100B9300E0A3C0E0E0A3C0E0E0A3C0E0E0A3C0E0C6
:100BA30010AF0885821085831180088582108583A4
:100BB30011D2AFD083D08202008B74028002740101
:100BC300C0E0F404120AE4D0E01209EC22740280BB
:100BD30000CCC0E0EDC0E0E510C39CCCAD115001EA
:100BE3001D10AF068C108D1180068C108D11D2AFA5
:100BF3001209F9D0E0FDD0E0FC22C0D0C28BA2E9FB
:100C030050FCC2E9D0D03274F0120B0B74FD120AFF
:100C1300B47402120AFFE9F08A088B098C0A8D0B5F
:100C23007415120AFFE0FEA3E0FF8510828511838D
:100C3300E4F0A3F08E828F83A3AA82AB83900F4646
:100C4300780C1209B67808790C1202C970188E82D2
:100C53008F8374691210E9746EF0A37466F0A30AAB
:100C63000AAB83021084780879081202C960118ED6
:100C7300828F83746E1210E97461F0A3746E80DD49
:100C8300900F4A780C1209B67808790C1202F550C5
:100C930003020D34900F4E780C1209B67808790CC4
:100CA3001202C96003020D887417120AFFE0700371
:100CB300020DCA851082851183C082C0837413120A
:100CC3000AFF121B27D083D0821210C2502C85102A
:100CD30082851183C3E094FCA3E094FFA2D265D084
:100CE3003340177402120AFFE4121BFBF974131248
:100CF3000AFFC3E098F0A3E099F07413120AFF12FD
:100D030010DF7418120AFFE07003020DC774171284
:100D13000AFFE4020DC9900F52780C1209B6780845
:100D2300790C12074C851082851183E0240A121C6A
:100D330038900F56780C1209B67808790C1202F520
:100D430040D4900F5A780C1209B67808790C120225
:100D5300F54003020CAB900F5A780C1209B67808D1
:100D6300790C12074C121C2F80D8900F52780C125A
:100D730009B67808790C120390851082851183E0F7
:100D830024F61210E2900F5E780C1209B6780879F7
:100D93000C12034440D4900F4A780C1209B6780819
:100DA300790C1203444003020CAB900F5A780C12D7
:100DB30009B67808790C1203908510828511831285
:100DC30010DF80D27401F07402120AFFE060077A28
:100DD300007B00020ED61210CE507D8E828F83745C
:100DE30030F0EAFEEBFF7413120AFFE0FCA3E0FD10
:100DF300EC4D70087418120AFFE0600B8E828F832B
:100E0300742EF0A30EAF837A007B0080118E828F45
:100E130083743012110A7413120AFF1210DFEA24CA
:100E2300FF1AEB34FFFB8510828511831210B65035
:100E33000B7413120AFF121B2B4970D18510828584
:100E4300118374FFC39CF874FF9DF91210C2500301
:100E5300020FA47A01020DD4851082851183121B1F
:100E630027C3E498FAE499FB806985080C85090D8A
:100E7300850A0E850B0F780C1201DEAC0CE50D33E1
:100E830095E0F50EF50F780C1201667808790C12CF
:100E93000510900F5A780C1209B67808790C1203D2
:100EA30090EC121104EAF8EBF9E824010AE93400A2
:100EB300FBE849701E7413120AFF121B2B497008BA
:100EC3007418120AFFE0600B8E828F83742EF0A3D6
:100ED3000EAF837413120AFF1210B6508D900F6277
:100EE300780C1209B67808790C1202F54003020F48
:100EF300A47C01EE24FFF8EF34FFF97415120AFF06
:100F0300E0F508A3E0F50988828983E0642E601088
:100F1300E02CF0643A70077430F07C0180027C00AE
:100F2300E8FAE9FBEA24FF18EB34FFF9C3E5089A72
:100F3300E5099B40D2ECA2E050677402120AFFE07D
:100F43006036EEF8EF800A1210A1E824FF18E934A6
:100F5300FFF9C3E50898E50999501812108EE0646B
:100F63002E70E4E824FEF582E934FFF58312109B2A
:100F7300F980D7121C2F801E8E828F83A3AE82AF7F
:100F830083EEF8EF800612108E12109BF9C3E5086A
:100F930098E5099940F07415120AFF121B46743143
:100FA300F07417120AFFE07005801A1EAF83EE2457
:100FB300FFF582EF34FFF583E0643060EEE0642EEA
:100FC30070031EAF837402120AFFE07003021080E5
:100FD300121106A3A9831210CE8E828F835014742C
:100FE3002DF00EE9FF851082851183121B6F1210FD
:100FF300F78006742BF00EE9FF7C007D00EE240AD7
:10100300FEEF3400FFEC24010CED3400FD1210A8B8
:10101300120A53EA1211041210A8120A53121111E0
:101023004970E2C3EC9402ED121AD840D8ECFAED01
:10103300FBC3E49CF8E49DF9EE28F582EF39F583D0
:10104300E0C0E0C3E49AF8E49BF9EE28F8EF39F93D
:10105300E82CF8E93DF9E824F5F582E934FFF58356
:10106300D0E0F0EC24FF1CED34FFFDC3EC9401ED64
:10107300121AD850BCEE24F6FEEF34FFFFEEFAEF5F
:10108300FB7403120ACA7F08020B77E824FFFAE90C
:1010930034FFFB8A828B83221210A118EB22E08893
:1010A300828983F022851082851183121B7C7A0A40
:1010B3007B0022C3E09AA3E09BA2D265D03322C374
:1010C300E098A3E099A2D265D033228510828511DE
:1010D30083C3A3E09400A2D265D03322E024FFF0BF
:1010E300A3E034FFF022F0EAFEEBFF8E828F83222F
:1010F300A3E03400F9851082851183E8F0A3E9F0B9
:101103002224308E828F83F0A3AE82AF8322851098
:101113008285118312111B22E8F0A3E9F085108266
:10112300851183E02274F0120B0B74B0120AB4859C
:101133001082851183121BE17418120AFFECF0A3CD
:10114300EDF0740F120AFFE4F0A380227460120A18
:10115300FF121B177404120AFFE0F97418120AFF36
:10116300121B46120B09740F120AFF121AE0F01237
:101173001B5AFA121C1A120AFFEAF074256A60104D
:10118300E070C9740F120AFF121B17745002108605
:10119300121B5A64257019851082851183E024017E
:1011A300081210F37460120AFF121B17792580AB23
:1011B300740E120AFFE4F0740D120AFFE4F0740CCB
:1011C300120AFFE4F07405120AFFE4F0741E120A17
:1011D300FFA882A9837402120AFF80157405120AFC
:1011E300FFE070077405120AFFEAF085108285118B
:1011F30083121117121B0E121BA1FA24E060DD24C7
:10120300FD601724F860DD24FE600624FD600F8076
:1012130011740C120AFFE00480D0740D80F5740E73
:1012230080F1121BA1642A705B7462120AFF121B05
:10123300ACFB8A828B83E0FCA3E0FD740A120AFFF5
:10124300ECF0A3EDF0EA24020A0AEB3400FB74622B
:10125300120AFF121BD9740A120AFF1210D4501F6C
:10126300740A120AFF121B17C3E49AFAE49BFB7475
:101273000A120AFF121BE1740C120AFFE004F012B7
:1012830010F8804A740A120AFFE4F0A3802D740A4E
:10129300120AFF121B2B75F00AA4F8AAF075F00AC4
:1012A300E9A42AF9E50828F8E439F9E824D0F8E9AB
:1012B30034FFF9740A120AFF121C3F121BFBF58359
:1012C3008882E0F50874D02508C3940A40C0740CE2
:1012D300120AFFE06007740E120AFFE4F0121B5AB1
:1012E300642E6003021373851082851183E0240149
:1012F30008A3E03400F9121111121B4BE0642A70A9
:101303002C7462120AFF121B60F8A3E0F988828929
:1013130083E0FEA3E0FFE824020808E93400F9743F
:1013230062120AFF121B94121C3FF080477E007F5B
:1013330000851082851183121B6974D02508C3941C
:101343000A5031EE75F00AA4FEA8F075F00AEFA476
:1013530028FFE5082EF8E43FF9E824D0FEE934FF3E
:10136300FF851082851183E02401F81210F380C1F8
:101373007EFF7FFF7A00851082851183121B09850A
:101383001082851183E0FBA3E0F5838B82E024B414
:10139300600824E4600524FC70040A1210F8121B90
:1013A3005AFB121C1A120AFFEBF0700302197E2477
:1013B300BB700302184424FE700302182624EF7046
:1013C3000302157024F570030214751470030216DA
:1013D30015147003021844147003021842147003A6
:1013E30002182624FE700302161524FB60241470D1
:1013F3000302156014700302157024FD70030214B8
:10140300AE24FE700302157024FD700302157002F2
:10141300198A7462120AFF121BD3120AFF1210FEFA
:10142300EAA2E0740F5033120AFFE0FCA3E0FD339D
:1014330095E0FE7406120AFF121BB4ECF0A3EDF064
:10144300A3EEF0A3F07462120AFF121BBB120AFF91
:10145300121B94E8F0A3E9021171120AFF121B2771
:101463007406120AFF121BACF5838A82E8F0A3E923
:1014730080D27462120AFF121BB4E0C0E0741E1221
:101483000AFFD0E0F07462120AFF121BBB120AFFBC
:10149300121B941210FE741F120AFFA882A98374F0
:1014A30012120AFFE8F0A3E90219A17462120AFFFB
:1014B300121BD3120AFF1210FE7406120AFF121B2C
:1014C300D3120AFFE02402FAA3E03400FB74621291
:1014D3000AFF121BD97402120AFF1210FEE84970A8
:1014E3000C7402120AFF7433F0A3740FF0121AD6AD
:1014F30050047E107F277408120AFFE4F0A38008CB
:101503007408120AFF121AE0F07402120AFF121B87
:101513002788828983A3AA82AB837402120AFF12EB
:101523001BE188828983E0600A7408120AFF121B98
:101533003040CD7402120AFF121AF77412120AFF16
:101543001210FE7408120AFF121B6FF97412120AAA
:10155300FFE028F8A3E039F974020214A4740D1211
:101563000AFFE06008EE4F70047E017F0074621290
:101573000AFF121BD3120AFF121C27120AFFE06490
:101583007070387406120AFF121BC9120AFF121C6C
:1015930002120AFFE02402121B8B120AFF121B9491
:1015A3001210FE900F661209D4741A120AFF120960
:1015B300E07405120AFFE4F00216A5EAA2E074063D
:1015C300501B120AFF121B461209D47414120AFF8D
:1015D3001209E07406120AFFE024048012120AFFC3
:1015E300121BC9120AFF121C02120AFFE024021284
:1015F3001B8B120AFF121B94121C27120AFFE064B2
:101603006F7005900F6A809EE064757096900F6E00
:1016130080947462120AFF121BD3120AFF1210FE87
:10162300EAA2E074065016120AFF121B467808124B
:1016330009B67406120AFFE02404F8801B120AFF9D
:10164300121B69A3E0F5093395E0F50AF50B74065F
:10165300120AFFE024020808121B8C120AFF121C54
:101663000F120AFF78081209C5900F4E780812016D
:101673004040217405120AFF742DF07414120AFFFE
:1016830078081209B678081209A57414120AFF78AB
:10169300081209C5900F6E1209D4741A120AFF12A8
:1016A30009E0744F120AFFA882A9837402120AFF89
:1016B3001210FE7412120AFF121C12120AFF78088B
:1016C3001209B6E5084509450A450B60097411126C
:1016D3000AFF740180067411120AFFE4F0EE4F70E2
:1016E30008E0A2E040030217997402120AFF121BDA
:1016F30040120AFF121C12120AFF780C1209B67468
:101703001A120AFF78081209B6780C7908120932FE
:1017130074222508F582740F3509F583E0C0E0745F
:1017230002120AFF121B46D0E0F07414120AFF786B
:101733000C1209B6741A120AFF78081209B6780C4B
:1017430079081209327414120AFF780C1209C5744D
:1017530014120AFF78081209B6E5084509450A4537
:101763000B7086121AD6502E740E120AFFE06026F2
:101773007405120AFFE06004D2F08002C2F0740A1A
:10178300120AFF121AE9800E7402120AFF121BF3E7
:10179300120AFF121B537402120AFF121AF7744F34
:1017A300120AFFC082C0837402120AFF121B17D0F1
:1017B30083D082E582C39AFAE5839BFBC3EA9EEB5F
:1017C300121B3940C3740D120AFFE070030219A201
:1017D3007411120AFFE0A2E040030219A27404127A
:1017E3000AFFE064786005E06458701E1210A1E8F7
:1017F30024FF18E934FFF97402120AFF121BF312D3
:101803000AFF121B4674300219A1E0646F600302E1
:1018130019A27402120AFF121BA764307003021983
:10182300A280D47408120AFF7401F0A3E4F07404D4
:10183300120AFFE024FEF0EE4F700F7E018012E4E7
:10184300F07408120AFFE4F0A3F0121AD650047ED3
:10185300067F007462120AFF121BD3120AFF1210D2
:10186300FE7406120AFF121B46780C1209B67406A0
:10187300120AFFE02404121B8B120AFF121C0F1220
:101883000AFF780C1209C5900F4E78081209B67832
:101893000C790812034450227405120AFF742DF0C8
:1018A3007414120AFF78081209B6E50BB2E7F50BB8
:1018B3007414120AFF78081209C5740A120AFF1277
:1018C3001B27741E120AFFE58228F8E58339F97491
:1018D30002120AFF1210FE740D120AFFE0F50878D7
:1018E30008120BC17409120AFFE0F5087808120BFD
:1018F300C17404120AFF120BD08E088F09780812E4
:101903000BBD740A120AFFE0F9741A120AFF1209D6
:10191300D41201347406120ACA7412120AFF121B7B
:10192300E1740E120AFFE060767405120AFFE060AC
:1019330004D2F08002C2F0740A120AFF121AE97488
:1019430012120AFFC082C0837402120AFF121B27FD
:10195300D083D082E0C398F8A3E099F9C3E89EE965
:10196300121B39503A7402120AFF121B40120AFF6B
:10197300121BF3120AFF121B5380C48510828511B8
:1019830083121B001210F77402120AFF7442F0A3B1
:10199300740FF07412120AFF7445F0A3740FF074FD
:1019A30012120AFFC082C0837402120AFF121B279D
:1019B300D083D082E0C398FEA3E099FF740A120A91
:1019C300FF121B30500A7408120AFFE4F0A38030A0
:1019D3007405120AFFE06004D2F08002C2F0740AB8
:1019E300120AFFE0C39EF8A3E09FF9A2F0E433FAE2
:1019F300E89AF8E99400F97408120AFFE8F0A3E9F9
:101A0300F0740C120AFFE0702B80197460120AFF45
:101A1300121B1D120AFF121B46120B09740F120A26
:101A2300FF121C357408120AFF121BE7120AFF1279
:101A330010D450D77405120AFFE060507460120A84
:101A4300FF121B177405120AFFE0F97418120AFF3C
:101A5300121B46120B09802C7460120AFF121B170B
:101A63007402120AFF121B60F97418120AFF121B88
:101A730046120B097402120AFF121B097402120A9E
:101A8300FF1210FE740F120AFF121C35EE24FF1E04
:101A9300EF34FFFFC3121AD850BE740C120AFFE0D2
:101AA30070030211727408120AFF121BE7120AFF75
:101AB3001210D450030211727460120AFF121B1D1C
:101AC300120AFF121B46120B09740F120AFF121C93
:101AD3003580D2C3EF9400A2D265D03322E0240133
:101AE300F0A3E0340022A2F0E433F8E098FEA3E090
:101AF3009400FF22121AFB22121B00F922E024FF9A
:101B0300F8A3E034FF22E0121B0E222401F8A3E025
:101B13003400F922E0FAA3E0FB22E0FAA3E0FB7928
:101B230020741822121B7C22121B7CE822C3E09E25
:101B3300A3E0121B39229FA2D265D03322121AFBD3
:101B4300740222121B4A22E0F8A3E0F58388822262
:101B5300121B4A7430F022851082851183121B6494
:101B630022121B82E022121B64F50822121B7CC383
:101B7300E498F8E49922121B82E0F8A3E0F922E04A
:101B8300F8A3E0F583888222F8A3E03400F97462B5
:101B930022121B9822E0FAA3E0F5838A82228510A1
:101BA30082851183121B98E022121B98E0FAA3E0AE
:101BB30022121B64121B4B22121B642402F8A3E0A3
:101BC3003400F9746222121B79E8FAE9FB741422D7
:101BD300121B79740622E0FCA3E0F5838C82EAF001
:101BE300A3EBF022E024FFF0A3E034FFF07408221B
:101BF300E8F0A3E9F074022212111FF8A3E022EA2D
:101C0300F0A3EBF0A3E4F0A3F0740622121B98E810
:101C1300F0A3E9F0741422851082851183E0240176
:101C230008121C4DE8F0A3E9F074042285108285A4
:101C33001183E02401F0A3E03400F02212111B24ED
:101C430001F8121C4DE8F0A3E922A3E03400F98562
:101C5300108285118322C082C0838A828B83121CE7
:101C6300F0E9F08A828B83E02401FCA3E03400FDD9
:101C73008A828B83ECF0A3EDF0D083D08202008BB9
:101C830074F6120B0B74FC120AB47402120AFFEA04
:101C9300F0A3EBF0ECFAEDFB740E120AFFA882A995
:101CA30083851082851183E8F0A3E9F0851082858E
:101CB30011838582088583097808120BBD74041289
:101CC3000AFF8582088583097808120BBD7C287D6D
:101CD3000112013A7404120ACA7402120AFF121C96
:101CE300F0E4F07404120ACA7F02020B77E0F8A34F
:101CF300E0F58388822253F1FE43F30C4386C075DB
:101D0300C50875C23BD2AAD2AF02008BC082C08382
:101D130080178A828B83E0F5C18A828B83A3AA8290
:101D2300AB83A2E950FCC2E919E9C3940150E3D0A3
:101D330083D08202008B1201101201041201167566
:101D430008147509007808120BBD7C007D007A0029
:101D53007B0F1201227402120ACA7C147D0F7A00CF
:101D63007B0F12012E79147A007B0F12011C80FE67
:101D730074F7120B0B7409120AFFE0F8A3E0F98A57
:101D8300828B838003ECF0A3E8FEE9FFEE24FF18C7
:101D9300EF34FFF9EE4F70ED7F01020B77C082C085
:101DA3008353BEFBE59DA2E650FA7A3F7B00120106
:101DB3000A53C6F853C6BFE59EA2E640FAD083D0C5
:101DC3008202008B8008EA24FFFAEB34FFFBEA4B24
:101DD30070F402008B53F4F843FE07759000020081
:011DE3008B74
:040000050000007384
:00000001FF
