:020000040000FA
:0300000002009863
:10006B0002022875828575830274001200AA1200A1
:10007B00C8B90003020082758256758302740012A0
:10008B0000AA7582FF75830274001200AA75D00056
:10009B007581BF75100075110F759F00020079C037
:1000AB009FF59FE473D09F22D083D082C09FE493AF
:1000BB00C0E0740193C0E0740293F59F2279012292
:1000CB001200B3AF02001200B3D202001200B30D44
:1000DB0003001200B3EB02001200B36E000012001B
:1000EB00B3190300251010AF08F51040021511804D
:1000FB0008F51040021511D2AF222510C582C0E0C1
:10010B00E51134FFC583C0E0E510C3958224F810D8
:10011B00AF08858311858210800885831185821035
:10012B00D2AFCEF0A3E520F0A37808E608F0A3DE6B
:10013B00FAEFF0A3E58124FAF8E608F0A3E608F05D
:10014B00A3E608F0A30808E608F0A3E608F0A31559
:10015B00811581D0E0FED0E0F8158115811581E87D
:10016B00C0E0EEC0E022C0D02510C582C0E0E51192
:10017B0034FFC583C0E0E510C3958224F310AF08AC
:10018B008583118582108008858311858210D2AFFB
:10019B00C8F0A3E9F0A3EAF0A3EBF0A37908E70911
:1001AB00F0A3D8FAECF0A3EDF0A3EEF0A3EFF0A3DD
:1001BB00D0E0F0A3D0E0F0A3D0E0F0A3E520F0A3D3
:1001CB00E5F0F0A322851183851082E0C0E0A3E067
:1001DB00F9A3E0FAA3E0FBA37808E0F608A3DFFAA3
:1001EB00E0FCA3E0FDA3E0FEA3E0FFA3E0C0E0A3DF
:1001FB00E0C0E0A3E0F5D0A3E0F520A3E0A3F5F089
:10020B0010AF088583118582108008858311858244
:10021B0010D2AFD082D083D0E0F8D0E032C0E074FF
:10022B00F2120171E589A2E050127A0A7B001200EA
:10023B00CBA28050FC7A0A7B001200CB790412000F
:10024B00DD758900C2C57F010201D01200D71200F3
:10025B00D1D2F0A29130F001B39291D2907AF47B8B
:10026B00011200CB74012EF8E8FE74146870E27E64
:10027B0000C29079031200DD80D774F71201057468
:10028B00FE1200EFEAFEEBFF851082851183EEF084
:10029B00A3EFF0851082851183AA82AB83790112BB
:1002AB0000E980E48014E824FFF8E934FFF9E84919
:1002BB0070F4EA24FFFAEB34FFFBEA4B6006784B51
:1002CB00790280EA0200B053F3EC43FDEC438FEC70
:1002DB0043F7DFD2AFD2BD43AB01438C010200B079
:1002EB00E9C394045008758701E942BE8003758702
:1002FB00000200B0C082C0831200E3D083D0820220
:10030B0000B053F4F843FE077590000200B00200F2
:01031B00B031
:04000005000000985F
:00000001FF
