:020000040000FA
:0300000002009269
:10006B0002019400000080FB1200C2B900030200E1
:10007B007C7582C275830174001200A475826E7543
:10008B00830074001200A475D0007581BF75100039
:10009B0075110F759F00020073C09FF59FE473D01D
:1000AB009F22D083D082C09FE493C0E0740193C0A1
:1000BB00E0740293F59F227901221200ADF1010049
:1000CB001200AD1402001200AD4102001200AD2D62
:1000DB000200C0D02510C582C0E0E51134FFC583F6
:1000EB00C0E0E510C3958224F310AF08858311851A
:1000FB0082108008858311858210D2AFC8F0A3E9E6
:10010B00F0A3EAF0A3EBF0A37908E709F0A3D8FA80
:10011B00ECF0A3EDF0A3EEF0A3EFF0A3D0E0F0A38F
:10012B00D0E0F0A3D0E0F0A3E520F0A3E5F0F0A33E
:10013B0022851183851082E0C0E0A3E0F9A3E0FAE9
:10014B00A3E0FBA37808E0F608A3DFFAE0FCA3E04A
:10015B00FDA3E0FEA3E0FFA3E0C0E0A3E0C0E0A3AB
:10016B00E0F5D0A3E0F520A3E0A3F5F010AF0885F0
:10017B0083118582108008858311858210D2AFD0C0
:10018B0082D083D0E0F8D0E032C0E074F21200DD10
:10019B00E589A2E050127A0A7B001200C5A28050BA
:1001AB00FC7A0A7B001200C579041200D77589000E
:1001BB00C2C57F0102013C1200D11200CBD2F0A2CA
:1001CB009130F001B39291D2907AF47B011200C579
:1001DB0074012EF8E8FE74146870E27E00C2907908
:1001EB00031200D780D78014E824FFF8E934FFF915
:1001FB00E84970F4EA24FFFAEB34FFFBEA4B6006A4
:10020B00784B790280EA0200AA53F3EC43FDEC43EE
:10021B008FEC43F7DFD2AFD2BD43AB01438C01026E
:10022B0000AAE9C394045008758701E942BE800314
:10023B007587000200AA53F4F843FE07759000027D
:02024B0000AA07
:040000050000009265
:00000001FF
