:020000040000FA
:1000000002006000000080FB120090B900030200B3
:100010004AE4900F00782979018002F0A3D8FCD936
:10002000FA900F28AA82AB83900093786E790180B2
:1000300015E493A3AC82AD838A828B83F0A3AA825A
:10004000AB838C828D83D8E9D9E775821975831EBD
:1000500074001200727582037583007400120072BE
:1000600075D0007581BF75100075110F759F000266
:100070000008C09FF59FE473D09F22D083D082C038
:100080009FE493C0E0740193C0E0740293F59F2253
:1000900079012248656C6C6F20576F726C640A009E
:1000A0000000000000000066696E6973680D0A00B8
:1000B000303132333435363738394142434445469E
:1000C00000286E756C6C20706F696E746572290003
:1000D0003F3F3F000000807F0000803F00000000A5
:1000E000F9021550B743BA510000204100E7DB2E5A
:1000F0000000A04010000000080000000A000000FE
:1001000012007B501E0012007B771E0012007B4203
:100110001C0012007BD91D0012007BEF1D00120095
:100120007B391D0012007B631D0012007BF30B0066
:1001300012007B111100C008C3E096F50808A3E087
:1001400096420808A3E096420808A3E0964208A257
:10015000D265D033E5087001D3D00822080808E63C
:1001600030E711120998120174080808C64480C6C5
:1001700018181822181818E9799EC608CAC608CB9C
:10018000C608CCC6C370207996CACBCC7019798EBC
:10019000CBCC70137986CC700EF9802ACA33CACBC7
:1001A00033CBCC33CC331930E7F2CCCBCA33501439
:1001B0007004EA30E00DE4CA3ACACB3BCBCC3CCC6D
:1001C000500209C3E913C6CC182313C6CB18C6CAFC
:1001D00018C6F92212021420F01430E72B74FFFC29
:1001E000FBFA747F8022E4FCFBFA7480801AB480EE
:1001F00008BC00F2BB00EF800F50EBF9E4C39AFAA1
:10020000E49BFBE49CFCE499C6CC18C6CB18C6CA98
:1002100018C6F922E4C9C608CAC608CBC6D3330338
:1002200008CCC63392F0C3947F402E94184019C96D
:10023000B90704CACBCC225025C309CA33CACB3371
:10024000CBCC33CC33D9F422F4600DC9CCC313CB5F
:1002500013CBCA13CAD9F6CC22E4FCFBFA2214FC55
:10026000FBFA22E6C33318461846184622E7C33382
:1002700019471947194722181818E6084608700A3E
:10028000E608C3337005E633F4220822191919E78A
:10029000094709700AE709C3337005E733F42209F7
:1002A00022E6084608C3134608336002E633F42208
:1002B000E7094709C3134709336002E733F4221201
:1002C00002A160251202B0602012026370030202D4
:1002D0006D080808E76670101819E766700A1819A3
:1002E000E76670041819E76622F4221202A1601C66
:1002F0001202B06017120263700712026D7001D310
:1003000022C0D012026D7006D0D0B322C32233D0E7
:10031000D0501430E0F6C3E7960809E7960809E7DD
:10032000960809E796B32220E0D5E6970809E697F4
:100330000809E6970809E697B3221202A1601B128A
:1003400002B06016120263700712026D600CB322D5
:10035000C0D012026D7005D0D022C32233D0D0504D
:100360001330E0EBC3E7960809E7960809E796081B
:1003700009E7962220E0E4E6970809E6970809E6EF
:10038000970809E69722001202A1604F1202B0609E
:1003900012E7548066F6120277701112026D703BFC
:1003A000090909F4F618F618F618F62212028C70EC
:1003B0001512026308080860EAE6447FF6187680A2
:1003C00018E4F618F622120263601612026D70121B
:1003D000E4F608F608F608E65480F6090909181844
:1003E0001822EAC0E0EBC0E0ECC0E0EDC0E0E68738
:1003F000F0A4FBACF008E687F0A42CFCE435F0FA9E
:100400001809E687F0A42C4B60027401CA35F0FC91
:10041000E433FB09E687F0D2F7A42CCB35F0FC19C6
:1004200008E687F0A42BCC35F0FBE433FD0819E691
:1004300087F0D2E7A42C4ACB35F0CD3400FC09E696
:1004400087F0D2E7A42DCC35F0FDE433FA0918E6A5
:1004500087F0D2F7A42CCD35F0CA3400FC08E6872B
:10046000F0D2E7D2F7A42ACC35F07A7E20E70B0A47
:10047000CB33CBCD33CDCC33CC33CB335014700412
:10048000ED30E00ED2F1E4CD3DCDCC3CCC3B50057F
:10049000DA05C2F1EB547FC63308E63392F0FBE78E
:1004A0003309E733C39A502D2B70190C0D4C4D7046
:1004B000151806E608C333700D20F10AA2F013F6F2
:1004C000E418800B4024E4F630F002768018F61829
:1004D000F618F68024D33B14501074FFA2F013F6E4
:1004E000187680E418F618F6800FA2F013F618E6D6
:1004F0003303F618ECF618EDF6D0E0FDD0E0FCD0B2
:10050000E0FBD0E0FA221202B060461202A1603D88
:10051000E9687008F618F618F618F622748067F77E
:1005200012053A090909748067F7221202A1601DB9
:100530001202B07005191919801A120277701F1271
:10054000028CC37003E6673319191940071818188D
:100550002208080874FFF618F618F618F622120298
:100560008C601712026D702192F0120263701950A4
:100570001720F014080808090909E7F61819E7F622
:100580001819E7F61819E7F62212026360E6E8691F
:10059000701F0808E62480F608E436F618547FB485
:1005A0007F0CE654806007F6E418F618F622181857
:1005B00022E9C6CC08C6CD08C6CE08C6CFC0E0E842
:1005C000C0E0EAC0E0EBC0E009E9F809E7FA09E7B2
:1005D000FBE6F918E6F8C3EC98ED99EE9AEBC2E762
:1005E000F5F0EFC2E795F0500E600CEBCFFBEACED2
:1005F000FAE9CDF9E8CCF8EAA2E7D2E7FAEB33FB67
:1006000013F5F0EEA2E7D2E7FEEF33FFC5F013A239
:10061000E730E601B313C5F0C3C0E0C0F07F00C30C
:100620009BFB605B9418600C401AD0E023F9D0E08B
:10063000F80207098AF0E9486003D2F0E4AFF0FA63
:10064000F9F8803BEB30E40D89F0EA6003D2F0E486
:10065000AFF0F9CAF8EB30E30D88F0EF6002D2F0AA
:10066000AFF0E4CAC9F8EB54076014FBC3EA13FA0D
:10067000E913F9E813F8EF135002D2E0FFDBEDD0F5
:10068000E0C0E030E739C3E49FFFF5F0EC98FC42AE
:10069000F0ED99FD42F0EE9AFE42F0D0E0F9D0E0A4
:1006A000F8E5F0607AE923F9EE20E742D8028067A6
:1006B000C3EF33FFEC33FCED33FDEE33FE80EAECA9
:1006C00028FCED39FDEE3AFED0E023F9D0E0F84009
:1006D00002801BC3EE13FEED13FDEC13FCEF135071
:1006E00002D2E0FF08B800067F7F74FF802EEF3350
:1006F00050178CF020F00260100CBC000C0DBD00F7
:10070000080EBE000408E860DFE933E813FFEE23BB
:1007100013FE4F4D4C8008E95480FFE4FEFDFCEED3
:1007200033EF33F47004FCFD7E80D0E0FBD0E0FAC0
:10073000D0E0F8D0E0CFC618CEC618CDC618CCC6CB
:10074000F9221202A17004181818221202B0700DBA
:1007500074FFF61819F61819F61819F622E75480DE
:1007600066F6120263700F12026D70F014F608F64E
:1007700008F608F680D112026D700CF608F60876BD
:100780008008E6447F80EC12028F700C12027A60BF
:10079000BFE65480F6E480BB12027A70051919197D
:1007A00080A5E869700C763F18768018F618F6E890
:1007B000F922E6CDC0E018ECC0E0E633CD33CDD36E
:1007C00013F6E719FCE7191933CC33C3947F400EB5
:1007D000CD9D502408E65480F6E418F6800FF4040A
:1007E0003D14501408E6447FF6187680E418F61895
:1007F000F6D0E0FCD0E0FD22CCD313CCFD18E4C64B
:10080000CBC0E018E4C6CAC0E00808ED08C633E66D
:1008100013F618E433C675F003C3CA97CA09CB9719
:10082000CB199C40047D08802EBD00030208EB1606
:10083000B6FF050606081618C3CA33CACB33CB3336
:10084000CA27CA09CB37CB193CC37D08803E187D27
:100850000820E75CC633C6CA33CACB33CB33DDF1DD
:10086000D5F0EB30E77BCA97CA09CB974ACB199CE6
:10087000406F4B7025E620E0218066187D08C3CAD2
:1008800097CA09CB97CB199CD3C633C6CA33CACBF8
:1008900033CB3350C9DDE7D5F0E1D3E4C636C60823
:1008A000C636C608C636C608C636C61818188031F9
:1008B000C3CA97CA09CB97CB199CB34097C633C616
:1008C000CA33CACB33CB33DD34D5F02EC6A2E0C653
:1008D00040C8CA27CA09CB37194A70BECB3CB4807E
:1008E000B90808E63308E633601F181818D0E0FA94
:1008F000D0E0FBD0E0FCD0E0FD22187D08CA27CA7A
:1009000009CB37CB193CD3808013F618E4B67F119E
:10091000F618B6FF0EF618C60470D2080876808066
:10092000CAF618F618F680C5E4CFC0E0E4CEC0E001
:10093000E4CDC0E0E4CCC0E075F020C3E633F608B7
:10094000E633F608E633F608E633F6181818EC3303
:10095000FCED33FDEE33FEEF33FFC3EC9709ED976B
:1009600009EE9709EF97191919400FFFEC97FC0949
:10097000ED97FD09EE97FE191906D5F0BEECF709C3
:10098000EDF709EEF709EFF7191919D0E0FCD0E0FF
:10099000FDD0E0FED0E0FF22181818E4C396F60858
:1009A000E496F608E496F608E496F622E0F608A344
:1009B000E0F608A3E0F608A3E0F622E6F008A3E6D6
:1009C000F008A3E6F008A3E6F022E0FAA3E0FBA318
:1009D000E0FCA3E0FD22EAF0A3EBF0A3ECF0A3ED32
:1009E000F022CAC0E0E6F0A308DAFAD0E0FA22CAA0
:1009F000C0E0E0A3C582CCC582C583CDC583F0A38A
:100A0000C582CCC582C583CDC583DAE6D0E0CA22D3
:100A1000C3E498F8E499F9120A518026C3E49AFADB
:100A2000E49BFBE920E7E9120A51E498F8E499F91C
:100A300022C3E498F8E499F9120A51E498F8E49989
:100A4000F9C3E49AFAE49BFB22EB20E7CFE920E725
:100A5000E0B90010BB0008E88AF084F8AAF022E4AC
:100A6000FBC8FA22EB70227B10C833C8C933C933E4
:100A70005007C39AC3DBF280069A50012ADBEAC80A
:100A800033F4C8C933F4C9FA2275F008E4C833C88E
:100A9000C933C933C99AC99B5004C92AC93BD5F087
:100AA000ECFBC833F4C8E4C9FA22251010AF08F5EE
:100AB00010400215118008F51040021511D2AF2226
:100AC000C0D0251010AF08F510500205118008F5B0
:100AD0001050020511D2AFD0D0222510F58210AFF0
:100AE00008F510400215118008F51040021511D2CA
:100AF000AF851183222510F582E43511F58322E4B8
:100B0000732510C582C0E0E51134FFC583C0E0E560
:100B100010C3958224F810AF088583118582108058
:100B200008858311858210D2AFCEF0A3E520F0A313
:100B30007808E608F0A3DEFAEFF0A3E58124FAF8DE
:100B4000E608F0A3E608F0A3E608F0A30808E60824
:100B5000F0A3E608F0A315811581D0E0FED0E0F8FF
:100B6000158115811581E8C0E0EEC0E02285118372
:100B7000851082E0A3FEE0A3F5207808E0A3F60844
:100B8000DFFAE0A3FFE0A3C0E0E0A3C0E0E0A3C081
:100B9000E0E0A3C0E0E0A3C0E010AF0885821085CC
:100BA00083118008858210858311D2AFD083D082D3
:100BB000020078740280027401C0E0F404120ADAC0
:100BC000D0E01209E22274028000CCC0E0EDC0E067
:100BD000E510C39CCCAD1150011D10AF068C108DDB
:100BE0001180068C108D11D2AF1209EFD0E0FDD02C
:100BF000E0FC2274F0120B0174FD120AAA740212B6
:100C00000AF5E9F08A088B098C0A8D0B7415120A13
:100C1000F5E0FEA3E0FF851082851183E4F0A3F0E8
:100C20008E828F83A3AA82AB83900F69780C1209FE
:100C3000AC7808790C1202BF70188E828F837469A9
:100C40001210D2746EF0A37466F0A30A0AAB83028A
:100C5000106D780879081202BF60118E828F83743C
:100C60006E1210D27461F0A3746E80DD900F6D78F7
:100C70000C1209AC7808790C1202EB5003020D1D1E
:100C8000900F71780C1209AC7808790C1202BF60D1
:100C900003020D717417120AF5E07003020DB3859B
:100CA0001082851183C082C0837413120AF5121B4F
:100CB00010D083D0821210AB502C85108285118306
:100CC000C3E094FCA3E094FFA2D265D03340177434
:100CD00002120AF5E4121BE4F97413120AF5C3E0D8
:100CE00098F0A3E099F07413120AF51210C8741862
:100CF000120AF5E07003020DB07417120AF5E4024F
:100D00000DB2900F75780C1209AC7808790C1207A7
:100D100042851082851183E0240A121C21900F79EC
:100D2000780C1209AC7808790C1202EB40D4900FC1
:100D30007D780C1209AC7808790C1202EB400302A2
:100D40000C94900F7D780C1209AC7808790C12077E
:100D500042121C1880D8900F75780C1209AC7808D4
:100D6000790C120386851082851183E024F6121017
:100D7000CB900F81780C1209AC7808790C12033AE9
:100D800040D4900F6D780C1209AC7808790C1203DE
:100D90003A4003020C94900F7D780C1209AC78084D
:100DA000790C1203868510828511831210C880D2B7
:100DB0007401F07402120AF5E060077A007B000209
:100DC0000EBF1210B7507D8E828F837430F0EAFE12
:100DD000EBFF7413120AF5E0FCA3E0FDEC4D700884
:100DE0007418120AF5E0600B8E828F83742EF0A3C4
:100DF0000EAF837A007B0080118E828F8374301255
:100E000010F37413120AF51210C8EA24FF1AEB3417
:100E1000FFFB85108285118312109F500B741312F3
:100E20000AF5121B144970D185108285118374FF55
:100E3000C39CF874FF9DF91210AB5003020F8D7A1A
:100E400001020DBD851082851183121B10C3E49829
:100E5000FAE499FB806985080C85090D850A0E85E1
:100E60000B0F780C1201D4AC0CE50D3395E0F50EA8
:100E7000F50F780C12015C7808790C120506900FBA
:100E80007D780C1209AC7808790C120386EC1210EC
:100E9000EDEAF8EBF9E824010AE93400FBE84970CF
:100EA0001E7413120AF5121B144970087418120AE2
:100EB000F5E0600B8E828F83742EF0A30EAF8374E7
:100EC00013120AF512109F508D900F85780C12099D
:100ED000AC7808790C1202EB4003020F8D7C01EE16
:100EE00024FFF8EF34FFF97415120AF5E0F508A3B2
:100EF000E0F50988828983E0642E6010E02CF064BC
:100F00003A70077430F07C0180027C00E8FAE9FB5B
:100F1000EA24FF18EB34FFF9C3E5089AE5099B4082
:100F2000D2ECA2E050677402120AF5E06036EEF8E7
:100F3000EF800A12108AE824FF18E934FFF9C3E5AC
:100F40000898E509995018121077E0642E70E4E8CB
:100F500024FEF582E934FFF583121084F980D7125C
:100F60001C18801E8E828F83A3AE82AF83EEF8EFB3
:100F70008006121077121084F9C3E50898E50999E4
:100F800040F07415120AF5121B2F7431F074171209
:100F90000AF5E07005801A1EAF83EE24FFF582EF9C
:100FA00034FFF583E0643060EEE0642E70031EAF22
:100FB000837402120AF5E070030210691210EFA3A5
:100FC000A9831210B78E828F835014742DF00EE90E
:100FD000FF851082851183121B581210E080067461
:100FE0002BF00EE9FF7C007D00EE240AFEEF3400BA
:100FF000FFEC24010CED3400FD121091120A49EAB5
:101000001210ED121091120A491210FA4970E2C33F
:10101000EC9402ED121AC140D8ECFAEDFBC3E49C4B
:10102000F8E49DF9EE28F582EF39F583E0C0E0C3DE
:10103000E49AF8E49BF9EE28F8EF39F9E82CF8E99E
:101040003DF9E824F5F582E934FFF583D0E0F0ECD2
:1010500024FF1CED34FFFDC3EC9401ED121AC150C6
:10106000BCEE24F6FEEF34FFFFEEFAEFFB74031242
:101070000AC07F08020B6DE824FFFAE934FFFB8AFF
:10108000828B832212108A18EB22E088828983F0F7
:1010900022851082851183121B657A0A7B0022C388
:1010A000E09AA3E09BA2D265D03322C3E098A3E0EC
:1010B00099A2D265D03322851082851183C3A3E023
:1010C0009400A2D265D03322E024FFF0A3E034FFE5
:1010D000F022F0EAFEEBFF8E828F8322A3E0340041
:1010E000F9851082851183E8F0A3E9F02224308E7F
:1010F000828F83F0A3AE82AF832285108285118315
:1011000012110422E8F0A3E9F0851082851183E032
:101110002274F0120B0174B0120AAA851082851194
:1011200083121BCA7418120AF5ECF0A3EDF0740FC9
:10113000120AF5E4F0A380227460120AF5121B0073
:101140007404120AF5E0F97418120AF5121B2F1232
:101150000AFF740F120AF5121AC9F0121B43FA1291
:101160001C03120AF5EAF074256A6010E070C97475
:101170000F120AF5121B00745002106F121B436409
:10118000257019851082851183E02401081210DC76
:101190007460120AF5121B00792580AB740E120AD6
:1011A000F5E4F0740D120AF5E4F0740C120AF5E49B
:1011B000F07405120AF5E4F0741E120AF5A882A96B
:1011C000837402120AF580157405120AF5E070079F
:1011D0007405120AF5EAF085108285118312110058
:1011E000121AF7121B8AFA24E060DD24FD6017242E
:1011F000F860DD24FE600624FD600F8011740C127F
:101200000AF5E00480D0740D80F5740E80F1121B95
:101210008A642A705B7462120AF5121B95FB8A823B
:101220008B83E0FCA3E0FD740A120AF5ECF0A3ED59
:10123000F0EA24020A0AEB3400FB7462120AF51287
:101240001BC2740A120AF51210BD501F740A120A4A
:10125000F5121B00C3E49AFAE49BFB740A120AF528
:10126000121BCA740C120AF5E004F01210E1804A55
:10127000740A120AF5E4F0A3802D740A120AF5121A
:101280001B1475F00AA4F8AAF075F00AE9A42AF96B
:10129000E50828F8E439F9E824D0F8E934FFF974CE
:1012A0000A120AF5121C28121BE4F5838882E0F565
:1012B0000874D02508C3940A40C0740C120AF5E0E3
:1012C0006007740E120AF5E4F0121B43642E6003EB
:1012D00002135C851082851183E0240108A3E034A9
:1012E00000F91210FA121B34E0642A702C74621296
:1012F0000AF5121B49F8A3E0F988828983E0FEA36E
:10130000E0FFE824020808E93400F97462120AF5E3
:10131000121B7D121C28F080477E007F0085108202
:10132000851183121B5274D02508C3940A5031EEE4
:1013300075F00AA4FEA8F075F00AEFA428FFE508EE
:101340002EF8E43FF9E824D0FEE934FFFF8510824F
:10135000851183E02401F81210DC80C17EFF7FFF3D
:101360007A00851082851183121AF2851082851108
:1013700083E0FBA3E0F5838B82E024B4600824E4DF
:10138000600524FC70040A1210E1121B43FB121CBE
:1013900003120AF5EBF0700302196724BB70030215
:1013A000182D24FE700302180F24EF700302155944
:1013B00024F5700302145E1470030215FE1470030A
:1013C00002182D14700302182B14700302180F2436
:1013D000FE70030215FE24FB6024147003021549FD
:1013E00014700302155924FD700302149724FE7033
:1013F0000302155924FD7003021559021973746212
:10140000120AF5121BBC120AF51210E7EAA2E074E8
:101410000F5033120AF5E0FCA3E0FD3395E0FE74B3
:1014200006120AF5121B9DECF0A3EDF0A3EEF0A35B
:10143000F07462120AF5121BA4120AF5121B7DE861
:10144000F0A3E902115A120AF5121B107406120ACF
:10145000F5121B95F5838A82E8F0A3E980D27462C5
:10146000120AF5121B9DE0C0E0741E120AF5D0E0CE
:10147000F07462120AF5121BA4120AF5121B7D12F7
:1014800010E7741F120AF5A882A9837412120AF5D4
:10149000E8F0A3E902198A7462120AF5121BBC1261
:1014A0000AF51210E77406120AF5121BBC120AF5AF
:1014B000E02402FAA3E03400FB7462120AF5121B66
:1014C000C27402120AF51210E7E849700C74021295
:1014D0000AF57456F0A3740FF0121ABF50047E1070
:1014E0007F277408120AF5E4F0A380087408120A32
:1014F000F5121AC9F07402120AF5121B10888289BB
:1015000083A3AA82AB837402120AF5121BCA8882D3
:101510008983E0600A7408120AF5121B1940CD7421
:1015200002120AF5121AE07412120AF51210E77488
:1015300008120AF5121B58F97412120AF5E028F87D
:10154000A3E039F9740202148D740D120AF5E060FB
:1015500008EE4F70047E017F007462120AF5121BC0
:10156000BC120AF5121C10120AF5E064707038748F
:1015700006120AF5121BB2120AF5121BEB120AF53B
:10158000E02402121B74120AF5121B7D1210E79060
:101590000F891209CA741A120AF51209D6740512B3
:1015A0000AF5E4F002168EEAA2E07406501B120A55
:1015B000F5121B2F1209CA7414120AF51209D674F7
:1015C00006120AF5E024048012120AF5121BB21268
:1015D0000AF5121BEB120AF5E02402121B74120A20
:1015E000F5121B7D121C10120AF5E0646F70059055
:1015F0000F8D809EE064757096900F918094746258
:10160000120AF5121BBC120AF51210E7EAA2E074E6
:10161000065016120AF5121B2F78081209AC740630
:10162000120AF5E02404F8801B120AF5121B52A3DB
:10163000E0F5093395E0F50AF50B7406120AF5E0BA
:1016400024020808121B75120AF5121BF8120AF57B
:1016500078081209BB900F71780812013640217486
:1016600005120AF5742DF07414120AF5780812099F
:10167000AC780812099B7414120AF578081209BB99
:10168000900F911209CA741A120AF51209D6744FF2
:10169000120AF5A882A9837402120AF51210E774DF
:1016A00012120AF5121BFB120AF578081209ACE5B2
:1016B000084509450A450B60097411120AF57401C1
:1016C00080067411120AF5E4F0EE4F7008E0A2E013
:1016D00040030217827402120AF5121B29120AF53E
:1016E000121BFB120AF5780C1209AC741A120AF5D7
:1016F00078081209AC780C79081209287445250875
:10170000F582740F3509F583E0C0E07402120AF522
:10171000121B2FD0E0F07414120AF5780C1209ACE9
:10172000741A120AF578081209AC780C79081209B3
:10173000287414120AF5780C1209BB7414120AF5F5
:1017400078081209ACE5084509450A450B70861270
:101750001ABF502E740E120AF5E060267405120AA4
:10176000F5E06004D2F08002C2F0740A120AF512A9
:101770001AD2800E7402120AF5121BDC120AF5123C
:101780001B3C7402120AF5121AE0744F120AF5C0DB
:1017900082C0837402120AF5121B00D083D082E546
:1017A00082C39AFAE5839BFBC3EA9EEB121B22409D
:1017B000C3740D120AF5E0700302198B7411120A3A
:1017C000F5E0A2E0400302198B7404120AF5E0640C
:1017D000786005E06458701E12108AE824FF18E94A
:1017E00034FFF97402120AF5121BDC120AF5121BFF
:1017F0002F743002198AE0646F600302198B74023F
:10180000120AF5121B906430700302198B80D47495
:1018100008120AF57401F0A3E4F07404120AF5E06A
:1018200024FEF0EE4F700F7E018012E4F074081277
:101830000AF5E4F0A3F0121ABF50047E067F00748C
:1018400062120AF5121BBC120AF51210E774061296
:101850000AF5121B2F780C1209AC7406120AF5E077
:101860002404121B74120AF5121BF8120AF5780CE4
:101870001209BB900F7178081209AC780C79081224
:10188000033A50227405120AF5742DF07414120AEA
:10189000F578081209ACE50BB2E7F50B7414120ADF
:1018A000F578081209BB740A120AF5121B10741E8F
:1018B000120AF5E58228F8E58339F97402120AF56F
:1018C0001210E7740D120AF5E0F5087808120BB74C
:1018D0007409120AF5E0F5087808120BB7740412BF
:1018E0000AF5120BC68E088F097808120BB3740A1A
:1018F000120AF5E0F9741A120AF51209CA12012A3D
:101900007406120AC07412120AF5121BCA740E125F
:101910000AF5E060767405120AF5E06004D2F08002
:1019200002C2F0740A120AF5121AD27412120AF5DF
:10193000C082C0837402120AF5121B10D083D082B9
:10194000E0C398F8A3E099F9C3E89EE9121B22507E
:101950003A7402120AF5121B29120AF5121BDC1244
:101960000AF5121B3C80C4851082851183121AE986
:101970001210E07402120AF57465F0A3740FF0748B
:1019800012120AF57468F0A3740FF07412120AF5BB
:10199000C082C0837402120AF5121B10D083D08259
:1019A000E0C398FEA3E099FF740A120AF5121B190E
:1019B000500A7408120AF5E4F0A380307405120A84
:1019C000F5E06004D2F08002C2F0740A120AF5E079
:1019D000C39EF8A3E09FF9A2F0E433FAE89AF8E98D
:1019E0009400F97408120AF5E8F0A3E9F0740C12F7
:1019F0000AF5E0702B80197460120AF5121B0612AA
:101A00000AF5121B2F120AFF740F120AF5121C1E80
:101A10007408120AF5121BD0120AF51210BD50D725
:101A20007405120AF5E060507460120AF5121B008A
:101A30007405120AF5E0F97418120AF5121B2F1238
:101A40000AFF802C7460120AF5121B007402120A3D
:101A5000F5121B49F97418120AF5121B2F120AFF0E
:101A60007402120AF5121AF27402120AF51210E741
:101A7000740F120AF5121C1EEE24FF1EEF34FFFF36
:101A8000C3121AC150BE740C120AF5E070030211A1
:101A90005B7408120AF5121BD0120AF51210BD5021
:101AA0000302115B7460120AF5121B06120AF5128A
:101AB0001B2F120AFF740F120AF5121C1E80D2C3CC
:101AC000EF9400A2D265D03322E02401F0A3E034E9
:101AD0000022A2F0E433F8E098FEA3E09400FF2295
:101AE000121AE422121AE9F922E024FFF8A3E034E2
:101AF000FF22E0121AF7222401F8A3E03400F922B1
:101B0000E0FAA3E0FB22E0FAA3E0FB7920741822BC
:101B1000121B6522121B65E822C3E09EA3E0121B84
:101B200022229FA2D265D03322121AE4740222121A
:101B30001B3322E0F8A3E0F583888222121B337462
:101B400030F022851082851183121B4D22121B6BEF
:101B5000E022121B4DF50822121B65C3E498F8E43D
:101B60009922121B6BE0F8A3E0F922E0F8A3E0F55C
:101B700083888222F8A3E03400F9746222121B8168
:101B800022E0FAA3E0F5838A822285108285118300
:101B9000121B81E022121B81E0FAA3E022121B4DEE
:101BA000121B3422121B4D2402F8A3E03400F974F6
:101BB0006222121B62E8FAE9FB741422121B62749F
:101BC0000622E0FCA3E0F5838C82EAF0A3EBF0228E
:101BD000E024FFF0A3E034FFF0740822E8F0A3E96A
:101BE000F0740222121108F8A3E022EAF0A3EBF04D
:101BF000A3E4F0A3F0740622121B81E8F0A3E9F03D
:101C0000741422851082851183E0240108121C3689
:101C1000E8F0A3E9F0740422851082851183E024A2
:101C200001F0A3E03400F0221211042401F8121C88
:101C300036E8F0A3E922A3E03400F985108285118B
:101C40008322C082C08374F8120AAA7828790FE42C
:101C5000E9F8851082851183F07401120AF5742861
:101C6000F07800790FE4E9F8C0E07402120AF5D0C8
:101C7000E0F07403120AF57400F07404120AF5E03F
:101C8000541FF07404120AF5E054E0F0781474055F
:101C9000120AF5E0F9E8C0E07405120AF5D0E0F0A8
:101CA0007406120AF5E0C2E7F07406120AF5E05471
:101CB0009F4420C0E07406120AF5D0E0F0740612CA
:101CC0000AF5E054E0F07407120AF5E0543F44408E
:101CD000C0E07407120AF5D0E0F07407120AF5E0CC
:101CE00054CF4410C0E07407120AF5D0E0F0740736
:101CF000120AF5E0C2E3F07407120AF5E0C2E2F05E
:101D00007407120AF5E054FC4402C0E07407120A9A
:101D1000F5D0E0F0851082851183E4E583F582E556
:101D200082F5D5851082851183E582F5D474081279
:101D30000AC0D083D082020078C082C0838A828B9E
:101D400083121DD0E9F08A828B83E02401FCA3E09A
:101D50003400FD8A828B83ECF0A3EDF0D083D08237
:101D600002007874F6120B0174FC120AAA740212B3
:101D70000AF5EAF0A3EBF0ECFAEDFB740E120AF5AB
:101D8000A882A983851082851183E8F0A3E9F085F4
:101D900010828511838582088583097808120BB328
:101DA0007404120AF58582088583097808120BB33A
:101DB0007C1E7D011201307404120AC07402120AE2
:101DC000F5121DD0E4F07404120AC07F02020B6DFC
:101DD000E0F8A3E0F58388822253F1FE43F30C433D
:101DE00086C075C50875C23BD2AAD2AF020078C0C2
:101DF00082C08380178A828B83E0F5C18A828B83BD
:101E0000A3AA82AB83A2E950FCC2E919E9C39401F9
:101E100050E3D083D0820200781201001201121226
:101E2000010C75D60175D10075D701E5D1A2E0503E
:101E3000FA7C3C7D0F7A147B0F12012479147A14FA
:101E40007B0F12011879147A007B0F12011880FEA3
:101E5000C082C08353BEFBE59DA2E650FA7A3F7B69
:101E60000012010653C6F853C6BFE59EA2E640FA2B
:101E7000D083D0820200788008EA24FFFAEB34FF96
:081E8000FBEA4B70F40200784C
:040000050000006097
:00000001FF
