:020000040000FA
:1000000002006675826D75833074001200781200EC
:1000100096B90003020050E4900F0078297901801E
:1000200002F0A3D8FCD9FA900F28AA82AB839000E3
:1000300099786779018015E493A3AC82AD838A82B5
:100040008B83F0A3AA82AB838C828D83D8E9D9E716
:10005000758207758330740012007875821275837B
:1000600031740012007875D0007581BF751000756D
:10007000110F759F0002000EC09FF59FE473D09F83
:1000800022D083D082C09FE493C0E0740193C0E08B
:10009000740293F59F2279012248656C6C6F20579A
:1000A0006F726C640A000000000000000066696E58
:1000B0006973680D0A00000080FF0000807F686A95
:1000C0006C747A4C006E616E004E414E00696E6633
:1000D00000494E46003000FFFF0000000000000015
:1000E000002041010000001C00000097750000A0E6
:1000F0008601000000803F0A00000020BCBE4C12B8
:100100000081973000120081013100120081572CCC
:1001100000120081522F00120081682F001200810E
:10012000030000120081203100120081DB2E00123A
:100130000081D02F00120081922F00120081442EE6
:1001400000120081BE3000120081E33000120081F5
:100150004E2D00120081170E00120081CE160012E3
:100160000081541700120081BD1700120081FE1A91
:1001700000120081851B001200819F240012008163
:100180002C2B00120081882B00120081D52B00122D
:1001900000813E3000C3E7960809E7960809E79614
:1001A0000809E796A2D265D03322C3E09608A3E0FF
:1001B0009608A3E09608A3E096A2D265D03322C0A9
:1001C00008C3E096F50808A3E096420808A3E09665
:1001D000420808A3E0964208A2D265D033E5087031
:1001E00001D3D00822080808E630E711120AFC12F1
:1001F00001FD080808C64480C618181822181818E7
:10020000E9799EC608CAC608CBC608CCC6C370200A
:100210007996CACBCC7019798ECBCC70137986CCF9
:10022000700EF9802ACA33CACB33CBCC33CC331906
:1002300030E7F2CCCBCA3350147004EA30E00DE45E
:10024000CA3ACACB3BCBCC3CCC500209C3E913C65B
:10025000CC182313C6CB18C6CA18C6F9228A088B35
:10026000098C0A8D0B78081202BC30F0431203018E
:10027000803E8A088B098C0A8D0B78081202BC20FC
:10028000F01430E72B74FFFCFBFA747F8022E4FC4F
:10029000FBFA7480801AB48008BC00F2BB00EF80C7
:1002A0000F50EBF9E4C39AFAE49BFBE49CFCE4995D
:1002B000C6CC18C6CB18C6CA18C6F922E4C9C608E7
:1002C000CAC608CBC6D3330308CCC63392F0C39456
:1002D0007F402E94184019C9B90704CACBCC2250CC
:1002E00025C309CA33CACB33CBCC33CC33D9F422A0
:1002F000F4600DC9CCC313CB13CBCA13CAD9F6CC47
:1003000022E4FCFBFA2214FCFBFA22E6C333184673
:100310001846184622E7C3331947194719472218C8
:100320001818E6084608700AE608C3337005E63375
:10033000F4220822191919E7094709700AE709C3C5
:10034000337005E733F4220922E6084608C3134652
:1003500008336002E633F422E7094709C31347096B
:10036000336002E733F422120349601C1203586021
:100370001712030B70071203157001D322C0D0129D
:1003800003157006D0D0B322C32233D0D05014301E
:10039000E0F6C3E7960809E7960809E7960809E733
:1003A00096B32220E0D5E6970809E6970809E69774
:1003B0000809E697B322120349601B12035860161E
:1003C00012030B7007120315600CB322C0D0120386
:1003D000157005D0D022C32233D0D0501330E0EBBB
:1003E000C3E7960809E7960809E7960809E7962201
:1003F00020E0E4E6970809E6970809E6970809E689
:10040000972200120349604F1203586012E754808C
:1004100066F612031F7011120315703B090909F4E7
:10042000F618F618F618F622120334701512030B9C
:1004300008080860EAE6447FF618768018E4F618A3
:10044000F62212030B60161203157012E4F608F67A
:1004500008F608E65480F609090918181822EAC0B7
:10046000E0EBC0E0ECC0E0EDC0E0E687F0A4FBAC60
:10047000F008E687F0A42CFCE435F0FA1809E687CA
:10048000F0A42C4B60027401CA35F0FCE433FB0984
:10049000E687F0D2F7A42CCB35F0FC1908E687F0FC
:1004A000A42BCC35F0FBE433FD0819E687F0D2E746
:1004B000A42C4ACB35F0CD3400FC09E687F0D2E716
:1004C000A42DCC35F0FDE433FA0918E687F0D2F715
:1004D000A42CCD35F0CA3400FC08E687F0D2E7D270
:1004E000F7A42ACC35F07A7E20E70B0ACB33CBCDAC
:1004F00033CDCC33CC33CB3350147004ED30E00E1D
:10050000D2F1E4CD3DCDCC3CCC3B5005DA05C2F177
:10051000EB547FC63308E63392F0FBE73309E73349
:10052000C39A502D2B70190C0D4C4D70151806E602
:1005300008C333700D20F10AA2F013F6E418800B03
:100540004024E4F630F002768018F618F618F680AB
:1005500024D33B14501074FFA2F013F6187680E4F5
:1005600018F618F6800FA2F013F618E63303F61803
:10057000ECF618EDF6D0E0FDD0E0FCD0E0FBD0E0EA
:10058000FA221203586046120349603DE968700878
:10059000F618F618F618F622748067F71205B609F1
:1005A0000909748067F722120349601D120358700D
:1005B00005191919801A12031F701F120334C37012
:1005C00003E6673319191940071818182208080894
:1005D00074FFF618F618F618F62212033460171294
:1005E0000315702192F012030B7019501720F014AC
:1005F000080808090909E7F61819E7F61819E7F6CF
:100600001819E7F62212030B60E6E869701F080864
:10061000E62480F608E436F618547FB47F0CE654DE
:10062000806007F6E418F618F622181822E9C6CCFE
:1006300008C6CD08C6CE08C6CFC0E0E8C0E0EAC014
:10064000E0EBC0E009E9F809E7FA09E7FBE6F91889
:10065000E6F8C3EC98ED99EE9AEBC2E7F5F0EFC23D
:10066000E795F0500E600CEBCFFBEACEFAE9CDF93E
:10067000E8CCF8EAA2E7D2E7FAEB33FB13F5F0EEA9
:10068000A2E7D2E7FEEF33FFC5F013A2E730E601A1
:10069000B313C5F0C3C0E0C0F07F00C39BFB605B39
:1006A0009418600C401AD0E023F9D0E0F8020785D6
:1006B0008AF0E9486003D2F0E4AFF0FAF9F8803B41
:1006C000EB30E40D89F0EA6003D2F0E4AFF0F9CA50
:1006D000F8EB30E30D88F0EF6002D2F0AFF0E4CA3F
:1006E000C9F8EB54076014FBC3EA13FAE913F9E8FD
:1006F00013F8EF135002D2E0FFDBEDD0E0C0E030A2
:10070000E739C3E49FFFF5F0EC98FC42F0ED99FD6A
:1007100042F0EE9AFE42F0D0E0F9D0E0F8E5F06069
:100720007AE923F9EE20E742D8028067C3EF33FF6E
:10073000EC33FCED33FDEE33FE80EAEC28FCED39C2
:10074000FDEE3AFED0E023F9D0E0F84002801BC372
:10075000EE13FEED13FDEC13FCEF135002D2E0FF9D
:1007600008B800067F7F74FF802EEF3350178CF09F
:1007700020F00260100CBC000C0DBD00080EBE0085
:100780000408E860DFE933E813FFEE2313FE4F4D62
:100790004C8008E95480FFE4FEFDFCEE33EF33F4B7
:1007A0007004FCFD7E80D0E0FBD0E0FAD0E0F8D011
:1007B000E0CFC618CEC618CDC618CCC6F922120393
:1007C00049700418181822120358700D74FFF61897
:1007D00019F61819F61819F622E7548066F612036E
:1007E0000B700F12031570F014F608F608F608F6F1
:1007F00080D1120315700CF608F608768008E644DE
:100800007F80EC120337700C12032260BFE6548025
:10081000F6E480BB120322700519191980A5E86956
:10082000700C763F18768018F618F6E8F922E6CDB7
:10083000C0E018ECC0E0E633CD33CDD313F6E719B2
:10084000FCE7191933CC33C3947F400ECD9D50245F
:1008500008E65480F6E418F6800FF4043D145014B2
:1008600008E6447FF6187680E418F618F6D0E0FC27
:10087000D0E0FD22CCD313CCFD18E4C6CBC0E018E9
:10088000E4C6CAC0E00808ED08C633E613F618E46B
:1008900033C675F003C3CA97CA09CB97CB199C40DE
:1008A000047D08802EBD000302096716B6FF050609
:1008B00006081618C3CA33CACB33CB33CA27CA09B2
:1008C000CB37CB193CC37D08803E187D0820E75C00
:1008D000C633C6CA33CACB33CB33DDF1D5F0EB30E8
:1008E000E77BCA97CA09CB974ACB199C406F4B70DC
:1008F00025E620E0218066187D08C3CA97CA09CB87
:1009000097CB199CD3C633C6CA33CACB33CB33502B
:10091000C9DDE7D5F0E1D3E4C636C608C636C60859
:10092000C636C608C636C61818188031C3CA97CA54
:1009300009CB97CB199CB34097C633C6CA33CACBF1
:1009400033CB33DD34D5F02EC6A2E0C640C8CA276B
:10095000CA09CB37194A70BECB3CB480B90808E647
:100960003308E633601F181818D0E0FAD0E0FBD047
:10097000E0FCD0E0FD22187D08CA27CA09CB37CB9E
:10098000193CD3808013F618E4B67F11F618B6FF31
:100990000EF618C60470D20808768080CAF618F6DB
:1009A00018F680C5080808EAC0E0EBC0E086F0E76A
:1009B000A4FA180986F0E7A42AFA180986F0E7A431
:1009C0002AFA180986F0E7A42AFA1986F0E7A4FBA8
:1009D000E5F02AFA190886F0E7A42BFBE5F03AFACD
:1009E000190886F0E7A42BFBE5F03AFA18180986F7
:1009F000F0E7A4C5F02BFBE43AFA1908E7C5F0C606
:100A0000A426F6E5F03BFBE43AFA1886F0E7A4F6F4
:100A1000E5F00826F6E43B08F6E43A08F6D0E0FBF9
:100A2000D0E0FA22E4CFC0E0E4CEC0E0E4CDC0E004
:100A3000E4CCC0E075F020C3E633F608E633F608F0
:100A4000E633F608E633F6181818EC33FCED33FD00
:100A5000EE33FEEF33FFC3EC9709ED9709EE9709EC
:100A6000EF97191919400FFFEC97FC09ED97FD0955
:100A7000EE97FE191906D5F0BEECF709EDF709EE71
:100A8000F709EFF7191919D0E0FCD0E0FDD0E0FE2E
:100A9000D0E0FF22120AFF181818120A24120AEBDB
:100AA00019191922120AEB191919080808E6181859
:100AB0001820E7E0120A24120AFF18181822090960
:100AC00009E719191920E7DC080808E618181820A2
:100AD000E703020A24120AFF181818120A24120A3D
:100AE000FF181818120AEB19191922E4C397F7090D
:100AF000E497F709E497F709E497F722181818E440
:100B0000C396F608E496F608E496F608E496F6220C
:100B10006017080808C6A2E713C618C613C618C689
:100B200013C618C613C6D5E0E922E056F008A3E0C4
:100B300056F008A3E056F008A3E056F022E0F608CD
:100B4000A3E0F608A3E0F608A3E0F622E6F008A387
:100B5000E6F008A3E6F008A3E6F022E0FAA3E0FB43
:100B6000A3E0FCA3E0FD22EAF0A3EBF0A3ECF0A3EA
:100B7000EDF022CAC0E0E6F0A308DAFAD0E0FA22EB
:100B8000CAC0E0E0A3C582CCC582C583CDC583F0D1
:100B9000A3C582CCC582C583CDC583DAE6D0E0CAC1
:100BA00022C3E498F8E499F9120BE28026C3E49A90
:100BB000FAE49BFBE920E7E9120BE2E498F8E499F8
:100BC000F922C3E498F8E499F9120BE2E498F8E406
:100BD00099F9C3E49AFAE49BFB22EB20E7CFE920E2
:100BE000E7E0B90010BB0008E88AF084F8AAF02218
:100BF000E4FBC8FA22EB70227B10C833C8C933C9A2
:100C0000335007C39AC3DBF280069A50012ADBEA0D
:100C1000C833F4C8C933F4C9FA2275F008E4C833FC
:100C2000C8C933C933C99AC99B5004C92AC93BD51D
:100C3000F0ECFBC833F4C8E4C9FA22600D08C6A280
:100C4000E713C618C613C6D5E0F322600C08C6C366
:100C500013C618C613C6D5E0F422700422600D181E
:100C6000C6C333C608C633C6D5E0F4182225101013
:100C7000AF08F510400215118008F510400215115B
:100C8000D2AF22C0D0251010AF08F51050020511C8
:100C90008008F51050020511D2AFD0D0222510F5F2
:100CA0008210AF08F510400215118008F5104002BF
:100CB0001511D2AF851183222510F582E43511F587
:100CC0008322E4732510C582C0E0E51134FFC5839B
:100CD000C0E0E510C3958224F810AF088583118524
:100CE00082108008858311858210D2AFCEF0A3E5F3
:100CF00020F0A37808E608F0A3DEFAEFF0A3E58180
:100D000024FAF8E608F0A3E608F0A3E608F0A30842
:100D100008E608F0A3E608F0A315811581D0E0FEEF
:100D2000D0E0F8158115811581E8C0E0EEC0E02221
:100D3000851183851082E0A3FEE0A3F5207808E00A
:100D4000A3F608DFFAE0A3FFE0A3C0E0E0A3C0E061
:100D5000E0A3C0E0E0A3C0E0E0A3C0E010AF0885DE
:100D600082108583118008858210858311D2AFD0CF
:100D700083D08202007E74028000C0E0F404120C72
:100D80009DD0E0120B73227404800474028000CCA6
:100D9000C0E0EDC0E0E510C39CCCAD1150011D10CA
:100DA000AF068C108D1180068C108D11D2AF120BF6
:100DB00080D0E0FDD0E0FC22D083D082CCC0E0E443
:100DC00093A36006120DE21470FAE493A360061276
:100DD0000E011470FAD0E0FCE493A3C0E0E493C0E9
:100DE000E022C0E0E493A3D39C5010E493A3C39CFF
:100DF000400AD0E0D0E0D0E0020DD5A3A3A3D0E01C
:100E000022C0E0E493A36C7009D0E0D0E0D0E0020F
:100E10000DD5A3A3D0E02274F1120CC474A3120C5C
:100E20006D746C120CB8E0F50CA3E0F50D746E1245
:100E30000CB8122A0C7404120CB8121B7F74061220
:100E40000CB8ECF0A3EDF07418120CB8E4F0A3F0B9
:100E5000800D850C82850D83A385820C85830D858D
:100E60000C82850D83E0F970127418120CB81224EC
:100E70000A745D120C837F07020D30742569703887
:100E8000740C120CB8E4F0A3F0740E120CB8E4F079
:100E9000A3F07410120CB8E4F0A3F07412120CB8A2
:100EA000E4F0A3F07414120CB8E4F0A3F07416127A
:100EB0000CB8E4F0A3F0801D851082851183AA820E
:100EC000AB8312017DC3EB1223D150867AFF7BFFE7
:100ED000809F740148F8850C82850D83A385820C60
:100EE00085830DE0FA24E060E924FD601624F860B3
:100EF0000A24FE600A24FD600E8010740280D574FE
:100F00000480D1740880CD741080C9742A6A703B43
:100F1000121638741C120CB8121650741C120CB82D
:100F2000121AE6C31223D15013C3E49CFAE49DFBCA
:100F3000741C120CB8121B7F740448F8850C82854F
:100F40000D83A385820C85830D8037741C120CB829
:100F5000E4F0A3F08027741C120CB812160A700378
:100F6000747F6B600B1215DE741C120CB8121B7FA1
:100F7000850C82850D83A385820C85830D12161145
:100F800040D4850C82850D83E0642E600C741A12A7
:100F90000CB874FFF0A3F0805DA385820C85830DEF
:100FA000E0642A701A121638741A120CB81216500D
:100FB000850C82850D83A385820C85830D80377413
:100FC0001A120CB8E4F0A3F08027741A120CB812AD
:100FD000160A7003747F6B600B1215DE741A120C04
:100FE000B8121B7F850C82850D83A385820C8583B7
:100FF0000D12161140D4741E120CB8E8121ABC85DA
:101000000C82850D83E0FC7D007A4D7B0F1201413F
:101010008B09EA45096011850C82850D83E0F8A3F0
:1010200085820C85830D800278007420120CB8E84C
:10103000F0FA850C82850D83A3A882A98374686A5F
:101040007014850C82850D83E0646870257420120D
:101050000CB874628017746C6A7017850C82850DE9
:1010600083E0646C700C7420120CB87471F0880CFE
:10107000890D7421120CB8A882A983740A120CB8C5
:101080001223DF850C82850D83E0F50E120DB80268
:101090004547EB116567EB110D25C21041EB115867
:1010A0007F1261EB11630114646D13696D136E8C13
:1010B000116F7F1270451173D310757F12787F12F4
:1010C0002314740C120CB81216C8120CB81215D8CE
:1010D00002144C8E828F83121AD57408120CB8E851
:1010E000F0A3E91216497408120CB812240A741AF3
:1010F000120CB8E0F508A3E0F509C31223D1500D96
:101100001201478A088B09A808A909802C780812BF
:101110000D767C007D0012012F7402120C83EA4BC5
:10112000600D7408120CB81215FDF8EB9980097463
:101130001A120CB8E0F8A3E0F9740E120CB8E8F03B
:10114000A3E90214558E828F83122A65121B7FA396
:10115000E4F0A3121649900F667808120B3D851033
:10116000828511837808120B2A7421120CB8A88288
:10117000A9837408120CB81223DF79788510828550
:101180001183AA82AB831201650214567420120CDB
:10119000B8E0249E603F24FA601024FE602324FE01
:1011A000601F24FB602524F7600D7418120CB81220
:1011B000167F12162280877418120CB812167F80C0
:1011C000F17418120CB812169180E77418120CB84A
:1011D00012169180DD7418120CB8E0C0E08E828F78
:1011E00083122A24122444D0E080C77420120CB841
:1011F000E0644C12163F120B3D8E828F83E0240474
:10120000F8121670120B4C7402120CB8A3E0548042
:101210006010740C120CB81216C8120CB81215D249
:10122000802E741E120CB8E0F854026010740C1278
:101230000CB81216C8120CB81215CC8013E8A2E034
:101240005017740C120CB81216C8120CB81215C62E
:10125000F0740C120CB8122B84740C120CB8121609
:10126000C8120CB81215B5120CB81223DFA90E85DE
:101270001082851183AA82AB831201710214567405
:1012800020120CB8E0F8746C6860277471686022F2
:10129000746A68601D8E828F83122A24F508A3E089
:1012A000F509E4F50AF50B8E828F83E02402080825
:1012B000800E12163F120B3D8E828F83E02404F8BD
:1012C000121670120B4C8510828511837808120B50
:1012D0003D750A00750B007420120CB8E0F87468B4
:1012E00068602B746268701C851082851183780891
:1012F000120B3D851082851183E508121ABCA3F0FC
:10130000A3F080157474686005747A68700B85109A
:10131000828511837808120B4C741E120CB8E054AD
:101320000870030213E88510828511837808120B78
:101330003D121AB370030213E87420450E647860FE
:10134000030213E8740C120CB81216C8120CB8126F
:1013500015A67430F0740C120CB8122B84740C1295
:101360000CB81216C8120CB81215C08072EEFAEF43
:10137000FB7420120CB8E0F9120159851082851116
:1013800083120B67851082851183C082C083900F02
:101390006A7808120B3DD083D08278081201AA50D7
:1013A00010740C120CB81216C8120CB81215D28098
:1013B0002E741E120CB8E0F854026010740C120C5B
:1013C000B81216C8120CB81215CC8013E8A2E0505F
:1013D00017740C120CB81216C8120CB81215C6F0FD
:1013E000740C120CB8122B84740C120CB81216C8A0
:1013F000120CB81215B5120CB81223DFA90E021187
:101400007C8E828F83122A24C0E0740C120CB812D6
:1014100016C8120CB81215A6D0E0121622E8F0A3D6
:10142000E98029740C120CB81216C8120CB81215E7
:10143000D8F0740C120CB8122B84E50E6018740CE2
:10144000120CB81216C8120CB81215C0F0740C1297
:101450000CB81223EFF0850C82850D83A385820CD6
:1014600085830D741C120CB8C082C083740C120CDE
:10147000B8122400D083D082E0C398FAA3E099FB8D
:101480007412120CB8121689740E120CB812168946
:101490007414120CB81216897410120CB812168932
:1014A0007416120CB81215FDF508EB99F509741EA7
:1014B000120CB8E05404700E7920AC08AD09121675
:1014C000B57003020ECC740C120CB8120D8B742381
:1014D000120CB8AC82AD837402120CB812159C12B7
:1014E0000C838B0BEA450B6003020ECC793074122F
:1014F000120CB81216AC7003020ECC740E120CB89B
:10150000120D8B740A120CB8121AE67402120CB87F
:1015100012159C120C838B0BEA450B6003020ECC58
:1015200079307414120CB81216AC7003020ECC741D
:1015300010120CB8120D8B7410120CB81224007417
:101540000A120CB8E028FCA3E039FD7402120CB8B2
:1015500012159C120C838B0BEA450B6003020ECC18
:1015600079307416120CB81216AC7003020ECC74DB
:101570001E120CB8E054047003020E5F7920AC0810
:10158000AD09851082851183AA82AB8312015F8B1E
:1015900009EA45096003020E5F020ECCAA82AB8302
:1015A0001201837402221215AA22E58228F582E52F
:1015B0008339F58322E58228F8E58339F974082216
:1015C0001215AAE50E221215AA7420221215AA7469
:1015D0002B221215AA742D221215AA742522EA753F
:1015E000F00AA4FAACF075F00AEBA42CFBE5082A8B
:1015F000FAE43BFBEA24D0FAEB34FFFB221216019B
:1016000022E0F8A3E0F9EAC39822122A3474FF6AB0
:1016100022850C82850D83E0F50874D02508C394DB
:101620000A2212162622121667F812162E22A3E09C
:101630003400F98E828F8322122B1B122A34228EC1
:10164000828F83122A3A780822121626122AEF2253
:10165000EAF0A3EB121667FAA3E03400FB8E828F48
:1016600083EAF0A3EBF022F08E828F83E024022243
:1016700012162E122AEF8510828511837808221205
:101680002404122B1B122A1622121601FAEB99FBC4
:1016900022122A343395E0FC8E828F83122A28127C
:1016A0002A3FEAF0A3EBF0A3ECF0A322E0FCA3E0D6
:1016B000FD1216B522851082851183AA82AB831292
:1016C000015F8B0BEA450B2212240474212274F66D
:1016D000120CC4E9249E603C24FA604124FE60128E
:1016E00024FE600E24FB600A24FD603124FA6010A1
:1016F000802B1223FCE8240412172D120B5B802888
:101700001223FCE8240212172DE0F508A3E0AA0832
:10171000FBE480121217443395E0FB800912174452
:10172000A3E0FB3395E0FCFD7F02020D3012173180
:1017300022FCE93400FD8A828B83ECF0A3EDF08873
:10174000828983228A828B83122404E8240212175E
:1017500031E0FA2274F2120CC474FF120C6DE985A8
:101760001082851183F08A0A8B0B8C088D097E000C
:101770007F008008EE24010EEF3400FFC3EE9508D1
:10178000EF1229C05029750C01750D00780C120D4F
:10179000767402120CB8AC82AD83AA0AAB0B121598
:1017A000A0120C838B0DEA450D60C97A0080027A85
:1017B000017B007401120C837F06020D3074F0125D
:1017C0000CC474ED120C6D7403120CB8121B7FE97B
:1017D000851082851183F07403120CB8122443A380
:1017E000A3A3A3A3A3A3A3A3A31224007409120C6D
:1017F000B81223DF851082851183E0646F7009744D
:1018000005120CB874088017E044206478600974ED
:1018100005120CB8740A80077405120CB874101203
:101820001ABC04120CB8743C121ABC7403120CB823
:10183000121643120B3D740B120CB87808120B4CA5
:10184000851082851183E064646005E0646970231B
:10185000900F6A78081201BF4019740B120CB87807
:1018600008120B3D7808120AFF740B120CB87808A6
:10187000120B4C7403120CB81224487411120CB8D9
:101880001229EC120CB812241E7407120CB812297B
:10189000EC120CB8E0241A122421740F120CB812A6
:1018A00023DF740B120CB87808120B3D121AB370B8
:1018B0003E740F120CB8121AD5E849703274051232
:1018C0000CB8E0640860030219BE7407120CB81269
:1018D0002B0A70030219BE7401120CB8743B121A61
:1018E000BC7409120CB8E0243B12242E0219BB74FC
:1018F00001120CB8E024FFFAA3E034FFFB740112DC
:101900000CB8121B7F740B120CB8780C120B3D74C0
:1019100005120CB8121AEC120A24E5082430F8C398
:10192000943A400B851082851183E024AF28F87427
:1019300009120CB8E02AFAA3E03BFBE88A828B8309
:10194000F0740B120CB8780C120B3D7405120CB825
:10195000121AEC120A24740B120CB8780C120B4CED
:10196000740B120CB87808120B3D121AB36017747E
:1019700011120CB8122443EAF8EBF9C3E098A3E083
:101980009950030218EF7405120CB8E06408702E29
:101990007407120CB8122B0A60248A828B83E064CD
:1019A00030601B7401120CB81224657401120CB85B
:1019B0001224007409120CB812245A7430F0740105
:1019C000120CB8122400743CC398F8E499F974031B
:1019D000120CB8E0240E1229F21223DF7401120C4B
:1019E000B812240A7409120CB8E02AFAA3E03BFBEF
:1019F0007411120CB8121ACC121B7F740F120CB88F
:101A00001229FD121AE67403120CB8E02412FAA38C
:101A1000E03400FBC3E89CE99DA2D265D033501AA4
:101A2000ECC398F8ED99F98A828B831223DF74074F
:101A3000120CB8122A2454EF8073C3ED1223D15034
:101A40006D7407120CB8121ACCE054146410705E56
:101A50007403120CB8E0241C121AC1C082C0837433
:101A600003120CB8E0240C121AC1121AE6D083D06B
:101A700082E0C39CFEA3E09DFF8A828B83121AE65C
:101A8000EEC39CFCEF9DFDECC398F8ED99F9740151
:101A9000120CB81223DF7401120CB8121AF4400EA3
:101AA0007401120CB8E08A828B83F0A3E9F07413FE
:101AB0000223A3E5084509450A450B22F0A3E4F0FB
:101AC00022FCA3E03400FD8C828D8322E0FCA3E0A5
:101AD000F5838C8222121AD922121ADD22122A3E92
:101AE000E0F8A3E0F922E0FCA3E0FD221223AB78AA
:101AF0000C790822C3E09401A3E01224852274F03B
:101B0000120CC474FC120C6D851082851183121B9B
:101B10007FA3ECF0A3EDF07414120CB812240A9019
:101B20000F6E780C120B3D8044EAA2E0501D851028
:101B3000828511837808120B3D7808790C12040213
:101B40008510828511837808120B4C8A088B0974E2
:101B5000017808120C3BAA08AB09850C08850D0911
:101B6000850E0A850F0B780C7908120402EA4B7077
:101B7000B8851082851183120B5B74040223A3EADB
:101B8000F0A3EBF02274F0120CC474BE120C6D744E
:101B90000E120CB8121B7F7407120CB8E9F0741AFD
:101BA000120CB81223D5740E120CB8122443120B67
:101BB0005B7408120CB8120B67740E120CB8E02498
:101BC0001A122421740C120CB81223DF7407120CA1
:101BD000B8E04420C0E07404120CB8D0E0F06461B6
:101BE0006031740C120CB812247D500C740C120C61
:101BF000B812244374068018E84970177404120C54
:101C0000B8E06467700D740C120CB81224437401B0
:101C1000121ABC740E120CB8121AE67405120CB823
:101C2000AA82AB831201898A088B09AE08AF09EE3C
:101C3000FCEFFD740E120CB8122448E8FAE9FB74AC
:101C400007120CB8E0249FF508740E120CB8E024BB
:101C50000E12242E74026E7001EF70271223E350CF
:101C6000067C547D0F80047C587D0F750803750930
:101C7000007808120D768A828B83122A5C120C83FC
:101C80000223A1C3EC9401ED1223D140111223E3EE
:101C900050067C5C7D0F80D37C607D0F80CD74040A
:101CA000120CB8E0646170488A828B8312244374FA
:101CB00030F08A828B8312247388828983A3AE8258
:101CC000AF838A828B83EEF0A3EFF07407120CB817
:101CD000E06461700474788002745888828983F0AB
:101CE000740E120CB81224522402F0A3E03400F057
:101CF000EC4D70147402120CB8E4F0A3F0740512E9
:101D00000CB8E4F0A3022371741B120CB8A882A9CA
:101D1000837418120CB81223DF7404120CB8E06438
:101D2000616003022056740C120CB812247D500C12
:101D30007402120CB87421F0A3E48011E8240108A5
:101D4000E93400F97402120CB8E8F0A3E9F0740267
:101D5000120CB81224737410120CB81223DF740E14
:101D6000120CB8122443120B5B7412120CB8120B33
:101D7000677408120CB87808120B3D900F6A780C43
:101D8000120B3D7808790C1203B67412501A120C1B
:101D9000B87808120B3DE50BB2E7F50B7408120C8E
:101DA000B87808120B4C800E120CB8120B5B74083A
:101DB000120CB8120B677405120CB8E024FC122444
:101DC0006C741A120CB8E4F0741B120CB8A882A937
:101DD00083800524071224211223D97410120CB811
:101DE000121AF45003021EF77408120CB878081285
:101DF0000B3D900F72780C120B3D7808790C120392
:101E0000674003021EF7900F76120D87740C120CB8
:101E1000B8AA82AB8312014D7404120C83740812A9
:101E20000CB8120B5B1202727412120CB878081202
:101E30000B4C7410120CB8E024F912246C741012BC
:101E40000CB8121AF4402A7408120CB87808120B55
:101E50003D7412120CB8780C120B3D780C1201E58F
:101E60007808790C1205827408120CB87808120BE5
:101E70004C851082851183E02407122ADF7A077BC4
:101E800000803412248D7412120CB87808120B3DA5
:101E9000E508540FC0E012243DD0E0F07412120C9B
:101EA000B87808120B3D74047808120B10741212E3
:101EB0000CB87808120B4C7412120CB8C082C08394
:101EC000900F727808120B3DD083D08278081201EF
:101ED000AA40081223BA1223D150A81223BA1223FF
:101EE000D1851082851183E05003021DD312249402
:101EF00012243DE4F080E4851082851183C082C005
:101F0000837418120CB8122400D083D082E0C398D6
:101F1000F8A3E099F97410120CB81223DF741B12A5
:101F20000CB81223D57410120CB8C082C08374028E
:101F3000120CB8122400D083D08212240E501074D8
:101F400010120CB81224007402120CB81223DF74A1
:101F500002120CB8C3121AF8500302202C74021299
:101F60000CB8C082C0837410120CB8122400D08345
:101F7000D08212240E50197402120CB8122400746C
:101F80001A120CB81223C4C3940840047A0F8002BA
:101F90007A007402120CB812240080087402120C29
:101FA000B8122465E824FF18E934FFF9741A120CFA
:101FB000B81223C46A60E5740F6A7003E004F0C3CA
:101FC000E91223D15024741A120CB8A882A983856F
:101FD00010828511831229D5120CB8122428120CF4
:101FE000B8E02404F0A3E03400F07402120CB8123C
:101FF0002400802A851082851183E028FAA3E03925
:10200000FB8A828B83E02430FCC3943A400A740735
:10201000120CB8E024C62CFCEC8A828B83F0E824F6
:10202000FF18E934FFF9C31223D150C8740C120C05
:10203000B8122443C3121AF8400302237274021226
:102040000CB8E024FFF8A3E034FFF9740C120CB8CC
:10205000122A120223717408120CB87808120B3D70
:10206000900F6A780C120B3D7808790C1203B65069
:102070001A7408120CB87808120B3DE50BB2E7F59C
:102080000B7408120CB87808120B4C7405120CB8BB
:102090001223AB900F7A780C120B3D7808790C1252
:1020A00009A4900F7E780C120B3D7808790C120A67
:1020B000BE7405120CB8E508F0A3E509F07405122A
:1020C0000CB81224007407C398F508E499F50912B6
:1020D00023CA401F7808120D76740A120CB8120B2E
:1020E0005B12016B7402120C837408120CB8120B91
:1020F0006780417408120CB8780C120B3DC3E4954C
:1021000008F50AE49509F50B780A120D76900F820E
:10211000120B5B12016B7402120C838A088B098C00
:102120000A8D0B780C79081207BE7408120CB87867
:102130000C120B4C7404120CB8E06466700D74053C
:10214000120CB8E0240A1224218004780679007465
:102150000C120CB8122A56FEA3E039FFC3EE940B02
:10216000EF1223D140047E0A7F00741A120CB87457
:1021700030F0741B120CB81223D5C3EE9401EF1289
:1021800023D1500302225D7408120CB8120B5B12AB
:10219000025D7412120CB87808120B4C122AD67415
:1021A00017120CB87408F07412120CB8780C120BD9
:1021B0003D900F867808120B3D780C7908120A249E
:1021C0007416120CB8E508F07412120CB8780C12E0
:1021D0000B3D900F867808120B3D780C7908120A97
:1021E000247412120CB8780C120B4C12248D741635
:1021F000120CB8E02430C0E012243DD0E0F0741797
:10220000120CB8E014F0709F122AD6EE24F8FEEFFC
:1022100034FFFFC3EE9401EF1223D1500302217A61
:102220007408120CB8780C120B3D7408120CB8121A
:102230000B5B12025D7808120200780C7908120517
:1022400082900F8A7808120B3D780C7908120402EC
:102250007408120CB8780C120B4C0221878510827E
:10226000851183C082C0837418120CB8122400D068
:1022700083D082E0C398FEA3E099FF741B120CB8D0
:10228000A882A9838019EE24FF1EEF34FFFF740596
:10229000120CB812246585108285118312247312E2
:1022A00023D9122A1E643060DD7404120CB8E06475
:1022B00066700A7405120CB8122473800DE0646510
:1022C00070047801800278007900740C120CB81246
:1022D0002B107402120CB81229D5120CB8E0F8C3F6
:1022E000EE98EF1224175005EEF0A3EFF0740212EF
:1022F0000CB8C3121AF8407A7402120CB8C3E09EEC
:10230000A3E09FA2D265D03350167402120CB8E03D
:10231000122A0112245AE0C3943540047C39800209
:102320007C307402120CB812240A80087402120C59
:10233000B8122465EA24FF1AEB34FFFB851082856E
:102340001183E02AF8A3E03BF988828983E06C607E
:10235000DB74396C7003E004F0C3EB1223D150122C
:1023600012248D7402120CB8122428120CB81223F5
:10237000EFF07405120CB8120D8B7404120CB81225
:102380000D8B7404120CB8121AE6740B120CB8E020
:10239000F97412120CB812240A1201777404120C88
:1023A000837442120C837F08020D30E0F508A3E02D
:1023B000F5093395E0F50AF50B22EA24FF1AEB3410
:1023C000FFFBC3221215AAA3E022C3E5089401E58E
:1023D0000912248522A882A983851082851183127F
:1023E0002AEF227403F0A3E4F0E508C3941A221242
:1023F00023F322E02401F0A3E03400228A828B83BD
:1024000012240422E0F8A3E0F922122A3422C3E0C5
:1024100098A3E01224172299A2D265D03322E02497
:102420001EF8A3E03400F922122AD17405221224E6
:102430003222F8A3E03400F9888289832285108251
:10244000851183E0122A3F22E02408F8A3E034003B
:10245000F922E0240C122432E022E028FAA3E03929
:102460008A82F58322E024FF12246C22F0A3E03458
:10247000FFF022E02401F8A3E03400F922121AD977
:10248000C3122485229400A2D265D0332285108203
:10249000851183E024FFF8A3E034FF122AE82274B8
:1024A000F0120CC474E1120C6D7403120CB8121B00
:1024B0007F7402120CB8E9F08C0A8D0B742F120C89
:1024C000B8E0F50CA3E0F50D7431120CB8122A0C2B
:1024D0007403120CB8E0241A122455F508A3E0F591
:1024E00009C3E50C9401E50D1223D1500C750C01C4
:1024F000750D00750A64750B0F7403120CB8E02497
:1025000016122421740F120CB81229EC120CB8E028
:102510002410122421740B120CB81229EC120CB8DE
:10252000E024141224217409120CB81229EC120CA4
:10253000B8E0240E122ADF7403120CB81224487477
:1025400007120CB81229EC120CB812241E740512D2
:102550000CB81229D5120CB8E04420F874666860F3
:1025600026746768600302277DC3EE94FCEF94FF36
:10257000A2D265D0335003022786C3EE9508EF122E
:1025800029C04003022786EE24010EEF3400FF74B9
:102590006668602C7405120CB8122B0A700B122995
:1025A000B95006850C08850D09C3E5089EF508E5B8
:1025B000099FF509C31223D150067508007509005B
:1025C0007407120CB8122A65122A4CF8EB39F97408
:1025D0000D120CB81223DFC3EE9401EF1223D14089
:1025E0000302267C740D120CB81224437430122A94
:1025F000F5500A7405120CB8122B0A60108510826F
:10260000851183122A4CF582EB39122ABFC3E49E4E
:10261000F8E49FF9C3E50898E5091224175009C3A7
:10262000E49508FEE49509FFC3E49EFCE49FFD7475
:1026300009120CB8122443ECF0A3EDF0E5082EF5D6
:1026400008E5093FF50912299D500685080C850902
:102650000D740B120CB8122443E50CF0A3E50DF039
:10266000780C120D76AC0AAD0B7402120CB8122A5B
:102670007F120C83122AB3740F02292EC3E50C9E1D
:10268000E50D9FA2D265D0335062780C120D76AC66
:102690000AAD0B740F120CB8122A5C120C83122AAA
:1026A0001E122AAAEEC3950CF8EF950DF9740912C3
:1026B0000CB8122A471223CA500A7405120CB81219
:1026C0002B0A6017122A8C120CB81229FD12245AF8
:1026D000742EF0740B120CB8122ACA740F120CB8B4
:1026E000122443E508F0A3E5090229348E0E8F0F6A
:1026F000780E120D76AC0AAD0B740F120CB8122ABC
:102700005C120C83122A1E2EF0A3E03FF0C3E50CEE
:102710009EF50CE50D9FF50D1223CA500A740512A3
:102720000CB8122B0A601B851082851183122A2D8A
:102730007407120CB8122A242AF8A3E03B888212EC
:102740002ABF12299D500685080C85090D780C12A8
:102750000D76E50A2EFCE50B3FFD7402120CB81253
:102760001AD57409120CB8122A56FAA3E039FB12D2
:1027700001357402120C83122A9802292EE064613A
:10278000703A7470803D1229B950107405120CB85B
:10279000122B0A7006850C08850D091229ACC3128C
:1027A00023D150067508007509007402120CB8E0B8
:1027B000646770047465800B74458007E064417041
:1027C000037450F07407120CB8122A2D850A828502
:1027D0000B83E0C0E0122A6FD0E0F0850A82850BFF
:1027E00083A385820A85830B122AF6500A74051288
:1027F0000CB8122B0A603E122A6F742E122AF54072
:1028000034E50C24FFF50CE50D34FFF50D12299D80
:10281000500685080C85090D780C120D76AC0AADB2
:102820000B7402120CB8122A7F120C83122A98120F
:102830000CB8122A47122A8C120CB8122A56F50A22
:10284000A3E039F50B7402120CB8E0850A82850BFF
:10285000831229E3A3A882A983C3EF1223D1850A97
:1028600082850B834009742BF0880A890B801274CF
:102870002DF0880A890BC3E49EF8E49FF9E8FEE98D
:10288000FF75080075090080477411120CB8858225
:102890000C85830D780C120D767C0A7D00EEFAEF24
:1028A000FB1201297402120C837413120CB8E0C0DD
:1028B000E07415120CB81229C8D0E0F07411120C93
:1028C000B8122A0CE5082401F508E5093400F509D9
:1028D000C3EE9401EF1223D150AFC3E50894021266
:1028E00023CF500F7402120CB8E0442064657003CB
:1028F0001229DBE5084509701C1229DB801C12290E
:10290000AC7415120CB81229C8E02430850A8285EF
:102910000B831229E31223CA50E4122A8C120CB83A
:10292000122B10E50AC398F8E50B99F9740B120CF9
:10293000B8122A12F07405120CB8122A2454146426
:102940001070557403120CB8122452122A01122B63
:10295000107409120CB8122B10740B120CB8122B35
:1029600010740F120CB8122B107403120CB8E02460
:102970001C1229F212240AC3E89AE99BA2D265D05C
:10298000335015EAC398FAEB99FB7403120CB8E0C4
:10299000241212242E121B7F741F0223A3C3E508E6
:1029A000950CE509950DA2D265D03322E50824FFE8
:1029B000F508E50934FFF50922C3E50C9508E50D96
:1029C0009509A2D265D03322E5822508F582E583F8
:1029D0003509F58322122AEF740222850A82850BBB
:1029E000837430F0A385820A85830B22122AEF7448
:1029F0000322FAA3E03400FB8A828B8322122B1F6E
:102A000022F8A3E0F985108285118322E0FEA3E07D
:102A1000FF22122A1622122B23E8F0A3E9228510A6
:102A200082851183122A2822122A3AE022122A31A0
:102A300022122A3AE0FAA3E0FB22122A3E22E0F810
:102A4000A3E0F583888222122A16F022122A50224D
:102A5000121ADDEA2822122B1FE02822122A341231
:102A60000135740222122A31851082851183228554
:102A70001082851183122A50F582EB39F5832212D8
:102A80002A50FAEB39FB1201357402228510828537
:102A90001183121AD9740722851082851183122A94
:102AA00028122AAA122AB3740922250CF0A3E035B1
:102AB0000DF022E508C3950CF8E509950DF922F50E
:102AC00083742EF0851082851183122ACE22122A59
:102AD0003A1223F3F022851082851183E02408F84E
:102AE000A3E03400122AE822F9851082851183E8D8
:102AF000F0A3E9F022F0851082851183122ACEC35B
:102B0000E5089401E50912248522122A2854082296
:102B1000122B1FE028F8A3E039F9228E828F83124E
:102B20002B2322E0FAA3E0F5838A822274F2120CAE
:102B3000C4EAFEEBFFEE2406F508EF3400F5098544
:102B40000882F58312240A8E828F83A3A3A3A31283
:102B50002443120CC28A0C8B0DA80CA90D85088287
:102B60008509831223DFE8496013EE2418F582EF0C
:102B70003400F583122B847A007B0080047AFF7B7B
:102B8000FF0217B8122AD12274F2120CC48A0A8BDF
:102B90000B8C088D09740E120CB8122A0C7A007B6B
:102BA000008015850882850983A3858208858309AD
:102BB000EE24FF1EEF34FFFFEE4F6016850882857E
:102BC0000983E0F9AA0AAB0B12017DC3EB1223D1F2
:102BD00050D10217B874F6120CC4EC2402ED340084
:102BE0000C0CFD8C828D83E0F508A3E0F5097407D9
:102BF0007808120C4BE508F8F4701B8A828B83E48A
:102C0000F0A3F08C828D83E0547F60067A027B0013
:102C100080407A0180F8E8602F8C828D83E0547FB9
:102C2000FEA3E05480443FFF8C828D83EEF0A3EF3F
:102C3000F0E82482F8E434FFF98A828B83E8F0A379
:102C4000E9F07AFF7BFF800A8A828B83E4F0A3F0AD
:102C5000FAFB7F02020D30C082C08374F8120C6D43
:102C60007828790FE4E9F8851082851183F07401E2
:102C7000120CB87428F07800790FE4E9F8C0E07419
:102C800002120CB8D0E0F07403120CB87400F074A7
:102C900004120CB8E0541FF07404120CB8E054E0B5
:102CA000F078147405120CB8E0F9E8C0E07405126D
:102CB0000CB8D0E0F07406120CB8E0C2E7F074066D
:102CC000120CB8E0549F4420C0E07406120CB8D037
:102CD000E0F07406120CB8E054E0F07407120CB87F
:102CE000E0543F4440C0E07407120CB8D0E0F074E8
:102CF00007120CB8E054CF4410C0E07407120CB8AF
:102D0000D0E0F07407120CB8E0C2E3F07407120CC4
:102D1000B8E0C2E2F07407120CB8E054FC4402C000
:102D2000E07407120CB8D0E0F0851082851183E4BE
:102D3000E583F582E582F5D5851082851183E582EC
:102D4000F5D47408120C83D083D08202007E74F014
:102D5000120CC4EAFEEBFF7410120CB87808120BC8
:102D60003DEE2402FCEF3400FD8C828D83E0F50CF7
:102D7000A3E0F50D7407780C120C4BE50CFAF47017
:102D8000148C828D83E0547F60047A0280027A0181
:102D90007B00022E3FEA70047A0080F4900F727874
:102DA000081201BF503A74FFC39AF50C95E0F50D77
:102DB000E4F50EF50F780C790812019540228C820B
:102DC0008D83A3E054806005900F458003900F49E8
:102DD0007808120B3D8E828F837808120B4C80AEE0
:102DE000C3E49AF50C95E0F50D95E0F50EF50F7836
:102DF00008790C1201958C828D835032E0547FFE4D
:102E0000A3E05480FFE5082AF508E5093400F50938
:102E100074077808120C5AEE4508F8EF4509F98C4A
:102E2000828D83E8F0A3E9F07AFF7BFF8011E4F064
:102E3000A3E05480F08E828F83E4F0A3F0FAFB7F4E
:102E400008020D3074F6120CC474FC120C6DEAFE0C
:102E5000EBFF740E120CB8A882A9837402120CB88E
:102E6000E8F0A3E9F0851082851183EEF0A3EFF07E
:102E70007402120CB88582088583097808120D76D1
:102E80008C088D097808120D767404120CB8AC8287
:102E9000AD837A8F7B011201537404120C838A086C
:102EA000851082851183E0FAA3E0F5838A82E4F03D
:102EB000C3EB9400A2D265D0335004AA08801285D7
:102EC0001082851183E0F8A3E0F9E8C39EFAE99F38
:102ED000FB7404120C837F02020D3074F4120CC4D4
:102EE00074FC120C6DEAFEEBFF7410120CB8E0F5E6
:102EF00008A3E0F509EEF8EFF9ECFAEDFB120BDAB6
:102F0000851082851183122F46E0F50AEC850AF0C0
:102F1000A4CCA8F089F0A428F8850AF0EDA428FD37
:102F2000EEC39CF8EF9DF97402120CB8122F46AC58
:102F300008AD09ECFAEDFB7404120B807404120C5A
:102F4000837F04020D30E8F0A3E9F085108285113B
:102F5000832253F1FE43F30C4386C075C50875C246
:102F60003BD2AAD2AF02007EC082C08380178A8281
:102F70008B83E0F5C18A828B83A3AA82AB83A2E90B
:102F800050FCC2E919E9C3940150E3D083D0820216
:102F9000007E74F7120CC47409120CB8E0FEA3E0B2
:102FA000FFEAF8EBF980208C828D83E088828983A8
:102FB000F0A3A882A9838C828D83A3AC82AD83EE1B
:102FC00024FF1EEF34FFFFEE4F70DC7F01020D3057
:102FD000C082C083851082851183E0F8A3E0F98A5E
:102FE000828B838009A3E824FF18E934FFF9E849BC
:102FF000600AE06C70EFAA82AB8380047A007B00E9
:10300000D083D08202007E1200FF12011112010B48
:1030100075D60175D10075D701E5D1A2E050FA7CD3
:103020003C7D0F7A147B0F12013B79147A147B0FCD
:1030300012011779147A007B0F12011780FEC082EB
:10304000C0838A828B83E0F8A3E0F5838882E9F06D
:103050008A828B83E02401FCA3E03400FD8A828B0A
:1030600083ECF0A3EDF0D083D08202007E74F712DF
:103070000CC474FE120C6DEAFEEBFF851082851104
:1030800083EEF0A3EFF0851082851183AA82AB83D3
:10309000790112012380E4C082C08353BEFBE59D09
:1030A000A2E650FA7A3F7B0012010553C6F853C6D8
:1030B000BFE59EA2E640FAD083D08202007EC082A5
:1030C000C083ECF88005A3AA82AB838A828B83E05D
:1030D000F9E8696007E970EE7A007B00D083D0825E
:1030E00002007EC082C0838A828B838001A3E0704D
:1030F000FCE582C39AFAE5839BFBD083D082020071
:103100007E8008EA24FFFAEB34FFFBEA4B70F402FE
:10311000007EC082C08312011DD083D08202007E57
:0331200002007E2C
:040000050000006691
:00000001FF
