:020000040000FA
:1000000002002700000080FB120051B9000302002B
:100010001175827D7583007400120033758203753B
:100020008300740012003375D0007581BF759F0086
:10003000020008C09FF59FE473D09F22D083D08236
:10004000C09FE493C0E0740193C0E0740293F59FF5
:100050002279012212003C5A00008014E824FFF8A3
:10006000E934FFF9E84970F4EA24FFFAEB34FFFBC6
:10007000EA4B6006784B790280EA02003953F4F8C3
:1000800043FE0775900053F3FE85FDFD858F8FA21B
:100090008040FC7A0A7B00120054A28050FC7A0A4D
:0C00A0007B00120054E590F4F59080E322
:0400000500000027D0
:00000001FF
