:020000040000FA
:0300000002007982
:10001300020E3C7582F0758330740012008B12005F
:10002300A9B90003020063E4900F007819790180F5
:1000330002F0A3D8FCD9FA900F18AA82AB839000E0
:10004300AC786179018015E493A3AC82AD838A8295
:100053008B83F0A3AA82AB838C828D83D8E9D9E703
:100063007582AB75832E740012008B758284758341
:1000730031740012008B75D0007581BF7510007547
:10008300110F759F00020021C09FF59FE473D09F5D
:1000930022D083D082C09FE493C0E0740193C0E078
:1000A300740293F59F2279012200F0AAC400009004
:1000B30040000080C0252E3032660A0000008042D6
:1000C30000000000000080FF0000807F686A6C74FD
:1000D3007A4C006E616E004E414E00696E660049B7
:1000E3004E46003000FFFF000000002041010000E9
:1000F300001C00000097750000A08601000000802E
:100103003F0A00000020BCBE4C120094162E0012C1
:100113000094302E001200941A31001200946230C1
:100123000012009473300012009492310012009474
:10013300AD2F00120094C32F00120094160000127A
:1001430000949E3100120094362F001200942B303D
:1001530000120094ED2F00120094C5300012009499
:100163007F2D001200944131001200946631001279
:100173000094892C00120094490E00120094001779
:1001830000120094861700120094EF1700120094D7
:10019300301B00120094B71B00120094D1240012EC
:1001A30000945E2B00120094BA2B00120094072CCB
:1001B30000120094963000C3E7960809E7960809F1
:1001C300E7960809E796A2D265D03322C3E09608E2
:1001D300A3E09608A3E09608A3E096A2D265D033E5
:1001E30022C008C3E096F50808A3E096420808A3D6
:1001F300E096420808A3E0964208A2D265D033E510
:10020300087001D3D00822080808E630E711120B62
:1002130021120222080808C64480C618181822189A
:100223001818E9799EC608CAC608CBC608CCC6C347
:1002330070207996CACBCC7019798ECBCC70137998
:1002430086CC700EF9802ACA33CACB33CBCC33CCDD
:10025300331930E7F2CCCBCA3350147004EA30E0E0
:100263000DE4CA3ACACB3BCBCC3CCC500209C3E920
:1002730013C6CC182313C6CB18C6CA18C6F9228ACC
:10028300088B098C0A8D0B78081202E130F04312B7
:100293000326803E8A088B098C0A8D0B780812028C
:1002A300E120F01430E72B74FFFCFBFA747F80220B
:1002B300E4FCFBFA7480801AB48008BC00F2BB0033
:1002C300EF800F50EBF9E4C39AFAE49BFBE49CFC48
:1002D300E499C6CC18C6CB18C6CA18C6F922E4C915
:1002E300C608CAC608CBC6D3330308CCC63392F0BC
:1002F300C3947F402E94184019C9B90704CACBCCC4
:10030300225025C309CA33CACB33CBCC33CC33D920
:10031300F422F4600DC9CCC313CB13CBCA13CAD9CF
:10032300F6CC22E4FCFBFA2214FCFBFA22E6C333EC
:1003330018461846184622E7C33319471947194781
:1003430022181818E6084608700AE608C333700531
:10035300E633F4220822191919E7094709700AE755
:1003630009C3337005E733F4220922E6084608C3BC
:10037300134608336002E633F422E7094709C3133F
:100383004709336002E733F42212036E601C120341
:100393007D6017120330700712033A7001D322C035
:1003A300D012033A7006D0D0B322C32233D0D05038
:1003B3001430E0F6C3E7960809E7960809E79608BC
:1003C30009E796B32220E0D5E6970809E6970809DE
:1003D300E6970809E697B32212036E601B12037DAA
:1003E3006016120330700712033A600CB322C0D0B8
:1003F30012033A7005D0D022C32233D0D050133029
:10040300E0EBC3E7960809E7960809E7960809E7CA
:10041300962220E0E4E6970809E6970809E697089C
:1004230009E697220012036E604F12037D6012E704
:10043300548066F6120344701112033A703B0909A3
:1004430009F4F618F618F618F62212035970151265
:10045300033008080860EAE6447FF618768018E45B
:10046300F618F622120330601612033A7012E4F6FD
:1004730008F608F608E65480F60909091818182240
:10048300EAC0E0EBC0E0ECC0E0EDC0E0E687F0A43A
:10049300FBACF008E687F0A42CFCE435F0FA18096D
:1004A300E687F0A42C4B60027401CA35F0FCE433F8
:1004B300FB09E687F0D2F7A42CCB35F0FC1908E64C
:1004C30087F0A42BCC35F0FBE433FD0819E687F065
:1004D300D2E7A42C4ACB35F0CD3400FC09E687F0F3
:1004E300D2E7A42DCC35F0FDE433FA0918E687F002
:1004F300D2F7A42CCD35F0CA3400FC08E687F0D23D
:10050300E7D2F7A42ACC35F07A7E20E70B0ACB3367
:10051300CBCD33CDCC33CC33CB3350147004ED304F
:10052300E00ED2F1E4CD3DCDCC3CCC3B5005DA0519
:10053300C2F1EB547FC63308E63392F0FBE733098D
:10054300E733C39A502D2B70190C0D4C4D701518B1
:1005530006E608C333700D20F10AA2F013F6E4187F
:10056300800B4024E4F630F002768018F618F61873
:10057300F68024D33B14501074FFA2F013F61876C0
:1005830080E418F618F6800FA2F013F618E633038A
:10059300F618ECF618EDF6D0E0FDD0E0FCD0E0FB69
:1005A300D0E0FA2212037D604612036E603DE968D3
:1005B3007008F618F618F618F622748067F7120515
:1005C300DB090909748067F72212036E601D1203A9
:1005D3007D7005191919801A120344701F120359EB
:1005E300C37003E66733191919400718181822084E
:1005F300080874FFF618F618F618F6221203596065
:100603001712033A702192F0120330701950172019
:10061300F014080808090909E7F61819E7F6181984
:10062300E7F61819E7F62212033060E6E869701F4F
:100633000808E62480F608E436F618547FB47F0CE5
:10064300E654806007F6E418F618F622181822E933
:10065300C6CC08C6CD08C6CE08C6CFC0E0E8C0E009
:10066300EAC0E0EBC0E009E9F809E7FA09E7FBE6CD
:10067300F918E6F8C3EC98ED99EE9AEBC2E7F5F0BA
:10068300EFC2E795F0500E600CEBCFFBEACEFAE930
:10069300CDF9E8CCF8EAA2E7D2E7FAEB33FB13F59E
:1006A300F0EEA2E7D2E7FEEF33FFC5F013A2E73087
:1006B300E601B313C5F0C3C0E0C0F07F00C39BFBEA
:1006C300605B9418600C401AD0E023F9D0E0F80284
:1006D30007AA8AF0E9486003D2F0E4AFF0FAF9F828
:1006E300803BEB30E40D89F0EA6003D2F0E4AFF035
:1006F300F9CAF8EB30E30D88F0EF6002D2F0AFF007
:10070300E4CAC9F8EB54076014FBC3EA13FAE9130C
:10071300F9E813F8EF135002D2E0FFDBEDD0E0C0AD
:10072300E030E739C3E49FFFF5F0EC98FC42F0EDCD
:1007330099FD42F0EE9AFE42F0D0E0F9D0E0F8E500
:10074300F0607AE923F9EE20E742D8028067C3EF2D
:1007530033FFEC33FCED33FDEE33FE80EAEC28FC93
:10076300ED39FDEE3AFED0E023F9D0E0F840028007
:100773001BC3EE13FEED13FDEC13FCEF135002D27B
:10078300E0FF08B800067F7F74FF802EEF33501719
:100793008CF020F00260100CBC000C0DBD00080EA4
:1007A300BE000408E860DFE933E813FFEE2313FE1D
:1007B3004F4D4C8008E95480FFE4FEFDFCEE33EF1F
:1007C30033F47004FCFD7E80D0E0FBD0E0FAD0E08F
:1007D300F8D0E0CFC618CEC618CDC618CCC6F922BD
:1007E30012036E70041818182212037D700D74FF23
:1007F300F61819F61819F61819F622E7548066F652
:10080300120330700F12033A70F014F608F608F66C
:1008130008F680D112033A700CF608F608768008C1
:10082300E6447F80EC12035C700C12034760BFE662
:100833005480F6E480BB120347700519191980A58B
:10084300E869700C763F18768018F618F6E8F922F6
:10085300E6CDC0E018ECC0E0E633CD33CDD313F6DC
:10086300E719FCE7191933CC33C3947F400ECD9DB0
:10087300502408E65480F6E418F6800FF4043D147F
:10088300501408E6447FF6187680E418F618F6D07C
:10089300E0FCD0E0FD22CCD313CCFD18E4C6CBC0E2
:1008A300E018E4C6CAC0E00808ED08C633E613F64C
:1008B30018E433C675F003C3CA97CA09CB97CB199B
:1008C3009C40047D08802EBD000302098C16B6FFF0
:1008D300050606081618C3CA33CACB33CB33CA2757
:1008E300CA09CB37CB193CC37D08803E187D08204D
:1008F300E75CC633C6CA33CACB33CB33DDF1D5F09D
:10090300EB30E77BCA97CA09CB974ACB199C406F58
:100913004B7025E620E0218066187D08C3CA97CA7C
:1009230009CB97CB199CD3C633C6CA33CACB33CBB7
:100933003350C9DDE7D5F0E1D3E4C636C608C63681
:10094300C608C636C608C636C61818188031C3CAC4
:1009530097CA09CB97CB199CB34097C633C6CA3302
:10096300CACB33CB33DD34D5F02EC6A2E0C640C8A4
:10097300CA27CA09CB37194A70BECB3CB480B90821
:1009830008E63308E633601F181818D0E0FAD0E001
:10099300FBD0E0FCD0E0FD22187D08CA27CA09CBB2
:1009A30037CB193CD3808013F618E4B67F11F618C1
:1009B300B6FF0EF618C60470D20808768080CAF611
:1009C30018F618F680C5080808EAC0E0EBC0E08610
:1009D300F0E7A4FA180986F0E7A42AFA180986F0C2
:1009E300E7A42AFA180986F0E7A42AFA1986F0E799
:1009F300A4FBE5F02AFA190886F0E7A42BFBE5F03F
:100A03003AFA190886F0E7A42BFBE5F03AFA18182E
:100A13000986F0E7A4C5F02BFBE43AFA1908E7C509
:100A2300F0C6A426F6E5F03BFBE43AFA1886F0E7B5
:100A3300A4F6E5F00826F6E43B08F6E43A08F6D017
:100A4300E0FBD0E0FA22E4CFC0E0E4CEC0E0E4CDA6
:100A5300C0E0E4CCC0E075F020C3E633F608E6332B
:100A6300F608E633F608E633F6181818EC33FCED0F
:100A730033FDEE33FEEF33FFC3EC9709ED9709EE39
:100A83009709EF97191919400FFFEC97FC09ED9798
:100A9300FD09EE97FE191906D5F0BEECF709EDF73F
:100AA30009EEF709EFF7191919D0E0FCD0E0FDD0F2
:100AB300E0FED0E0FF22120B24181818120A491284
:100AC3000B1019191922120B10191919080808E625
:100AD30018181820E7E0120A49120B2418181822D4
:100AE300090909E719191920E7DC080808E61818A5
:100AF3001820E703020A49120B24181818120A498E
:100B0300120B24181818120B1019191922E4C39781
:100B1300F709E497F709E497F709E497F722181818
:100B230018E4C396F608E496F608E496F608E49605
:100B3300F6226017080808C6A2E713C618C613C62C
:100B430018C613C618C613C6D5E0E922E056F00846
:100B5300A3E056F008A3E056F008A3E056F022E025
:100B6300F608A3E0F608A3E0F608A3E0F622E6F011
:100B730008A3E6F008A3E6F008A3E6F022E0FAA350
:100B8300E0FBA3E0FCA3E0FD22EAF0A3EBF0A3EC7F
:100B9300F0A3EDF022CAC0E0E6F0A308DAFAD0E051
:100BA300FA22CAC0E0E0A3C582CCC582C583CDC505
:100BB30083F0A3C582CCC582C583CDC583DAE6D0D5
:100BC300E0CA22C3E498F8E499F9120C078026C31B
:100BD300E49AFAE49BFBE920E7E9120C07E498F8AE
:100BE300E499F922C3E498F8E499F9120C07E4981C
:100BF300F8E499F9C3E49AFAE49BFB22EB20E7CFEC
:100C0300E920E7E0B90010BB0008E88AF084F8AAFD
:100C1300F022E4FBC8FA22EB70227B10C833C8C968
:100C230033C9335007C39AC3DBF280069A50012AB3
:100C3300DBEAC833F4C8C933F4C9FA2275F008E40F
:100C4300C833C8C933C933C99AC99B5004C92AC90F
:100C53003BD5F0ECFBC833F4C8E4C9FA22600D08B5
:100C6300C6A2E713C618C613C6D5E0F322600C0864
:100C7300C6C313C618C613C6D5E0F4227004226097
:100C83000D18C6C333C608C633C6D5E0F4182225EB
:100C93001010AF08F510400215118008F51040023E
:100CA3001511D2AF22C0D0251010AF08F510500295
:100CB30005118008F51050020511D2AFD0D02225BE
:100CC30010F58210AF08F510400215118008F510D9
:100CD30040021511D2AF851183222510F582E43528
:100CE30011F58322E4732510C582C0E0E51134FFBA
:100CF300C583C0E0E510C3958224F810AF0885834F
:100D0300118582108008858311858210D2AFCEF0C1
:100D1300A3E520F0A37808E608F0A3DEFAEFF0A33A
:100D2300E58124FAF8E608F0A3E608F0A3E608F064
:100D3300A30808E608F0A3E608F0A315811581D0FF
:100D4300E0FED0E0F8158115811581E8C0E0EEC022
:100D5300E022851183851082E0A3FEE0A3F52078CD
:100D630008E0A3F608DFFAE0A3FFE0A3C0E0E0A3F6
:100D7300C0E0E0A3C0E0E0A3C0E0E0A3C0E010AFA8
:100D8300088582108583118008858210858311D29E
:100D9300AFD083D08202009174028000C0E0F404DB
:100DA300120CC2D0E0120B982274048004740280E7
:100DB30000CCC0E0EDC0E0E510C39CCCAD11500108
:100DC3001D10AF068C108D1180068C108D11D2AFC3
:100DD300120BA5D0E0FDD0E0FC22D083D082CCC0A2
:100DE300E0E493A36006120E071470FAE493A36081
:100DF30006120E261470FAD0E0FCE493A3C0E0E4DC
:100E030093C0E022C0E0E493A3D39C5010E493A3E7
:100E1300C39C400AD0E0D0E0D0E0020DFAA3A3A324
:100E2300D0E022C0E0E493A36C7009D0E0D0E0D01E
:100E3300E0020DFAA3A3D0E022C0D0C28BA2E950F6
:100E4300FCC2E9D0D03274F1120CE974A3120C92F3
:100E5300746C120CDDE0F50CA3E0F50D746E120C4E
:100E6300DD122A3E7404120CDD121BB17406120C3F
:100E7300DDECF0A3EDF07418120CDDE4F0A3F080C8
:100E83000D850C82850D83A385820C85830D850CCE
:100E930082850D83E0F970127418120CDD12243C64
:100EA300745D120CA87F07020D55742569703874A0
:100EB3000C120CDDE4F0A3F0740E120CDDE4F0A3CD
:100EC300F07410120CDDE4F0A3F07412120CDDE4E4
:100ED300F0A3F07414120CDDE4F0A3F07416120CFA
:100EE300DDE4F0A3F0801D851082851183AA82AB17
:100EF300831201A2C3EB12240350867AFF7BFF8087
:100F03009F740148F8850C82850D83A385820C8527
:100F1300830DE0FA24E060E924FD601624F8600AFA
:100F230024FE600A24FD600E8010740280D57404D0
:100F330080D1740880CD741080C9742A6A703B1202
:100F4300166A741C120CDD121682741C120CDD124C
:100F53001B18C31224035013C3E49CFAE49DFB74CF
:100F63001C120CDD121BB1740448F8850C82850D2C
:100F730083A385820C85830D8037741C120CDDE4FA
:100F8300F0A3F08027741C120CDD12163C7003745E
:100F93007F6B600B121610741C120CDD121BB185D3
:100FA3000C82850D83A385820C85830D1216434025
:100FB300D4850C82850D83E0642E600C741A120CA8
:100FC300DD74FFF0A3F0805DA385820C85830DE0C3
:100FD300642A701A12166A741A120CDD12168285AC
:100FE3000C82850D83A385820C85830D8037741A4B
:100FF300120CDDE4F0A3F08027741A120CDD121634
:101003003C7003747F6B600B121610741A120CDDA4
:10101300121BB1850C82850D83A385820C85830DFC
:1010230012164340D4741E120CDDE8121AEE850C1E
:1010330082850D83E0FC7D007A3B7B0F1201668B7A
:1010430009EA45096011850C82850D83E0F8A385C3
:10105300820C85830D800278007420120CDDE8F089
:10106300FA850C82850D83A3A882A98374686A70AC
:1010730014850C82850D83E0646870257420120C3E
:10108300DD74628017746C6A7017850C82850D831A
:10109300E0646C700C7420120CDD7471F0880C89A0
:1010A3000D7421120CDDA882A983740A120CDD12BF
:1010B3002411850C82850D83E0F50E120DDD0245AA
:1010C300471D1265671D120D25F410411D1258B1FD
:1010D30012611D12633314649F13699F136EBE1153
:1010E3006FB11270771173051175B11278B1125582
:1010F30014740C120CDD1216FA120CDD12160A020D
:10110300147E8E828F83121B077408120CDDE8F0A5
:10111300A3E912167B7408120CDD12243C741A1214
:101123000CDDE0F508A3E0F509C3122403500D120A
:10113300016C8A088B09A808A909802C7808120D6C
:101143009B7C007D0012014E7402120CA8EA4B60D6
:101153000D7408120CDD12162FF8EB998009741A1E
:10116300120CDDE0F8A3E0F9740E120CDDE8F0A335
:10117300E90214878E828F83122A97121BB1A3E48C
:10118300F0A312167B900F547808120B628510821D
:101193008511837808120B4F7421120CDDA882A9E4
:1011A300837408120CDD122411797885108285115D
:1011B30083AA82AB8312018A0214887420120CDD85
:1011C300E0249E603F24FA601024FE602324FE6026
:1011D3001F24FB602524F7600D7418120CDD121612
:1011E300B112165480877418120CDD1216B180F1F7
:1011F3007418120CDD1216C380E77418120CDD127A
:1012030016C380DD7418120CDDE0C0E08E828F837C
:10121300122A56122476D0E080C77420120CDDE027
:10122300644C121671120B628E828F83E02404F8D1
:101233001216A2120B717402120CDDA3E05480602B
:1012430010740C120CDD1216FA120CDD1216048047
:101253002E741E120CDDE0F854026010740C120C94
:10126300DD1216FA120CDD1215FE8013E8A2E0500F
:1012730017740C120CDD1216FA120CDD1215F8F0AD
:10128300740C120CDD122BB6740C120CDD1216FA50
:10129300120CDD1215E7120CDD122411A90E8510B4
:1012A30082851183AA82AB8312019602148874206B
:1012B300120CDDE0F8746C68602774716860227446
:1012C3006A68601D8E828F83122A56F508A3E0F5A3
:1012D30009E4F50AF50B8E828F83E0240208088067
:1012E3000E121671120B628E828F83E02404F812A1
:1012F30016A2120B718510828511837808120B6276
:10130300750A00750B007420120CDDE0F874686830
:10131300602B746268701C851082851183780812B3
:101323000B62851082851183E508121AEEA3F0A3E0
:10133300F080157474686005747A68700B85108288
:101343008511837808120B71741E120CDDE05408AA
:10135300700302141A8510828511837808120B62B8
:10136300121AE5700302141A7420450E64786003A0
:1013730002141A740C120CDD1216FA120CDD12157B
:10138300D87430F0740C120CDD122BB6740C120CE2
:10139300DD1216FA120CDD1215F28072EEFAEFFB73
:1013A3007420120CDDE0F912017E85108285118311
:1013B300120B8C851082851183C082C083900F2FFE
:1013C3007808120B62D083D08278081201CF5010B4
:1013D300740C120CDD1216FA120CDD121604802E98
:1013E300741E120CDDE0F854026010740C120CDD54
:1013F3001216FA120CDD1215FE8013E8A2E0501744
:10140300740C120CDD1216FA120CDD1215F8F074BE
:101413000C120CDD122BB6740C120CDD1216FA1220
:101423000CDD1215E7120CDD122411A90E0211AE08
:101433008E828F83122A56C0E0740C120CDD1216B2
:10144300FA120CDD1215D8D0E0121654E8F0A3E915
:101453008029740C120CDD1216FA120CDD12160A16
:10146300F0740C120CDD122BB6E50E6018740C121E
:101473000CDD1216FA120CDD1215F2F0740C120CBC
:10148300DD122421F0850C82850D83A385820C85D2
:10149300830D741C120CDDC082C083740C120CDD2E
:1014A300122432D083D082E0C398FAA3E099FB746C
:1014B30012120CDD1216BB740E120CDD1216BB7465
:1014C30014120CDD1216BB7410120CDD1216BB7451
:1014D30016120CDD12162FF508EB99F509741E127E
:1014E3000CDDE05404700E7920AC08AD091216E748
:1014F3007003020EFE740C120CDD120DB074231275
:101503000CDDAC82AD837402120CDD1215CE120C0D
:10151300A88B0BEA450B6003020EFE79307412129E
:101523000CDD1216DE7003020EFE740E120CDD12B9
:101533000DB0740A120CDD121B187402120CDD12AA
:1015430015CE120CA88B0BEA450B6003020EFE7935
:10155300307414120CDD1216DE7003020EFE7410CA
:10156300120CDD120DB07410120CDD122432740A49
:10157300120CDDE028FCA3E039FD7402120CDD122D
:1015830015CE120CA88B0BEA450B6003020EFE79F5
:10159300307416120CDD1216DE7003020EFE741E7A
:1015A300120CDDE054047003020E917920AC08ADF7
:1015B30009851082851183AA82AB831201848B096A
:1015C300EA45096003020E91020EFEAA82AB831262
:1015D30001A87402221215DC22E58228F582E58334
:1015E30039F58322E58228F8E58339F97408221254
:1015F30015DCE50E221215DC7420221215DC742B87
:10160300221215DC742D221215DC742522EA75F0E2
:101613000AA4FAACF075F00AEBA42CFBE5082AFA4D
:10162300E43BFBEA24D0FAEB34FFFB22121633220D
:10163300E0F8A3E0F9EAC39822122A6674FF6A224B
:10164300850C82850D83E0F50874D02508C3940AC0
:101653002212165822121699F812166022A3E034A9
:1016630000F98E828F8322122B4D122A66228E82DC
:101673008F83122A6C780822121658122B2122EA21
:10168300F0A3EB121699FAA3E03400FB8E828F834A
:10169300EAF0A3EBF022F08E828F83E02402221281
:1016A3001660122B2185108285118378082212245B
:1016B30036122B4D122A4822121633FAEB99FB22CB
:1016C300122A663395E0FC8E828F83122A5A122ADD
:1016D30071EAF0A3EBF0A3ECF0A322E0FCA3E0FD9E
:1016E3001216E722851082851183AA82AB83120129
:1016F300848B0BEA450B2212243674212274F612D2
:101703000CE9E9249E603C24FA604124FE60122423
:10171300FE600E24FB600A24FD603124FA60108011
:101723002B12242EE8240412175F120B8080281238
:10173300242EE8240212175FE0F508A3E0AA08FBB1
:10174300E480121217763395E0FB8009121776A313
:10175300E0FB3395E0FCFD7F02020D551217632277
:10176300FCE93400FD8A828B83ECF0A3EDF08882E0
:101773008983228A828B83122436E8240212176318
:10178300E0FA2274F2120CE974FF120C92E985104C
:1017930082851183F08A0A8B0B8C088D097E007F6A
:1017A300008008EE24010EEF3400FFC3EE9508EF2E
:1017B3001229F25029750C01750D00780C120D9B3E
:1017C3007402120CDDAC82AD83AA0AAB0B1215D2E4
:1017D300120CA88B0DEA450D60C97A0080027A01CC
:1017E3007B007401120CA87F06020D5574F0120CD5
:1017F300E974ED120C927403120CDD121BB1E9852E
:101803001082851183F07403120CDD122475A3A3D7
:10181300A3A3A3A3A3A3A3A31224327409120CDDCD
:10182300122411851082851183E0646F7009740599
:10183300120CDD74088017E0442064786009740595
:10184300120CDD740A80077405120CDD7410121A71
:10185300EE04120CDD743C121AEE7403120CDD124A
:101863001675120B62740B120CDD7808120B71855E
:101873001082851183E064646005E06469702390DD
:101883000F2F78081201E44019740B120CDD78084D
:10189300120B627808120B24740B120CDD780812F9
:1018A3000B717403120CDD12247A7411120CDD1205
:1018B3002A1E120CDD1224507407120CDD122A1E8C
:1018C300120CDDE0241A122453740F120CDD1224BF
:1018D30011740B120CDD7808120B62121AE5703EBC
:1018E300740F120CDD121B07E84970327405120CD9
:1018F300DDE0640860030219F07407120CDD122B9B
:101903003C70030219F07401120CDD743B121AEEE1
:101913007409120CDDE0243B1224600219ED7401FA
:10192300120CDDE024FFFAA3E034FFFB7401120C78
:10193300DD121BB1740B120CDD780C120B627405F3
:10194300120CDD121B1E120A49E5082430F8C39459
:101953003A400B851082851183E024AF28F874097F
:10196300120CDDE02AFAA3E03BFBE88A828B83F0CA
:10197300740B120CDD780C120B627405120CDD1261
:101983001B1E120A49740B120CDD780C120B7174B6
:101993000B120CDD7808120B62121AE56017741132
:1019A300120CDD122475EAF8EBF9C3E098A3E09971
:1019B30050030219217405120CDDE06408702E74C3
:1019C30007120CDD122B3C60248A828B83E0643087
:1019D300601B7401120CDD1224977401120CDD12CA
:1019E30024327409120CDD12248C7430F074011249
:1019F3000CDD122432743CC398F8E499F974031291
:101A03000CDDE0240E122A241224117401120CDDC1
:101A130012243C7409120CDDE02AFAA3E03BFB74A8
:101A230011120CDD121AFE121BB1740F120CDD120F
:101A33002A2F121B187403120CDDE02412FAA3E000
:101A43003400FBC3E89CE99DA2D265D033501AEC65
:101A5300C398F8ED99F98A828B83122411740712C3
:101A63000CDD122A5654EF8073C3ED122403506D1C
:101A73007407120CDD121AFEE054146410705E74C5
:101A830003120CDDE0241C121AF3C082C08374031A
:101A9300120CDDE0240C121AF3121B18D083D0822F
:101AA300E0C39CFEA3E09DFF8A828B83121B18EE8A
:101AB300C39CFCEF9DFDECC398F8ED99F9740112FA
:101AC3000CDD1224117401120CDD121B26400E745E
:101AD30001120CDDE08A828B83F0A3E9F074130218
:101AE30023D5E5084509450A450B22F0A3E4F02276
:101AF300FCA3E03400FD8C828D8322E0FCA3E0F59F
:101B0300838C8222121B0B22121B0F22122A70E0DB
:101B1300F8A3E0F922E0FCA3E0FD221223DD780C18
:101B2300790822C3E09401A3E01224B72274F012CF
:101B33000CE974FC120C92851082851183121BB17F
:101B4300A3ECF0A3EDF07414120CDD12243C900FFF
:101B530058780C120B628044EAA2E0501D85108273
:101B63008511837808120B627808790C1204278593
:101B730010828511837808120B718A088B0974010E
:101B83007808120C60AA08AB09850C08850D098535
:101B93000E0A850F0B780C7908120427EA4B70B8EC
:101BA300851082851183120B8074040223D5EAF019
:101BB300A3EBF02274F0120CE974BE120C92740EB3
:101BC300120CDD121BB17407120CDDE9F0741A124A
:101BD3000CDD122407740E120CDD122475120B8017
:101BE3007408120CDD120B8C740E120CDDE0241A37
:101BF300122453740C120CDD1224117407120CDD21
:101C0300E04420C0E07404120CDDD0E0F0646160B5
:101C130031740C120CDD1224AF500C740C120CDD59
:101C230012247574068018E84970177404120CDDC9
:101C3300E06467700D740C120CDD122475740112CC
:101C43001AEE740E120CDD121B187405120CDDAAA9
:101C530082AB831201AE8A088B09AE08AF09EEFC92
:101C6300EFFD740E120CDD12247AE8FAE9FB740717
:101C7300120CDDE0249FF508740E120CDDE0240E37
:101C830012246074026E7001EF702712241550063F
:101C93007C427D0F80047C467D0F75080375090027
:101CA3007808120D9B8A828B83122A8E120CA8024B
:101CB30023D3C3EC9401ED122403401112241550D5
:101CC300067C4A7D0F80D37C4E7D0F80CD74041239
:101CD3000CDDE0646170488A828B83122475743052
:101CE300F08A828B831224A588828983A3AE82AF74
:101CF300838A828B83EEF0A3EFF07407120CDDE08E
:101D03006461700474788002745888828983F074E3
:101D13000E120CDD1224842402F0A3E03400F0EC54
:101D23004D70147402120CDDE4F0A3F07405120C70
:101D3300DDE4F0A30223A3741B120CDDA882A983A4
:101D43007418120CDD1224117404120CDDE06461AA
:101D53006003022088740C120CDD1224AF500C7443
:101D630002120CDD7421F0A3E48011E8240108E9D8
:101D73003400F97402120CDDE8F0A3E9F0740212E6
:101D83000CDD1224A57410120CDD122411740E1232
:101D93000CDD122475120B807412120CDD120B8CE5
:101DA3007408120CDD7808120B62900F2F780C1256
:101DB3000B627808790C1203DB7412501A120CDDD3
:101DC3007808120B62E50BB2E7F50B7408120CDD11
:101DD3007808120B71800E120CDD120B807408123E
:101DE3000CDD120B8C7405120CDDE024FC12249E16
:101DF300741A120CDDE4F0741B120CDDA882A983A3
:101E03008005240712245312240B7410120CDD12C4
:101E13001B265003021F297408120CDD7808120BCD
:101E230062900F5C780C120B627808790C12038CA9
:101E33004003021F29900F60120DAC740C120CDDCD
:101E4300AA82AB831201727404120CA87408120CD8
:101E5300DD120B801202977412120CDD7808120B3C
:101E6300717410120CDDE024F912249E7410120C0C
:101E7300DD121B26402A7408120CDD7808120B624F
:101E83007412120CDD780C120B62780C12020A78B1
:101E930008790C1205A77408120CDD7808120B716F
:101EA300851082851183E02407122B117A077B00AA
:101EB30080341224BF7412120CDD7808120B62E511
:101EC30008540FC0E012246FD0E0F07412120CDD3E
:101ED3007808120B6274047808120B357412120C12
:101EE300DD7808120B717412120CDDC082C083906E
:101EF3000F5C7808120B62D083D08278081201CF6E
:101F030040081223EC12240350A81223EC122403DA
:101F1300851082851183E05003021E051224C61228
:101F2300246FE4F080E4851082851183C082C0832E
:101F33007418120CDD122432D083D082E0C398F8D7
:101F4300A3E099F97410120CDD122411741B120C06
:101F5300DD1224077410120CDDC082C083740212D8
:101F63000CDD122432D083D082122440501074101E
:101F7300120CDD1224327402120CDD1224117402CD
:101F8300120CDDC3121B2A500302205E7402120CD2
:101F9300DDC082C0837410120CDD122432D083D0D2
:101FA3008212244050197402120CDD122432741A66
:101FB300120CDD1223F6C3940840047A0F80027AD0
:101FC300007402120CDD12243280087402120CDD3C
:101FD300122497E824FF18E934FFF9741A120CDD70
:101FE3001223F66A60E5740F6A7003E004F0C3E934
:101FF3001224035024741A120CDDA882A9838510BD
:1020030082851183122A07120CDD12245A120CDD69
:10201300E02404F0A3E03400F07402120CDD122477
:1020230032802A851082851183E028FAA3E039FBE8
:102033008A828B83E02430FCC3943A400A740712EB
:102043000CDDE024C62CFCEC8A828B83F0E824FFB1
:1020530018E934FFF9C312240350C8740C120CDDC1
:10206300122475C3121B2A40030223A47402120C08
:10207300DDE024FFF8A3E034FFF9740C120CDD1249
:102083002A440223A37408120CDD7808120B629011
:102093000F2F780C120B627808790C1203DB501A9D
:1020A3007408120CDD7808120B62E50BB2E7F50B2E
:1020B3007408120CDD7808120B717405120CDD1212
:1020C30023DD900F64780C120B627808790C1209E7
:1020D300C9900F68780C120B627808790C120AE326
:1020E3007405120CDDE508F0A3E509F07405120C84
:1020F300DD1224327407C398F508E499F509122315
:10210300FC401F7808120D9B740A120CDD120B8021
:102113001201907402120CA87408120CDD120B8CBD
:1021230080417408120CDD780C120B62C3E495082D
:10213300F50AE49509F50B780A120D9B900F6C12C2
:102143000B801201907402120CA88A088B098C0A66
:102153008D0B780C79081207E37408120CDD780CE8
:10216300120B717404120CDDE06466700D740512B9
:102173000CDDE0240A122453800478067900740CE1
:10218300120CDD122A88FEA3E039FFC3EE940BEF95
:1021930012240340047E0A7F00741A120CDD74308B
:1021A300F0741B120CDD122407C3EE9401EF12240A
:1021B30003500302228F7408120CDD120B801202EB
:1021C300827412120CDD7808120B71122B0874172B
:1021D300120CDD7408F07412120CDD780C120B6211
:1021E300900F707808120B62780C7908120A497400
:1021F30016120CDDE508F07412120CDD780C120BCC
:1022030062900F707808120B62780C7908120A49F1
:102213007412120CDD780C120B711224BF74161297
:102223000CDDE02430C0E012246FD0E0F07417120C
:102233000CDDE014F0709F122B08EE24F8FEEF344F
:10224300FFFFC3EE9401EF12240350030221AC7489
:1022530008120CDD780C120B627408120CDD120BE1
:10226300801202827808120225780C79081205A7D9
:10227300900F747808120B62780C79081204277493
:1022830008120CDD780C120B710221B985108285BE
:102293001183C082C0837418120CDD122432D083E0
:1022A300D082E0C398FEA3E099FF741B120CDDA853
:1022B30082A9838019EE24FF1EEF34FFFF740512F9
:1022C3000CDD1224978510828511831224A5122414
:1022D3000B122A50643060DD7404120CDDE0646676
:1022E300700A7405120CDD1224A5800DE06465707C
:1022F300047801800278007900740C120CDD122B33
:10230300427402120CDD122A07120CDDE0F8C3EE50
:1023130098EF1224495005EEF0A3EFF07402120C6B
:10232300DDC3121B2A407A7402120CDDC3E09EA3A4
:10233300E09FA2D265D03350167402120CDDE01276
:102343002A3312248CE0C3943540047C3980027C08
:10235300307402120CDD12243C80087402120CDD6E
:10236300122497EA24FF1AEB34FFFB8510828511B0
:1023730083E02AF8A3E03BF988828983E06C60DB81
:1023830074396C7003E004F0C3EB1224035012128F
:1023930024BF7402120CDD12245A120CDD12242104
:1023A300F07405120CDD120DB07404120CDD120D65
:1023B300B07404120CDD121B18740B120CDDE0F95F
:1023C3007412120CDD12243C12019C7404120CA82A
:1023D3007442120CA87F08020D55E0F508A3E0F53E
:1023E300093395E0F50AF50B22EA24FF1AEB34FFD3
:1023F300FBC3221215DCA3E022C3E5089401E5091F
:102403001224B722A882A983851082851183122BF7
:1024130021227403F0A3E4F0E508C3941A221224E2
:102423002522E02401F0A3E03400228A828B831268
:10243300243622E0F8A3E0F922122A6622C3E098A8
:10244300A3E01224492299A2D265D03322E0241EAC
:10245300F8A3E03400F922122B037405221224643A
:1024630022F8A3E03400F9888289832285108285CB
:102473001183E0122A7122E02408F8A3E03400F962
:1024830022E0240C122464E022E028FAA3E0398A33
:1024930082F58322E024FF12249E22F0A3E034FF7E
:1024A300F022E02401F8A3E03400F922121B0BC34D
:1024B3001224B7229400A2D265D0332285108285DC
:1024C3001183E024FFF8A3E034FF122B1A2274F0E7
:1024D300120CE974E1120C927403120CDD121BB19D
:1024E3007402120CDDE9F08C0A8D0B742F120CDDD3
:1024F300E0F50CA3E0F50D7431120CDD122A3E74E5
:1025030003120CDDE0241A122487F508A3E0F50971
:10251300C3E50C9401E50D122403500C750C0175F1
:102523000D00750A52750B0F7403120CDDE02416AF
:10253300122453740F120CDD122A1E120CDDE02438
:1025430010122453740B120CDD122A1E120CDDE040
:1025530024141224537409120CDD122A1E120CDDEA
:10256300E0240E122B117403120CDD12247A74076B
:10257300120CDD122A1E120CDD1224507405120CEB
:10258300DD122A07120CDDE04420F8746668602629
:1025930074676860030227AFC3EE94FCEF94FFA255
:1025A300D265D03350030227B8C3EE9508EF122942
:1025B300F240030227B8EE24010EEF3400FF7466E5
:1025C30068602C7405120CDD122B3C700B1229EB86
:1025D3005006850C08850D09C3E5089EF508E50935
:1025E3009FF509C31224035006750800750900748A
:1025F30007120CDD122A97122A7EF8EB39F9740DB3
:10260300120CDD122411C3EE9401EF1224034003D4
:102613000226AE740D120CDD1224757430122B27B2
:10262300500A7405120CDD122B3C60108510828554
:102633001183122A7EF582EB39122AF1C3E49EF844
:10264300E49FF9C3E50898E5091224495009C3E456
:102653009508FEE49509FFC3E49EFCE49FFD74091D
:10266300120CDD122475ECF0A3EDF0E5082EF5084D
:10267300E5093FF5091229CF500685080C85090D98
:10268300740B120CDD122475E50CF0A3E50DF07844
:102693000C120D9BAC0AAD0B7402120CDD122AB1A5
:1026A300120CA8122AE5740F022960C3E50C9EE5FB
:1026B3000D9FA2D265D0335062780C120D9BAC0AE9
:1026C300AD0B740F120CDD122A8E120CA8122A50B5
:1026D300122ADCEEC3950CF8EF950DF97409120C70
:1026E300DD122A791223FC500A7405120CDD122B19
:1026F3003C6017122ABE120CDD122A2F12248C748E
:102703002EF0740B120CDD122AFC740F120CDD1266
:102713002475E508F0A3E5090229668E0E8F0F786C
:102723000E120D9BAC0AAD0B740F120CDD122A8E28
:10273300120CA8122A502EF0A3E03FF0C3E50C9E22
:10274300F50CE50D9FF50D1223FC500A7405120CD0
:10275300DD122B3C601B851082851183122A5F7466
:1027630007120CDD122A562AF8A3E03B8882122AAC
:10277300F11229CF500685080C85090D780C120D2E
:102783009BE50A2EFCE50B3FFD7402120CDD121BC8
:10279300077409120CDD122A88FAA3E039FB12012F
:1027A300547402120CA8122ACA022960E0646170F0
:1027B3003A7470803D1229EB50107405120CDD122F
:1027C3002B3C7006850C08850D091229DEC31224E3
:1027D3000350067508007509007402120CDDE064ED
:1027E3006770047465800B74458007E0644170036F
:1027F3007450F07407120CDD122A5F850A82850B70
:1028030083E0C0E0122AA1D0E0F0850A82850B8321
:10281300A385820A85830B122B28500A7405120C98
:10282300DD122B3C603E122AA1742E122B2740345A
:10283300E50C24FFF50CE50D34FFF50D1229CF50FF
:102843000685080C85090D780C120D9BAC0AAD0B9F
:102853007402120CDD122AB1120CA8122ACA120C2D
:10286300DD122A79122ABE120CDD122A88F50AA378
:10287300E039F50B7402120CDDE0850A82850B83C7
:10288300122A15A3A882A983C3EF122403850A82FF
:10289300850B834009742BF0880A890B8012742DF1
:1028A300F0880A890BC3E49EF8E49FF9E8FEE9FF88
:1028B30075080075090080477411120CDD85820CC0
:1028C30085830D780C120D9B7C0A7D00EEFAEFFBDD
:1028D3001201487402120CA87413120CDDE0C0E05C
:1028E3007415120CDD1229FAD0E0F07411120CDD0C
:1028F300122A3EE5082401F508E5093400F509C369
:10290300EE9401EF12240350AFC3E508940212249E
:1029130001500F7402120CDDE04420646570031251
:102923002A0DE5084509701C122A0D801C1229DEA8
:102933007415120CDD1229FAE02430850A82850B06
:1029430083122A151223FC50E4122ABE120CDD1244
:102953002B42E50AC398F8E50B99F9740B120CDDC9
:10296300122A44F07405120CDD122A565414641012
:1029730070557403120CDD122484122A33122B4275
:102983007409120CDD122B42740B120CDD122B4254
:10299300740F120CDD122B427403120CDDE0241CA5
:1029A300122A2412243CC3E89AE99BA2D265D033AD
:1029B3005015EAC398FAEB99FB7403120CDDE0247B
:1029C30012122460121BB1741F0223D5C3E50895AC
:1029D3000CE509950DA2D265D03322E50824FFF555
:1029E30008E50934FFF50922C3E50C9508E50D95C3
:1029F30009A2D265D03322E5822508F582E5833525
:102A030009F58322122B21740222850A82850B8306
:102A13007430F0A385820A85830B22122B21740361
:102A230022FAA3E03400FB8A828B8322122B5122E9
:102A3300F8A3E0F985108285118322E0FEA3E0FF6D
:102A430022122A4822122B55E8F0A3E9228510828C
:102A5300851183122A5A22122A6CE022122A632237
:102A6300122A6CE0FAA3E0FB22122A7022E0F8A3F8
:102A7300E0F583888222122A48F022122A82221247
:102A83001B0FEA2822122B51E02822122A66120178
:102A930054740222122A63851082851183228510C1
:102AA30082851183122A82F582EB39F58322122A59
:102AB30082FAEB39FB1201547402228510828511CC
:102AC30083121B0B740722851082851183122A5AE5
:102AD300122ADC122AE5740922250CF0A3E0350D35
:102AE300F022E508C3950CF8E509950DF922F58365
:102AF300742EF0851082851183122B0022122A6C0A
:102B0300122425F022851082851183E02408F8A37E
:102B1300E03400122B1A22F9851082851183E8F024
:102B2300A3E9F022F0851082851183122B00C3E5FF
:102B3300089401E5091224B722122A5A54082212D2
:102B43002B51E028F8A3E039F9228E828F83122BD0
:102B53005522E0FAA3E0F5838A822274F2120CE98B
:102B6300EAFEEBFFEE2406F508EF3400F5098508CD
:102B730082F58312243C8E828F83A3A3A3A3122402
:102B830075120CE78A0C8B0DA80CA90D850882859C
:102B93000983122411E8496013EE2418F582EF34F7
:102BA30000F583122BB67A007B0080047AFF7BFF4B
:102BB3000217EA122B032274F2120CE98A0A8B0B16
:102BC3008C088D09740E120CDD122A3E7A007B00EC
:102BD3008015850882850983A3858208858309EE8C
:102BE30024FF1EEF34FFFFEE4F6016850882850930
:102BF30083E0F9AA0AAB0B1201A2C3EB1224035020
:102C0300D10217EA74F6120CE9EC2402ED34000C3D
:102C13000CFD8C828D83E0F508A3E0F50974077839
:102C230008120C70E508F8F4701B8A828B83E4F0B9
:102C3300A3F08C828D83E0547F60067A027B008050
:102C4300407A0180F8E8602F8C828D83E0547FFE08
:102C5300A3E05480443FFF8C828D83EEF0A3EFF01A
:102C6300E82482F8E434FFF98A828B83E8F0A3E94D
:102C7300F07AFF7BFF800A8A828B83E4F0A3F0FA69
:102C8300FB7F02020D5574F0120CE9EAFEEBFF74B0
:102C930010120CDD7808120B62EE2402FCEF3400F4
:102CA300FD8C828D83E0F50CA3E0F50D7407780CA1
:102CB300120C70E50CFAF470148C828D83E0547F4F
:102CC30060047A0280027A017B00022D7AEA7004A2
:102CD3007A0080F4900F5C78081201E4503A74FF94
:102CE300C39AF50C95E0F50DE4F50EF50F780C7924
:102CF300081201BA40228C828D83A3E054806005C0
:102D0300900F338003900F377808120B628E828FF7
:102D1300837808120B7180AEC3E49AF50C95E0F545
:102D23000D95E0F50EF50F7808790C1201BA8C8237
:102D33008D835032E0547FFEA3E05480FFE5082AE0
:102D4300F508E5093400F50974077808120C7FEEDD
:102D53004508F8EF4509F98C828D83E8F0A3E9F083
:102D63007AFF7BFF8011E4F0A3E05480F08E828F22
:102D730083E4F0A3F0FAFB7F08020D5574F6120CFE
:102D8300E974FC120C92EAFEEBFF740E120CDDA840
:102D930082A9837402120CDDE8F0A3E9F0851082A6
:102DA300851183EEF0A3EFF07402120CDD85820827
:102DB3008583097808120D9B8C088D097808120DFC
:102DC3009B7404120CDDAC82AD837AB47B011201D7
:102DD300787404120CA88A08851082851183E0FA9E
:102DE300A3E0F5838A82E4F0C3EB9400A2D265D01A
:102DF300335004AA088012851082851183E0F8A35A
:102E0300E0F9E8C39EFAE99FFB7404120CA87F0261
:102E1300020D55C082C08312011890624B7401F0F9
:102E23009061BD7401F0D083D08202009174F012DE
:102E33000CE975B63E43B43043B440E5B4A2E75061
:102E4300FAE5BAC4540FF50875090085BB0A750B7A
:102E5300007404780A120C7FE50A4508F508E50BAF
:102E63004509F509E4F50AF50B7808120225900FD8
:102E730018780C120B627808790C1205CC900F1C91
:102E8300780C120B627808790C1207E3900F207804
:102E93000C120B627808790C1205CCAA08AB09ACAA
:102EA3000AAD0B7F08020D5512012A1201181201F7
:102EB3003012010C80711201128A088B098C0A8D61
:102EC3000B780C79081205CC0EEEC3944040E790C2
:102ED3000F2B7808120B62780C79081207E3900F16
:102EE30000780C120B717508147509007808120D1F
:102EF3009B7C007D007A047B0F12015A7402120C32
:102F0300A8900F00120DAC7C247D0F7A047B0F1266
:102F130001607404120CA879147A047B0F12013631
:102F23007AE87B03120124900F2F780C120B627E38
:102F330000809674F4120CE974FC120C92EAFEEB16
:102F4300FF7410120CDDE0F508A3E0F509EEF8EFCD
:102F5300F9ECFAEDFB120BFF851082851183122F1A
:102F6300A1E0F50AEC850AF0A4CCA8F089F0A42826
:102F7300F8850AF0EDA428FDEEC39CF8EF9DF974E3
:102F830002120CDD122FA1AC08AD09ECFAEDFB74B3
:102F930004120BA57404120CA87F04020D55E8F06B
:102FA300A3E9F08510828511832253F1FE43F30CCC
:102FB3004386C075C50875C23BD2AAD2AF02009141
:102FC300C082C08380178A828B83E0F5C18A828B9B
:102FD30083A3AA82AB83A2E950FCC2E919E9C39493
:102FE3000150E3D083D08202009174F7120CE9748C
:102FF30009120CDDE0FEA3E0FFEAF8EBF980208C78
:10300300828D83E088828983F0A3A882A9838C823E
:103013008D83A3AC82AD83EE24FF1EEF34FFFFEE5E
:103023004F70DC7F01020D55C082C08385108285FD
:103033001183E0F8A3E0F98A828B838009A3E82453
:10304300FF18E934FFF9E849600AE06C70EFAA82DF
:10305300AB8380047A007B00D083D082020091800E
:1030630008EA24FFFAEB34FFFBEA4B70F402009109
:103073008014E824FFF8E934FFF9E84970F4EA24FE
:10308300FFFAEB34FFFBEA4B6006784B790280EAE8
:10309300020091C082C0838A828B83E0F8A3E0F5AB
:1030A300838882E9F08A828B83E02401FCA3E034E5
:1030B30000FD8A828B83ECF0A3EDF0D083D08202F3
:1030C3000091C082C083851082851183E0F8A3E05C
:1030D300F98A828B83800BECF0A3E824FF18E93490
:1030E300FFF9E84970F1D083D08202009174F7129E
:1030F3000CE974FE120C92EAFEEBFF851082851137
:1031030083EEF0A3EFF0851082851183AA82AB834F
:10311300790112014280E4C082C08353BEFBE59D66
:10312300A2E650FA7A3F7B0012011E53C6F853C63B
:10313300BFE59EA2E640FAD083D082020091C0820E
:10314300C083ECF88005A3AA82AB838A828B83E0D9
:10315300F9E8696007E970EE7A007B00D083D082DA
:10316300020091C082C0838A828B838001A3E070B6
:10317300FCE582C39AFAE5839BFBD083D0820200ED
:1031830091C082C08312013CD083D082020091534C
:0E319300F4F843FE07759000020091020091CF
:04000005000000797E
:00000001FF
