:020000040000FA
:0300000002007388
:10001300020C2F00000080FB1200A3B900030200B2
:100023005DE4900F00781979018002F0A3D8FCD920
:10003300FA900F18AA82AB839000A67868790180A2
:1000430015E493A3AC82AD838A828B83F0A3AA8247
:10005300AB838C828D83D8E9D9E77582C075831D04
:100063007400120085758216758300740012008572
:1000730075D0007581BF75100075110F759F000253
:10008300001BC09FF59FE473D09F22D083D082C012
:100093009FE493C0E0740193C0E0740293F59F2240
:1000A30079012200F0AAC400009040000080C0251E
:1000B3002E3032660A00000080420000000030311A
:1000C30032333435363738394142434445460028C4
:1000D3006E756C6C20706F696E74657229003F3F9A
:1000E3003F000000807F0000803FF9021550B743B6
:1000F300BA510000204100E7DB2E0000A0401000B1
:100103000000080000000A00000012008E2B1D00F2
:1001130012008E451D0012008EEC1E0012008E8B05
:100123001E0012008E9C1E0012008E131F00120070
:100133008E4B1E0012008E611E0012008EBF1E0029
:1001430012008E8B1C0012008EB51C0012008E3C18
:100153000C0012008E5A1100C008C3E096F508087F
:10016300A3E096420808A3E096420808A3E096425B
:1001730008A2D265D033E5087001D3D0082208085D
:1001830008E630E7111209BD120199080808C644B0
:1001930080C618181822181818E9799EC608CAC606
:1001A30008CBC608CCC6C370207996CACBCC7019CD
:1001B300798ECBCC70137986CC700EF9802ACA3332
:1001C300CACB33CBCC33CC331930E7F2CCCBCA33E5
:1001D30050147004EA30E00DE4CA3ACACB3BCBCCEE
:1001E3003CCC500209C3E913C6CC182313C6CB1861
:1001F300C6CA18C6F92212023920F01430E72B744C
:10020300FFFCFBFA747F8022E4FCFBFA7480801A03
:10021300B48008BC00F2BB00EF800F50EBF9E4C3DD
:100223009AFAE49BFBE49CFCE499C6CC18C6CB1871
:10023300C6CA18C6F922E4C9C608CAC608CBC6D3BB
:10024300330308CCC63392F0C3947F402E941840F6
:1002530019C9B90704CACBCC225025C309CA33CA6A
:10026300CB33CBCC33CC33D9F422F4600DC9CCC31C
:1002730013CB13CBCA13CAD9F6CC22E4FCFBFA2264
:1002830014FCFBFA22E6C33318461846184622E745
:10029300C33319471947194722181818E60846089F
:1002A300700AE608C3337005E633F42208221919ED
:1002B30019E7094709700AE709C3337005E733F4FF
:1002C300220922E6084608C3134608336002E633D0
:1002D300F422E7094709C3134709336002E733F4FC
:1002E300221202C660251202D56020120288700312
:1002F300020292080808E76670101819E766700A88
:100303001819E76670041819E76622F4221202C668
:10031300601C1202D56017120288700712029270D5
:1003230001D322C0D01202927006D0D0B322C322CE
:1003330033D0D0501430E0F6C3E7960809E79608A7
:1003430009E7960809E796B32220E0D5E69708095E
:10035300E6970809E6970809E697B3221202C660F2
:100363001B1202D560161202887007120292600CEB
:10037300B322C0D01202927005D0D022C32233D050
:10038300D0501330E0EBC3E7960809E7960809E776
:10039300960809E7962220E0E4E6970809E697081D
:1003A30009E6970809E69722001202C6604F120277
:1003B300D56012E7548066F612029C701112029205
:1003C300703B090909F4F618F618F618F62212021A
:1003D300B1701512028808080860EAE6447FF6182F
:1003E300768018E4F618F62212028860161202923A
:1003F3007012E4F608F608F608E65480F6090909CF
:1004030018181822EAC0E0EBC0E0ECC0E0EDC0E051
:10041300E687F0A4FBACF008E687F0A42CFCE435F7
:10042300F0FA1809E687F0A42C4B60027401CA3570
:10043300F0FCE433FB09E687F0D2F7A42CCB35F0CC
:10044300FC1908E687F0A42BCC35F0FBE433FD0858
:1004530019E687F0D2E7A42C4ACB35F0CD3400FC63
:1004630009E687F0D2E7A42DCC35F0FDE433FA0991
:1004730018E687F0D2F7A42CCD35F0CA3400FC0877
:10048300E687F0D2E7D2F7A42ACC35F07A7E20E7CC
:100493000B0ACB33CBCD33CDCC33CC33CB3350144E
:1004A3007004ED30E00ED2F1E4CD3DCDCC3CCC3B3D
:1004B3005005DA05C2F1EB547FC63308E63392F0F8
:1004C300FBE73309E733C39A502D2B70190C0D4CFE
:1004D3004D70151806E608C333700D20F10AA2F01B
:1004E30013F6E418800B4024E4F630F0027680180B
:1004F300F618F618F68024D33B14501074FFA2F0BC
:1005030013F6187680E418F618F6800FA2F013F6A7
:1005130018E63303F618ECF618EDF6D0E0FDD0E05C
:10052300FCD0E0FBD0E0FA221202D560461202C6EC
:10053300603DE9687008F618F618F618F62274801C
:1005430067F712055F090909748067F7221202C66B
:10055300601D1202D57005191919801A12029C70B8
:100563001F1202B1C37003E6673319191940071844
:1005730018182208080874FFF618F618F618F62259
:100583001202B16017120292702192F01202887067
:1005930019501720F014080808090909E7F6181973
:1005A300E7F61819E7F61819E7F62212028860E64B
:1005B300E869701F0808E62480F608E436F6185444
:1005C3007FB47F0CE654806007F6E418F618F62231
:1005D300181822E9C6CC08C6CD08C6CE08C6CFC0B7
:1005E300E0E8C0E0EAC0E0EBC0E009E9F809E7FAB7
:1005F30009E7FBE6F918E6F8C3EC98ED99EE9AEBF8
:10060300C2E7F5F0EFC2E795F0500E600CEBCFFBBD
:10061300EACEFAE9CDF9E8CCF8EAA2E7D2E7FAEBB9
:1006230033FB13F5F0EEA2E7D2E7FEEF33FFC5F09D
:1006330013A2E730E601B313C5F0C3C0E0C0F07FF7
:1006430000C39BFB605B9418600C401AD0E023F955
:10065300D0E0F802072E8AF0E9486003D2F0E4AF55
:10066300F0FAF9F8803BEB30E40D89F0EA6003D24D
:10067300F0E4AFF0F9CAF8EB30E30D88F0EF600275
:10068300D2F0AFF0E4CAC9F8EB54076014FBC3EA35
:1006930013FAE913F9E813F8EF135002D2E0FFDB82
:1006A300EDD0E0C0E030E739C3E49FFFF5F0EC980C
:1006B300FC42F0ED99FD42F0EE9AFE42F0D0E0F9F3
:1006C300D0E0F8E5F0607AE923F9EE20E742D802BA
:1006D3008067C3EF33FFEC33FCED33FDEE33FE8075
:1006E300EAEC28FCED39FDEE3AFED0E023F9D0E048
:1006F300F84002801BC3EE13FEED13FDEC13FCEF79
:10070300135002D2E0FF08B800067F7F74FF802EEB
:10071300EF3350178CF020F00260100CBC000C0D6E
:10072300BD00080EBE000408E860DFE933E813FFEC
:10073300EE2313FE4F4D4C8008E95480FFE4FEFD89
:10074300FCEE33EF33F47004FCFD7E80D0E0FBD08D
:10075300E0FAD0E0F8D0E0CFC618CEC618CDC61860
:10076300CCC6F9221202C67004181818221202D538
:10077300700D74FFF61819F61819F61819F622E712
:10078300548066F6120288700F12029270F014F60B
:1007930008F608F608F680D1120292700CF608F6F5
:1007A30008768008E6447F80EC1202B4700C1202D3
:1007B3009F60BFE65480F6E480BB12029F70051968
:1007C300191980A5E869700C763F18768018F61819
:1007D300F6E8F922E6CDC0E018ECC0E0E633CD330D
:1007E300CDD313F6E719FCE7191933CC33C3947F40
:1007F300400ECD9D502408E65480F6E418F6800F91
:10080300F4043D14501408E6447FF6187680E41887
:10081300F618F6D0E0FCD0E0FD22CCD313CCFD18C3
:10082300E4C6CBC0E018E4C6CAC0E00808ED08C6B9
:1008330033E613F618E433C675F003C3CA97CA093F
:10084300CB97CB199C40047D08802EBD0003020981
:100853001016B6FF050606081618C3CA33CACB33EB
:10086300CB33CA27CA09CB37CB193CC37D08803E9B
:10087300187D0820E75CC633C6CA33CACB33CB33F3
:10088300DDF1D5F0EB30E77BCA97CA09CB974ACBAA
:10089300199C406F4B7025E620E0218066187D0887
:1008A300C3CA97CA09CB97CB199CD3C633C6CA33DD
:1008B300CACB33CB3350C9DDE7D5F0E1D3E4C63639
:1008C300C608C636C608C636C608C636C6181818B9
:1008D3008031C3CA97CA09CB97CB199CB34097C63B
:1008E30033C6CA33CACB33CB33DD34D5F02EC6A2DD
:1008F300E0C640C8CA27CA09CB37194A70BECB3CE9
:10090300B480B90808E63308E633601F181818D016
:10091300E0FAD0E0FBD0E0FCD0E0FD22187D08CA6D
:1009230027CA09CB37CB193CD3808013F618E4B61A
:100933007F11F618B6FF0EF618C60470D2080876B3
:100943008080CAF618F618F680C5E4CFC0E0E4CE7E
:10095300C0E0E4CDC0E0E4CCC0E075F020C3E633F2
:10096300F608E633F608E633F608E633F618181801
:10097300EC33FCED33FDEE33FEEF33FFC3EC9709AD
:10098300ED9709EE9709EF97191919400FFFEC97A7
:10099300FC09ED97FD09EE97FE191906D5F0BEEC9B
:1009A300F709EDF709EEF709EFF7191919D0E0FC8C
:1009B300D0E0FDD0E0FED0E0FF22181818E4C39683
:1009C300F608E496F608E496F608E496F622E0F6CE
:1009D30008A3E0F608A3E0F608A3E0F622E6F00891
:1009E300A3E6F008A3E6F008A3E6F022E0FAA3E00A
:1009F300FBA3E0FCA3E0FD22EAF0A3EBF0A3ECF001
:100A0300A3EDF022CAC0E0E6F0A308DAFAD0E0FAD8
:100A130022CAC0E0E0A3C582CCC582C583CDC5830D
:100A2300F0A3C582CCC582C583CDC583DAE6D0E009
:100A3300CA22C3E498F8E499F9120A768026C3E43B
:100A43009AFAE49BFBE920E7E9120A76E498F8E4D2
:100A530099F922C3E498F8E499F9120A76E498F82C
:100A6300E499F9C3E49AFAE49BFB22EB20E7CFE98C
:100A730020E7E0B90010BB0008E88AF084F8AAF088
:100A830022E4FBC8FA22EB70227B10C833C8C933B7
:100A9300C9335007C39AC3DBF280069A50012ADB9D
:100AA300EAC833F4C8C933F4C9FA2275F008E4C8B4
:100AB30033C8C933C933C99AC99B5004C92AC93B2E
:100AC300D5F0ECFBC833F4C8E4C9FA227004226001
:100AD3000D18C6C333C608C633C6D5E0F41822259D
:100AE3001010AF08F510400215118008F5104002F0
:100AF3001511D2AF22C0D0251010AF08F510500247
:100B030005118008F51050020511D2AFD0D022256F
:100B130010F58210AF08F510400215118008F5108A
:100B230040021511D2AF851183222510F582E435D9
:100B330011F58322E4732510C582C0E0E51134FF6B
:100B4300C583C0E0E510C3958224F810AF08858300
:100B5300118582108008858311858210D2AFCEF073
:100B6300A3E520F0A37808E608F0A3DEFAEFF0A3EC
:100B7300E58124FAF8E608F0A3E608F0A3E608F016
:100B8300A30808E608F0A3E608F0A315811581D0B1
:100B9300E0FED0E0F8158115811581E8C0E0EEC0D4
:100BA300E022851183851082E0A3FEE0A3F520787F
:100BB30008E0A3F608DFFAE0A3FFE0A3C0E0E0A3A8
:100BC300C0E0E0A3C0E0E0A3C0E0E0A3C0E010AF5A
:100BD300088582108583118008858210858311D250
:100BE300AFD083D08202008B740280027401C0E014
:100BF300F404120B12D0E0120A0722740480047466
:100C0300028000CCC0E0EDC0E0E510C39CCCAD1188
:100C130050011D10AF068C108D1180068C108D11A4
:100C2300D2AF120A14D0E0FDD0E0FC22C0D0C28BB8
:100C3300A2E950FCC2E9D0D03274F0120B3974FD32
:100C4300120AE27402120B2DE9F08A088B098C0A4E
:100C53008D0B7415120B2DE0FEA3E0FF851082852A
:100C63001183E4F0A3F08E828F83A3AA82AB8390D7
:100C73000F57780C1209D17808790C1202E4701816
:100C83008E828F83746912111B746EF0A37466F0E5
:100C9300A30A0AAB830210B6780879081202E4604B
:100CA300118E828F83746E12111B7461F0A3746EA4
:100CB30080DD900F5B780C1209D17808790C120350
:100CC300105003020D66900F2F780C1209D178088B
:100CD300790C1202E46003020DBA7417120B2DE0B3
:100CE3007003020DFC851082851183C082C083745A
:100CF30013120B2D121B59D083D0821210F4502CD7
:100D0300851082851183C3E094FCA3E094FFA2D2F3
:100D130065D03340177402120B2DE4121C2DF974A5
:100D230013120B2DC3E098F0A3E099F07413120B88
:100D33002D1211117418120B2DE07003020DF974AA
:100D430017120B2DE4020DFB900F5F780C1209D1E3
:100D53007808790C120767851082851183E0240ACD
:100D6300121C6A900F63780C1209D17808790C125F
:100D7300031040D4900F67780C1209D17808790CCE
:100D83001203104003020CDD900F67780C1209D197
:100D93007808790C120767121C6180D8900F5F786E
:100DA3000C1209D17808790C1203AB8510828511D6
:100DB30083E024F6121114900F6B780C1209D1788A
:100DC30008790C12035F40D4900F5B780C1209D1A1
:100DD3007808790C12035F4003020CDD900F6778EB
:100DE3000C1209D17808790C1203AB851082851196
:100DF3008312111180D27401F07402120B2DE06082
:100E0300077A007B00020F08121100507D8E828F3B
:100E1300837430F0EAFEEBFF7413120B2DE0FCA396
:100E2300E0FDEC4D70087418120B2DE0600B8E8200
:100E33008F83742EF0A30EAF837A007B0080118E14
:100E4300828F83743012113C7413120B2D12111103
:100E5300EA24FF1AEB34FFFB8510828511831210FD
:100E6300E8500B7413120B2D121B5D4970D18510C2
:100E73008285118374FFC39CF874FF9DF91210F4EB
:100E83005003020FD67A01020E0685108285118364
:100E9300121B59C3E498FAE499FB806985080C8511
:100EA300090D850A0E850B0F780C1201F9AC0CE5C0
:100EB3000D3395E0F50EF50F780C12018178087962
:100EC3000C12052B900F67780C1209D17808790C56
:100ED3001203ABEC121136EAF8EBF9E824010AE944
:100EE3003400FBE849701E7413120B2D121B5D496D
:100EF30070087418120B2DE0600B8E828F83742E92
:100F0300F0A30EAF837413120B2D1210E8508D90C3
:100F13000F6F780C1209D17808790C120310400373
:100F2300020FD67C01EE24FFF8EF34FFF97415129B
:100F33000B2DE0F508A3E0F50988828983E0642E90
:100F43006010E02CF0643A70077430F07C0180028A
:100F53007C00E8FAE9FBEA24FF18EB34FFF9C3E568
:100F6300089AE5099B40D2ECA2E050677402120B89
:100F73002DE06036EEF8EF800A1210D3E824FF1854
:100F8300E934FFF9C3E50898E5099950181210C030
:100F9300E0642E70E4E824FEF582E934FFF5831261
:100FA30010CDF980D7121C61801E8E828F83A3AE71
:100FB30082AF83EEF8EF80061210C01210CDF9C392
:100FC300E50898E5099940F07415120B2D121B786A
:100FD3007431F07417120B2DE07005801A1EAF8365
:100FE300EE24FFF582EF34FFF583E0643060EEE03A
:100FF300642E70031EAF837402120B2DE070030284
:1010030010B2121138A3A9831211008E828F83505C
:1010130014742DF00EE9FF851082851183121BA134
:101023001211298006742BF00EE9FF7C007D00EE7F
:10103300240AFEEF3400FFEC24010CED3400FD1212
:1010430010DA120A6EEA1211361210DA120A6E124E
:1010530011434970E2C3EC9402ED121B0A40D8EC31
:10106300FAEDFBC3E49CF8E49DF9EE28F582EF3931
:10107300F583E0C0E0C3E49AF8E49BF9EE28F8EFC7
:1010830039F9E82CF8E93DF9E824F5F582E934FF6C
:10109300F583D0E0F0EC24FF1CED34FFFDC3EC94AA
:1010A30001ED121B0A50BCEE24F6FEEF34FFFFEEF7
:1010B300FAEFFB7403120AF87F08020BA5E824FF7A
:1010C300FAE934FFFB8A828B83221210D318EB22B6
:1010D300E088828983F022851082851183121BAEFA
:1010E3007A0A7B0022C3E09AA3E09BA2D265D033A5
:1010F30022C3E098A3E099A2D265D033228510825F
:10110300851183C3A3E09400A2D265D03322E024E7
:10111300FFF0A3E034FFF022F0EAFEEBFF8E828FB4
:101123008322A3E03400F9851082851183E8F0A3BC
:10113300E9F02224308E828F83F0A3AE82AF832224
:1011430085108285118312114D22E8F0A3E9F08501
:101153001082851183E02274F0120B3974B0120AE5
:10116300E2851082851183121C137418120B2DEC67
:10117300F0A3EDF0740F120B2DE4F0A38022746042
:10118300120B2D121B497404120B2DE0F974181263
:101193000B2D121B78120B37740F120B2D121B120F
:1011A300F0121B8CFA121C4C120B2DEAF074256AF8
:1011B3006010E070C9740F120B2D121B497450029A
:1011C30010B8121B8C64257019851082851183E079
:1011D3002401081211257460120B2D121B49792565
:1011E30080AB740E120B2DE4F0740D120B2DE4F092
:1011F300740C120B2DE4F07405120B2DE4F0741E25
:10120300120B2DA882A9837402120B2D801574056D
:10121300120B2DE070077405120B2DEAF085108276
:10122300851183121149121B40121BD3FA24E0606B
:10123300DD24FD601724F860DD24FE600624FD60D4
:101243000F8011740C120B2DE00480D0740D80F507
:10125300740E80F1121BD3642A705B7462120B2D1F
:10126300121BDEFB8A828B83E0FCA3E0FD740A126F
:101273000B2DECF0A3EDF0EA24020A0AEB3400FB99
:101283007462120B2D121C0B740A120B2D12110611
:10129300501F740A120B2D121B49C3E49AFAE49BE4
:1012A300FB740A120B2D121C13740C120B2DE00489
:1012B300F012112A804A740A120B2DE4F0A3802D38
:1012C300740A120B2D121B5D75F00AA4F8AAF075AF
:1012D300F00AE9A42AF9E50828F8E439F9E824D062
:1012E300F8E934FFF9740A120B2D121C71121C2D2C
:1012F300F5838882E0F50874D02508C3940A40C0BA
:10130300740C120B2DE06007740E120B2DE4F01217
:101313001B8C642E60030213A5851082851183E064
:10132300240108A3E03400F9121143121B7DE06489
:101333002A702C7462120B2D121B92F8A3E0F98809
:10134300828983E0FEA3E0FFE824020808E9340071
:10135300F97462120B2D121BC6121C71F080477EAA
:10136300007F00851082851183121B9B74D0250892
:10137300C3940A5031EE75F00AA4FEA8F075F00A82
:10138300EFA428FFE5082EF8E43FF9E824D0FEE9AE
:1013930034FFFF851082851183E02401F8121125A3
:1013A30080C17EFF7FFF7A00851082851183121B27
:1013B3003B851082851183E0FBA3E0F5838B82E0FC
:1013C30024B4600824E4600524FC70040A12112A82
:1013D300121B8CFB121C4C120B2DEBF07003021929
:1013E300B024BB700302187624FE7003021858243D
:1013F300EF70030215A224F570030214A7147003FF
:10140300021647147003021876147003021874143A
:10141300700302185824FE700302164724FB60244D
:101423001470030215921470030215A224FD7003B5
:101433000214E024FE70030215A224FD70030215BA
:10144300A20219BC7462120B2D121C05120B2D1271
:101453001130EAA2E0740F5033120B2DE0FCA3E02D
:10146300FD3395E0FE7406120B2D121BE6ECF0A380
:10147300EDF0A3EEF0A3F07462120B2D121BED122C
:101483000B2D121BC6E8F0A3E90211A3120B2D12B8
:101493001B597406120B2D121BDEF5838A82E8F0AA
:1014A300A3E980D27462120B2D121BE6E0C0E07434
:1014B3001E120B2DD0E0F07462120B2D121BED12D5
:1014C3000B2D121BC6121130741F120B2DA882A9EB
:1014D300837412120B2DE8F0A3E90219D37462127C
:1014E3000B2D121C05120B2D1211307406120B2D2D
:1014F300121C05120B2DE02402FAA3E03400FB7446
:1015030062120B2D121C0B7402120B2D121130E8F8
:1015130049700C7402120B2D7444F0A3740FF01273
:101523001B0850047E107F277408120B2DE4F0A3D0
:1015330080087408120B2D121B12F07402120B2D6B
:10154300121B5988828983A3AA82AB837402120B6C
:101553002D121C1388828983E0600A7408120B2DF4
:10156300121B6240CD7402120B2D121B297412122E
:101573000B2D1211307408120B2D121BA1F97412CA
:10158300120B2DE028F8A3E039F974020214D67483
:101593000D120B2DE06008EE4F70047E017F007486
:1015A30062120B2D121C05120B2D121C59120B2D3E
:1015B300E0647070387406120B2D121BFB120B2D96
:1015C300121C34120B2DE02402121BBD120B2D1220
:1015D3001BC6121130900F731209EF741A120B2DE0
:1015E3001209FB7405120B2DE4F00216D7EAA2E0F0
:1015F3007406501B120B2D121B781209EF74141270
:101603000B2D1209FB7406120B2DE0240480121219
:101613000B2D121BFB120B2D121C34120B2DE0246D
:1016230002121BBD120B2D121BC6121C59120B2DBD
:10163300E0646F7005900F77809EE06475709690FC
:101643000F7B80947462120B2D121C05120B2D124A
:101653001130EAA2E074065016120B2D121B787893
:10166300081209D17406120B2DE02404F8801B1212
:101673000B2D121B9BA3E0F5093395E0F50AF50B3F
:101683007406120B2DE024020808121BBE120B2D48
:10169300121C41120B2D78081209E0900F2F7808C5
:1016A30012015B40217405120B2D742DF07414127A
:1016B3000B2D78081209D178081209C07414120B83
:1016C3002D78081209E0900F7B1209EF741A120BA0
:1016D3002D1209FB744F120B2DA882A983740212D9
:1016E3000B2D1211307412120B2D121C44120B2DE0
:1016F30078081209D1E5084509450A450B600974C4
:1017030011120B2D740180067411120B2DE4F0EEEF
:101713004F7008E0A2E040030217CB7402120B2DB6
:10172300121B72120B2D121C44120B2D780C120972
:10173300D1741A120B2D78081209D1780C7908127A
:10174300094D74332508F582740F3509F583E0C01C
:10175300E07402120B2D121B78D0E0F07414120BFC
:101763002D780C1209D1741A120B2D78081209D195
:10177300780C790812094D7414120B2D780C120988
:10178300E07414120B2D78081209D1E508450945B8
:101793000A450B7086121B08502E740E120B2DE097
:1017A30060267405120B2DE06004D2F08002C2F0B3
:1017B300740A120B2D121B1B800E7402120B2D12B6
:1017C3001C25120B2D121B857402120B2D121B29C3
:1017D300744F120B2DC082C0837402120B2D121B87
:1017E30049D083D082E582C39AFAE5839BFBC3EA9F
:1017F3009EEB121B6B40C3740D120B2DE0700302A2
:1018030019D47411120B2DE0A2E040030219D47411
:1018130004120B2DE064786005E06458701E12100A
:10182300D3E824FF18E934FFF97402120B2D121CBC
:1018330025120B2D121B7874300219D3E0646F60EC
:10184300030219D47402120B2D121BD964307003D6
:101853000219D480D47408120B2D7401F0A3E4F0A0
:101863007404120B2DE024FEF0EE4F700F7E018006
:1018730012E4F07408120B2DE4F0A3F0121B0850CD
:10188300047E067F007462120B2D121C05120B2DB1
:101893001211307406120B2D121B78780C1209D119
:1018A3007406120B2DE02404121BBD120B2D121C07
:1018B30041120B2D780C1209E0900F2F78081209B2
:1018C300D1780C790812035F50227405120B2D7422
:1018D3002DF07414120B2D78081209D1E50BB2E721
:1018E300F50B7414120B2D78081209E0740A120B0D
:1018F3002D121B59741E120B2DE58228F8E583392E
:10190300F97402120B2D121130740D120B2DE0F528
:10191300087808120BEF7409120B2DE0F50878080C
:10192300120BEF7404120B2D120C028E088F097820
:1019330008120BEB740A120B2DE0F9741A120B2D1B
:101943001209EF12014F7406120AF87412120B2DCA
:10195300121C13740E120B2DE060767405120B2DFE
:10196300E06004D2F08002C2F0740A120B2D121B45
:101973001B7412120B2DC082C0837402120B2D1222
:101983001B59D083D082E0C398F8A3E099F9C3E848
:101993009EE9121B6B503A7402120B2D121B72122A
:1019A3000B2D121C25120B2D121B8580C485108252
:1019B300851183121B321211297402120B2D7453D9
:1019C300F0A3740FF07412120B2D7456F0A3740F5E
:1019D300F07412120B2DC082C0837402120B2D12ED
:1019E3001B59D083D082E0C398FEA3E099FF740A09
:1019F300120B2D121B62500A7408120B2DE4F0A374
:101A030080307405120B2DE06004D2F08002C2F026
:101A1300740A120B2DE0C39EF8A3E09FF9A2F0E431
:101A230033FAE89AF8E99400F97408120B2DE8F0F8
:101A3300A3E9F0740C120B2DE0702B801974601263
:101A43000B2D121B4F120B2D121B78120B37740F19
:101A5300120B2D121C677408120B2D121C19120B7A
:101A63002D12110650D77405120B2DE060507460CF
:101A7300120B2D121B497405120B2DE0F974181269
:101A83000B2D121B78120B37802C7460120B2D1246
:101A93001B497402120B2D121B92F97418120B2D91
:101AA300121B78120B377402120B2D121B3B74029C
:101AB300120B2D121130740F120B2D121C67EE2412
:101AC300FF1EEF34FFFFC3121B0A50BE740C120B30
:101AD3002DE070030211A47408120B2D121C1912AD
:101AE3000B2D12110650030211A47460120B2D1258
:101AF3001B4F120B2D121B78120B37740F120B2D69
:101B0300121C6780D2C3EF9400A2D265D03322E0C7
:101B13002401F0A3E0340022A2F0E433F8E098FEBD
:101B2300A3E09400FF22121B2D22121B32F922E0A4
:101B330024FFF8A3E034FF22E0121B40222401F823
:101B4300A3E03400F922E0FAA3E0FB22E0FAA3E0E9
:101B5300FB7920741822121BAE22121BAEE822C39B
:101B6300E09EA3E0121B6B229FA2D265D033221208
:101B73001B2D740222121B7C22E0F8A3E0F583885C
:101B83008222121B7C7430F022851082851183120D
:101B93001B9622121BB4E022121B96F50822121B7D
:101BA300AEC3E498F8E49922121BB4E0F8A3E0F979
:101BB30022E0F8A3E0F583888222F8A3E03400F959
:101BC300746222121BCA22E0FAA3E0F5838A8222FE
:101BD300851082851183121BCAE022121BCAE0FA08
:101BE300A3E022121B96121B7D22121B962402F8DD
:101BF300A3E03400F9746222121BABE8FAE9FB7428
:101C03001422121BAB740622E0FCA3E0F5838C8242
:101C1300EAF0A3EBF022E024FFF0A3E034FFF0743A
:101C23000822E8F0A3E9F0740222121151F8A3E0AC
:101C330022EAF0A3EBF0A3E4F0A3F0740622121B54
:101C4300CAE8F0A3E9F0741422851082851183E0B9
:101C5300240108121C7FE8F0A3E9F0740422851024
:101C630082851183E02401F0A3E03400F0221211F5
:101C73004D2401F8121C7FE8F0A3E922A3E034000D
:101C8300F985108285118322C082C0838A828B8367
:101C9300121D22E9F08A828B83E02401FCA3E03445
:101CA30000FD8A828B83ECF0A3EDF0D083D0820217
:101CB300008B74F6120B3974FC120AE27402120BD5
:101CC3002DEAF0A3EBF0ECFAEDFB740E120B2DA84A
:101CD30082A983851082851183E8F0A3E9F085103A
:101CE300828511838582088583097808120BEB743A
:101CF30004120B2D8582088583097808120BEB7C6F
:101D0300437D011201557404120AF87402120B2D5B
:101D1300121D22E4F07404120AF87F02020BA5E0FC
:101D2300F8A3E0F583888222C082C0831201199050
:101D3300624B7401F09061BD7401F0D083D08202D4
:101D4300008B74F0120B3975B63E43B43043B44084
:101D5300E5B4A2E750FAE5BAC4540FF508750900D3
:101D630085BB0A750B007404780A120ACFE50A458D
:101D730008F508E50B4509F509E4F50AF50B7808BC
:101D830012019C900F18780C1209D17808790C1263
:101D93000550900F1C780C1209D17808790C1207A2
:101DA30067900F20780C1209D17808790C1205502E
:101DB300AA08AB09AC0AAD0B7F08020BA512012BD5
:101DC30012011912013112010D80711201138A08D7
:101DD3008B098C0A8D0B780C79081205500EEEC313
:101DE300944040E7900F2B78081209D1780C7908BA
:101DF300120767900F00780C1209E0750814750933
:101E0300007808120BEB7C007D007A047B0F120133
:101E13003D7402120AF8900F00120BFE7C247D0F12
:101E23007A047B0F1201497404120AF879147A04B4
:101E33007B0F1201377AE87B03120125900F2F786D
:101E43000C1209D17E00809653F1FE43F30C4386B6
:101E5300C075C50875C23BD2AAD2AF02008BC0823F
:101E6300C08380178A828B83E0F5C18A828B83A328
:101E7300AA82AB83A2E950FCC2E919E9C3940150D9
:101E8300E3D083D08202008B8008EA24FFFAEB348C
:101E9300FFFBEA4B70F402008B8014E824FFF8E99F
:101EA30034FFF9E84970F4EA24FFFAEB34FFFBEA64
:101EB3004B6006784B790280EA02008B74F7120BB1
:101EC300397409120B2DE0F8A3E0F98A828B838021
:101ED30003ECF0A3E8FEE9FFEE24FF18EF34FFF96B
:101EE300EE4F70ED7F01020BA5C082C08353BEFB92
:101EF300E59DA2E650FA7A3F7B0012011F53C6F814
:101F030053C6BFE59EA2E640FAD083D08202008B7F
:0C1F130053F4F843FE0775900002008BA9
:040000050000007384
:00000001FF
