:020000040000FA
:1000000002002D7582EE758300740012003F12000D
:100010005DB9000302001775822675830174001212
:10002000003F758218758301740012003F75D0007F
:100030007581BF75100075110F759F0002000EC00D
:100040009FF59FE473D09F22D083D082C09FE4931A
:10005000C0E0740193C0E0740293F59F22790122FD
:10006000120048030000120048320100251010AFB2
:1000700008F510400215118008F51040021511D244
:10008000AF222510C582C0E0E51134FFC583C0E072
:10009000E510C3958224F810AF088583118582107E
:1000A0008008858311858210D2AFCEF0A3E520F0C1
:1000B000A37808E608F0A3DEFAEFF0A3E58124FABE
:1000C000F8E608F0A3E608F0A3E608F0A30808E6BF
:1000D00008F0A3E608F0A315811581D0E0FED0E07A
:1000E000F8158115811581E8C0E0EEC0E02274F7B3
:1000F00012008274FE12006CEAFEEBFF851082850E
:100100001183EEF0A3EFF0851082851183AA82ABF4
:1001100083790112006680E4C082C083120060D03F
:1001200083D08202004553F4F843FE07759007021E
:0501300000450200453E
:040000050000002DCA
:00000001FF
