:020000040000FA
:1000000002002700000080FB120051B9000302002B
:10001000117582FB758300740012003375820375BD
:100020008300740012003375D0007581BF759F0086
:10003000020008C09FF59FE473D09F22D083D08236
:10004000C09FE493C0E0740193C0E0740293F59FF5
:100050002279012212003CD4000012003C72000000
:1000600012003C83000012003CA6000012003CB2CB
:1000700000008008EA24FFFAEB34FFFBEA4B70F43F
:100080000200398014E824FFF8E934FFF9E84970E8
:10009000F4EA24FFFAEB34FFFBEA4B6006784B7975
:1000A0000280EA02003953F4F843FE07759000021B
:1000B0000039E914600814600C1460108013EAA27F
:1000C000E09290800CEAA2E092918005EAA2E09290
:1000D00092020039C082C08353BEFBE59DA2E65068
:1000E000FA7A3F7B0012005A53C6F853C6BFE59E0A
:1000F000A2E640FAD083D0820200391200661200D4
:10010000547A01790112006C7AF47B011200607A52
:0F01100000790112006C7AF47B0112006080E22A
:0400000500000027D0
:00000001FF
